{
	"Assignment3/q1.sol": {
		"Lottery": {
			"abi": [
				{
					"inputs": [],
					"stateMutability": "nonpayable",
					"type": "constructor"
				},
				{
					"inputs": [],
					"name": "enter",
					"outputs": [],
					"stateMutability": "payable",
					"type": "function"
				},
				{
					"inputs": [],
					"name": "getPlayers",
					"outputs": [
						{
							"internalType": "address payable[]",
							"name": "",
							"type": "address[]"
						}
					],
					"stateMutability": "view",
					"type": "function"
				},
				{
					"inputs": [],
					"name": "manager",
					"outputs": [
						{
							"internalType": "address",
							"name": "",
							"type": "address"
						}
					],
					"stateMutability": "view",
					"type": "function"
				},
				{
					"inputs": [],
					"name": "pickWinner",
					"outputs": [],
					"stateMutability": "nonpayable",
					"type": "function"
				},
				{
					"inputs": [
						{
							"internalType": "uint256",
							"name": "",
							"type": "uint256"
						}
					],
					"name": "players",
					"outputs": [
						{
							"internalType": "address payable",
							"name": "",
							"type": "address"
						}
					],
					"stateMutability": "view",
					"type": "function"
				},
				{
					"stateMutability": "payable",
					"type": "receive"
				}
			],
			"devdoc": {
				"kind": "dev",
				"methods": {},
				"version": 1
			},
			"evm": {
				"assembly": "    /* \"Assignment3/q1.sol\":68:2211  contract Lottery {... */\n  mstore(0x40, 0x80)\n    /* \"Assignment3/q1.sol\":341:394  constructor() {... */\n  callvalue\n  dup1\n  iszero\n  tag_1\n  jumpi\n  0x00\n  dup1\n  revert\ntag_1:\n  pop\n    /* \"Assignment3/q1.sol\":376:386  msg.sender */\n  caller\n    /* \"Assignment3/q1.sol\":366:373  manager */\n  0x00\n  dup1\n    /* \"Assignment3/q1.sol\":366:386  manager = msg.sender */\n  0x0100\n  exp\n  dup2\n  sload\n  dup2\n  0xffffffffffffffffffffffffffffffffffffffff\n  mul\n  not\n  and\n  swap1\n  dup4\n  0xffffffffffffffffffffffffffffffffffffffff\n  and\n  mul\n  or\n  swap1\n  sstore\n  pop\n    /* \"Assignment3/q1.sol\":68:2211  contract Lottery {... */\n  dataSize(sub_0)\n  dup1\n  dataOffset(sub_0)\n  0x00\n  codecopy\n  0x00\n  return\nstop\n\nsub_0: assembly {\n        /* \"Assignment3/q1.sol\":68:2211  contract Lottery {... */\n      mstore(0x40, 0x80)\n      jumpi(tag_1, lt(calldatasize, 0x04))\n      shr(0xe0, calldataload(0x00))\n      dup1\n      0x481c6a75\n      eq\n      tag_3\n      jumpi\n      dup1\n      0x5d495aea\n      eq\n      tag_4\n      jumpi\n      dup1\n      0x8b5b9ccc\n      eq\n      tag_5\n      jumpi\n      dup1\n      0xe97dcb62\n      eq\n      tag_6\n      jumpi\n      dup1\n      0xf71d96cb\n      eq\n      tag_7\n      jumpi\n      jump(tag_2)\n    tag_1:\n      jumpi(tag_2, calldatasize)\n      stop\n    tag_2:\n      0x00\n      dup1\n      revert\n        /* \"Assignment3/q1.sol\":153:175  address public manager */\n    tag_3:\n      callvalue\n      dup1\n      iszero\n      tag_10\n      jumpi\n      0x00\n      dup1\n      revert\n    tag_10:\n      pop\n      tag_11\n      tag_12\n      jump\t// in\n    tag_11:\n      mload(0x40)\n      tag_13\n      swap2\n      swap1\n      tag_14\n      jump\t// in\n    tag_13:\n      mload(0x40)\n      dup1\n      swap2\n      sub\n      swap1\n      return\n        /* \"Assignment3/q1.sol\":1331:1947  function pickWinner() public {... */\n    tag_4:\n      callvalue\n      dup1\n      iszero\n      tag_15\n      jumpi\n      0x00\n      dup1\n      revert\n    tag_15:\n      pop\n      tag_16\n      tag_17\n      jump\t// in\n    tag_16:\n      stop\n        /* \"Assignment3/q1.sol\":2006:2108  function getPlayers() view public returns (address payable[] memory) {... */\n    tag_5:\n      callvalue\n      dup1\n      iszero\n      tag_18\n      jumpi\n      0x00\n      dup1\n      revert\n    tag_18:\n      pop\n      tag_19\n      tag_20\n      jump\t// in\n    tag_19:\n      mload(0x40)\n      tag_21\n      swap2\n      swap1\n      tag_22\n      jump\t// in\n    tag_21:\n      mload(0x40)\n      dup1\n      swap2\n      sub\n      swap1\n      return\n        /* \"Assignment3/q1.sol\":757:1048  function enter() payable public {... */\n    tag_6:\n      tag_23\n      tag_24\n      jump\t// in\n    tag_23:\n      stop\n        /* \"Assignment3/q1.sol\":236:268  address payable[] public players */\n    tag_7:\n      callvalue\n      dup1\n      iszero\n      tag_25\n      jumpi\n      0x00\n      dup1\n      revert\n    tag_25:\n      pop\n      tag_26\n      0x04\n      dup1\n      calldatasize\n      sub\n      dup2\n      add\n      swap1\n      tag_27\n      swap2\n      swap1\n      tag_28\n      jump\t// in\n    tag_27:\n      tag_29\n      jump\t// in\n    tag_26:\n      mload(0x40)\n      tag_30\n      swap2\n      swap1\n      tag_31\n      jump\t// in\n    tag_30:\n      mload(0x40)\n      dup1\n      swap2\n      sub\n      swap1\n      return\n        /* \"Assignment3/q1.sol\":153:175  address public manager */\n    tag_12:\n      0x00\n      dup1\n      sload\n      swap1\n      0x0100\n      exp\n      swap1\n      div\n      0xffffffffffffffffffffffffffffffffffffffff\n      and\n      dup2\n      jump\t// out\n        /* \"Assignment3/q1.sol\":1331:1947  function pickWinner() public {... */\n    tag_17:\n        /* \"Assignment3/q1.sol\":1393:1400  manager */\n      0x00\n      dup1\n      sload\n      swap1\n      0x0100\n      exp\n      swap1\n      div\n      0xffffffffffffffffffffffffffffffffffffffff\n      and\n        /* \"Assignment3/q1.sol\":1379:1400  msg.sender == manager */\n      0xffffffffffffffffffffffffffffffffffffffff\n      and\n        /* \"Assignment3/q1.sol\":1379:1389  msg.sender */\n      caller\n        /* \"Assignment3/q1.sol\":1379:1400  msg.sender == manager */\n      0xffffffffffffffffffffffffffffffffffffffff\n      and\n      eq\n        /* \"Assignment3/q1.sol\":1371:1437  require(msg.sender == manager, \"Only manager can pick the winner\") */\n      tag_33\n      jumpi\n      mload(0x40)\n      0x08c379a000000000000000000000000000000000000000000000000000000000\n      dup2\n      mstore\n      0x04\n      add\n      tag_34\n      swap1\n      tag_35\n      jump\t// in\n    tag_34:\n      mload(0x40)\n      dup1\n      swap2\n      sub\n      swap1\n      revert\n    tag_33:\n        /* \"Assignment3/q1.sol\":1473:1474  0 */\n      0x00\n        /* \"Assignment3/q1.sol\":1456:1463  players */\n      0x01\n        /* \"Assignment3/q1.sol\":1456:1470  players.length */\n      dup1\n      sload\n      swap1\n      pop\n        /* \"Assignment3/q1.sol\":1456:1474  players.length > 0 */\n      gt\n        /* \"Assignment3/q1.sol\":1448:1504  require(players.length > 0, \"No players in the lottery\") */\n      tag_36\n      jumpi\n      mload(0x40)\n      0x08c379a000000000000000000000000000000000000000000000000000000000\n      dup2\n      mstore\n      0x04\n      add\n      tag_37\n      swap1\n      tag_38\n      jump\t// in\n    tag_37:\n      mload(0x40)\n      dup1\n      swap2\n      sub\n      swap1\n      revert\n    tag_36:\n        /* \"Assignment3/q1.sol\":1525:1535  uint index */\n      0x00\n        /* \"Assignment3/q1.sol\":1549:1556  players */\n      0x01\n        /* \"Assignment3/q1.sol\":1549:1563  players.length */\n      dup1\n      sload\n      swap1\n      pop\n        /* \"Assignment3/q1.sol\":1538:1546  random() */\n      tag_39\n        /* \"Assignment3/q1.sol\":1538:1544  random */\n      tag_40\n        /* \"Assignment3/q1.sol\":1538:1546  random() */\n      jump\t// in\n    tag_39:\n        /* \"Assignment3/q1.sol\":1538:1563  random() % players.length */\n      tag_41\n      swap2\n      swap1\n      tag_42\n      jump\t// in\n    tag_41:\n        /* \"Assignment3/q1.sol\":1525:1563  uint index = random() % players.length */\n      swap1\n      pop\n        /* \"Assignment3/q1.sol\":1574:1597  address contractAddress */\n      0x00\n        /* \"Assignment3/q1.sol\":1608:1612  this */\n      address\n        /* \"Assignment3/q1.sol\":1574:1613  address contractAddress = address(this) */\n      swap1\n      pop\n        /* \"Assignment3/q1.sol\":1691:1703  bool success */\n      0x00\n        /* \"Assignment3/q1.sol\":1709:1716  players */\n      0x01\n        /* \"Assignment3/q1.sol\":1717:1722  index */\n      dup4\n        /* \"Assignment3/q1.sol\":1709:1723  players[index] */\n      dup2\n      sload\n      dup2\n      lt\n      tag_43\n      jumpi\n      tag_44\n      tag_45\n      jump\t// in\n    tag_44:\n    tag_43:\n      swap1\n      0x00\n      mstore\n      keccak256(0x00, 0x20)\n      add\n      0x00\n      swap1\n      sload\n      swap1\n      0x0100\n      exp\n      swap1\n      div\n      0xffffffffffffffffffffffffffffffffffffffff\n      and\n        /* \"Assignment3/q1.sol\":1709:1728  players[index].call */\n      0xffffffffffffffffffffffffffffffffffffffff\n      and\n        /* \"Assignment3/q1.sol\":1736:1751  contractAddress */\n      dup3\n        /* \"Assignment3/q1.sol\":1736:1759  contractAddress.balance */\n      0xffffffffffffffffffffffffffffffffffffffff\n      and\n      balance\n        /* \"Assignment3/q1.sol\":1709:1764  players[index].call{value: contractAddress.balance}(\"\") */\n      mload(0x40)\n      tag_47\n      swap1\n      tag_48\n      jump\t// in\n    tag_47:\n      0x00\n      mload(0x40)\n      dup1\n      dup4\n      sub\n      dup2\n      dup6\n      dup8\n      gas\n      call\n      swap3\n      pop\n      pop\n      pop\n      returndatasize\n      dup1\n      0x00\n      dup2\n      eq\n      tag_51\n      jumpi\n      mload(0x40)\n      swap2\n      pop\n      and(add(returndatasize, 0x3f), not(0x1f))\n      dup3\n      add\n      0x40\n      mstore\n      returndatasize\n      dup3\n      mstore\n      returndatasize\n      0x00\n      0x20\n      dup5\n      add\n      returndatacopy\n      jump(tag_50)\n    tag_51:\n      0x60\n      swap2\n      pop\n    tag_50:\n      pop\n        /* \"Assignment3/q1.sol\":1690:1764  (bool success, ) = players[index].call{value: contractAddress.balance}(\"\") */\n      pop\n      swap1\n      pop\n        /* \"Assignment3/q1.sol\":1783:1790  success */\n      dup1\n        /* \"Assignment3/q1.sol\":1775:1811  require(success, \"Transfer failed.\") */\n      tag_52\n      jumpi\n      mload(0x40)\n      0x08c379a000000000000000000000000000000000000000000000000000000000\n      dup2\n      mstore\n      0x04\n      add\n      tag_53\n      swap1\n      tag_54\n      jump\t// in\n    tag_53:\n      mload(0x40)\n      dup1\n      swap2\n      sub\n      swap1\n      revert\n    tag_52:\n        /* \"Assignment3/q1.sol\":1919:1920  0 */\n      0x00\n        /* \"Assignment3/q1.sol\":1897:1921  new address payable[](0) */\n      0xffffffffffffffff\n      dup2\n      gt\n      iszero\n      tag_55\n      jumpi\n      tag_56\n      tag_57\n      jump\t// in\n    tag_56:\n    tag_55:\n      mload(0x40)\n      swap1\n      dup1\n      dup3\n      mstore\n      dup1\n      0x20\n      mul\n      0x20\n      add\n      dup3\n      add\n      0x40\n      mstore\n      dup1\n      iszero\n      tag_58\n      jumpi\n      dup2\n      0x20\n      add\n      0x20\n      dup3\n      mul\n      dup1\n      calldatasize\n      dup4\n      calldatacopy\n      dup1\n      dup3\n      add\n      swap2\n      pop\n      pop\n      swap1\n      pop\n    tag_58:\n      pop\n        /* \"Assignment3/q1.sol\":1887:1894  players */\n      0x01\n        /* \"Assignment3/q1.sol\":1887:1921  players = new address payable[](0) */\n      swap1\n      dup1\n      mload\n      swap1\n      0x20\n      add\n      swap1\n      tag_59\n      swap3\n      swap2\n      swap1\n      tag_60\n      jump\t// in\n    tag_59:\n      pop\n        /* \"Assignment3/q1.sol\":1360:1947  {... */\n      pop\n      pop\n      pop\n        /* \"Assignment3/q1.sol\":1331:1947  function pickWinner() public {... */\n      jump\t// out\n        /* \"Assignment3/q1.sol\":2006:2108  function getPlayers() view public returns (address payable[] memory) {... */\n    tag_20:\n        /* \"Assignment3/q1.sol\":2049:2073  address payable[] memory */\n      0x60\n        /* \"Assignment3/q1.sol\":2093:2100  players */\n      0x01\n        /* \"Assignment3/q1.sol\":2086:2100  return players */\n      dup1\n      sload\n      dup1\n      0x20\n      mul\n      0x20\n      add\n      mload(0x40)\n      swap1\n      dup2\n      add\n      0x40\n      mstore\n      dup1\n      swap3\n      swap2\n      swap1\n      dup2\n      dup2\n      mstore\n      0x20\n      add\n      dup3\n      dup1\n      sload\n      dup1\n      iszero\n      tag_62\n      jumpi\n      0x20\n      mul\n      dup3\n      add\n      swap2\n      swap1\n      0x00\n      mstore\n      keccak256(0x00, 0x20)\n      swap1\n    tag_63:\n      dup2\n      0x00\n      swap1\n      sload\n      swap1\n      0x0100\n      exp\n      swap1\n      div\n      0xffffffffffffffffffffffffffffffffffffffff\n      and\n      0xffffffffffffffffffffffffffffffffffffffff\n      and\n      dup2\n      mstore\n      0x20\n      add\n      swap1\n      0x01\n      add\n      swap1\n      dup1\n      dup4\n      gt\n      tag_63\n      jumpi\n    tag_62:\n      pop\n      pop\n      pop\n      pop\n      pop\n      swap1\n      pop\n        /* \"Assignment3/q1.sol\":2006:2108  function getPlayers() view public returns (address payable[] memory) {... */\n      swap1\n      jump\t// out\n        /* \"Assignment3/q1.sol\":757:1048  function enter() payable public {... */\n    tag_24:\n        /* \"Assignment3/q1.sol\":822:829  manager */\n      0x00\n      dup1\n      sload\n      swap1\n      0x0100\n      exp\n      swap1\n      div\n      0xffffffffffffffffffffffffffffffffffffffff\n      and\n        /* \"Assignment3/q1.sol\":808:829  msg.sender != manager */\n      0xffffffffffffffffffffffffffffffffffffffff\n      and\n        /* \"Assignment3/q1.sol\":808:818  msg.sender */\n      caller\n        /* \"Assignment3/q1.sol\":808:829  msg.sender != manager */\n      0xffffffffffffffffffffffffffffffffffffffff\n      and\n      sub\n        /* \"Assignment3/q1.sol\":800:854  require(msg.sender != manager, \"Manager cannot enter\") */\n      tag_65\n      jumpi\n      mload(0x40)\n      0x08c379a000000000000000000000000000000000000000000000000000000000\n      dup2\n      mstore\n      0x04\n      add\n      tag_66\n      swap1\n      tag_67\n      jump\t// in\n    tag_66:\n      mload(0x40)\n      dup1\n      swap2\n      sub\n      swap1\n      revert\n    tag_65:\n        /* \"Assignment3/q1.sol\":893:898  false */\n      0x00\n        /* \"Assignment3/q1.sol\":873:898  alreadyEntered() == false */\n      iszero\n      iszero\n        /* \"Assignment3/q1.sol\":873:889  alreadyEntered() */\n      tag_68\n        /* \"Assignment3/q1.sol\":873:887  alreadyEntered */\n      tag_69\n        /* \"Assignment3/q1.sol\":873:889  alreadyEntered() */\n      jump\t// in\n    tag_68:\n        /* \"Assignment3/q1.sol\":873:898  alreadyEntered() == false */\n      iszero\n      iszero\n      eq\n        /* \"Assignment3/q1.sol\":865:925  require(alreadyEntered() == false, \"Player already entered\") */\n      tag_70\n      jumpi\n      mload(0x40)\n      0x08c379a000000000000000000000000000000000000000000000000000000000\n      dup2\n      mstore\n      0x04\n      add\n      tag_71\n      swap1\n      tag_72\n      jump\t// in\n    tag_71:\n      mload(0x40)\n      dup1\n      swap2\n      sub\n      swap1\n      revert\n    tag_70:\n        /* \"Assignment3/q1.sol\":957:964  1 ether */\n      0x0de0b6b3a7640000\n        /* \"Assignment3/q1.sol\":944:953  msg.value */\n      callvalue\n        /* \"Assignment3/q1.sol\":944:964  msg.value >= 1 ether */\n      lt\n      iszero\n        /* \"Assignment3/q1.sol\":936:996  require(msg.value >= 1 ether, \"Minimum amount must be paid\") */\n      tag_73\n      jumpi\n      mload(0x40)\n      0x08c379a000000000000000000000000000000000000000000000000000000000\n      dup2\n      mstore\n      0x04\n      add\n      tag_74\n      swap1\n      tag_75\n      jump\t// in\n    tag_74:\n      mload(0x40)\n      dup1\n      swap2\n      sub\n      swap1\n      revert\n    tag_73:\n        /* \"Assignment3/q1.sol\":1007:1014  players */\n      0x01\n        /* \"Assignment3/q1.sol\":1028:1038  msg.sender */\n      caller\n        /* \"Assignment3/q1.sol\":1007:1040  players.push(payable(msg.sender)) */\n      swap1\n      dup1\n      0x01\n      dup2\n      sload\n      add\n      dup1\n      dup3\n      sstore\n      dup1\n      swap2\n      pop\n      pop\n      0x01\n      swap1\n      sub\n      swap1\n      0x00\n      mstore\n      keccak256(0x00, 0x20)\n      add\n      0x00\n      swap1\n      swap2\n      swap1\n      swap2\n      swap1\n      swap2\n      0x0100\n      exp\n      dup2\n      sload\n      dup2\n      0xffffffffffffffffffffffffffffffffffffffff\n      mul\n      not\n      and\n      swap1\n      dup4\n      0xffffffffffffffffffffffffffffffffffffffff\n      and\n      mul\n      or\n      swap1\n      sstore\n      pop\n        /* \"Assignment3/q1.sol\":757:1048  function enter() payable public {... */\n      jump\t// out\n        /* \"Assignment3/q1.sol\":236:268  address payable[] public players */\n    tag_29:\n      0x01\n      dup2\n      dup2\n      sload\n      dup2\n      lt\n      tag_77\n      jumpi\n      0x00\n      dup1\n      revert\n    tag_77:\n      swap1\n      0x00\n      mstore\n      keccak256(0x00, 0x20)\n      add\n      0x00\n      swap2\n      pop\n      sload\n      swap1\n      0x0100\n      exp\n      swap1\n      div\n      0xffffffffffffffffffffffffffffffffffffffff\n      and\n      dup2\n      jump\t// out\n        /* \"Assignment3/q1.sol\":1116:1265  function random() view private returns (uint) {... */\n    tag_40:\n        /* \"Assignment3/q1.sol\":1156:1160  uint */\n      0x00\n        /* \"Assignment3/q1.sol\":1212:1228  block.difficulty */\n      prevrandao\n        /* \"Assignment3/q1.sol\":1230:1245  block.timestamp */\n      timestamp\n        /* \"Assignment3/q1.sol\":1247:1254  players */\n      0x01\n        /* \"Assignment3/q1.sol\":1195:1255  abi.encodePacked(block.difficulty, block.timestamp, players) */\n      add(0x20, mload(0x40))\n      tag_80\n      swap4\n      swap3\n      swap2\n      swap1\n      tag_81\n      jump\t// in\n    tag_80:\n      mload(0x40)\n      0x20\n      dup2\n      dup4\n      sub\n      sub\n      dup2\n      mstore\n      swap1\n      0x40\n      mstore\n        /* \"Assignment3/q1.sol\":1185:1256  keccak256(abi.encodePacked(block.difficulty, block.timestamp, players)) */\n      dup1\n      mload\n      swap1\n      0x20\n      add\n      keccak256\n        /* \"Assignment3/q1.sol\":1180:1257  uint(keccak256(abi.encodePacked(block.difficulty, block.timestamp, players))) */\n      0x00\n      shr\n        /* \"Assignment3/q1.sol\":1173:1257  return uint(keccak256(abi.encodePacked(block.difficulty, block.timestamp, players))) */\n      swap1\n      pop\n        /* \"Assignment3/q1.sol\":1116:1265  function random() view private returns (uint) {... */\n      swap1\n      jump\t// out\n        /* \"Assignment3/q1.sol\":482:704  function alreadyEntered() view private returns (bool) {... */\n    tag_69:\n        /* \"Assignment3/q1.sol\":530:534  bool */\n      0x00\n        /* \"Assignment3/q1.sol\":552:558  uint i */\n      dup1\n        /* \"Assignment3/q1.sol\":561:562  0 */\n      0x00\n        /* \"Assignment3/q1.sol\":552:562  uint i = 0 */\n      swap1\n      pop\n        /* \"Assignment3/q1.sol\":547:674  for (uint i = 0; i < players.length; i++) {... */\n    tag_83:\n        /* \"Assignment3/q1.sol\":568:575  players */\n      0x01\n        /* \"Assignment3/q1.sol\":568:582  players.length */\n      dup1\n      sload\n      swap1\n      pop\n        /* \"Assignment3/q1.sol\":564:565  i */\n      dup2\n        /* \"Assignment3/q1.sol\":564:582  i < players.length */\n      lt\n        /* \"Assignment3/q1.sol\":547:674  for (uint i = 0; i < players.length; i++) {... */\n      iszero\n      tag_84\n      jumpi\n        /* \"Assignment3/q1.sol\":622:632  msg.sender */\n      caller\n        /* \"Assignment3/q1.sol\":608:632  players[i] == msg.sender */\n      0xffffffffffffffffffffffffffffffffffffffff\n      and\n        /* \"Assignment3/q1.sol\":608:615  players */\n      0x01\n        /* \"Assignment3/q1.sol\":616:617  i */\n      dup3\n        /* \"Assignment3/q1.sol\":608:618  players[i] */\n      dup2\n      sload\n      dup2\n      lt\n      tag_86\n      jumpi\n      tag_87\n      tag_45\n      jump\t// in\n    tag_87:\n    tag_86:\n      swap1\n      0x00\n      mstore\n      keccak256(0x00, 0x20)\n      add\n      0x00\n      swap1\n      sload\n      swap1\n      0x0100\n      exp\n      swap1\n      div\n      0xffffffffffffffffffffffffffffffffffffffff\n      and\n        /* \"Assignment3/q1.sol\":608:632  players[i] == msg.sender */\n      0xffffffffffffffffffffffffffffffffffffffff\n      and\n      sub\n        /* \"Assignment3/q1.sol\":604:662  if (players[i] == msg.sender)... */\n      tag_89\n      jumpi\n        /* \"Assignment3/q1.sol\":658:662  true */\n      0x01\n        /* \"Assignment3/q1.sol\":651:662  return true */\n      swap2\n      pop\n      pop\n      jump(tag_82)\n        /* \"Assignment3/q1.sol\":604:662  if (players[i] == msg.sender)... */\n    tag_89:\n        /* \"Assignment3/q1.sol\":584:587  i++ */\n      dup1\n      dup1\n      0x01\n      add\n      swap2\n      pop\n      pop\n        /* \"Assignment3/q1.sol\":547:674  for (uint i = 0; i < players.length; i++) {... */\n      jump(tag_83)\n    tag_84:\n      pop\n        /* \"Assignment3/q1.sol\":691:696  false */\n      0x00\n        /* \"Assignment3/q1.sol\":684:696  return false */\n      swap1\n      pop\n        /* \"Assignment3/q1.sol\":482:704  function alreadyEntered() view private returns (bool) {... */\n    tag_82:\n      swap1\n      jump\t// out\n    tag_60:\n      dup3\n      dup1\n      sload\n      dup3\n      dup3\n      sstore\n      swap1\n      0x00\n      mstore\n      keccak256(0x00, 0x20)\n      swap1\n      dup2\n      add\n      swap3\n      dup3\n      iszero\n      tag_90\n      jumpi\n      swap2\n      0x20\n      mul\n      dup3\n      add\n    tag_91:\n      dup3\n      dup2\n      gt\n      iszero\n      tag_92\n      jumpi\n      dup3\n      mload\n      dup3\n      exp(0x0100, 0x00)\n      dup2\n      sload\n      dup2\n      0xffffffffffffffffffffffffffffffffffffffff\n      mul\n      not\n      and\n      swap1\n      dup4\n      0xffffffffffffffffffffffffffffffffffffffff\n      and\n      mul\n      or\n      swap1\n      sstore\n      pop\n      swap2\n      0x20\n      add\n      swap2\n      swap1\n      0x01\n      add\n      swap1\n      jump(tag_91)\n    tag_92:\n    tag_90:\n      pop\n      swap1\n      pop\n      tag_93\n      swap2\n      swap1\n      tag_94\n      jump\t// in\n    tag_93:\n      pop\n      swap1\n      jump\t// out\n    tag_94:\n    tag_95:\n      dup1\n      dup3\n      gt\n      iszero\n      tag_96\n      jumpi\n      0x00\n      dup2\n      0x00\n      swap1\n      sstore\n      pop\n      0x01\n      add\n      jump(tag_95)\n    tag_96:\n      pop\n      swap1\n      jump\t// out\n        /* \"#utility.yul\":7:133   */\n    tag_97:\n        /* \"#utility.yul\":44:51   */\n      0x00\n        /* \"#utility.yul\":84:126   */\n      0xffffffffffffffffffffffffffffffffffffffff\n        /* \"#utility.yul\":77:82   */\n      dup3\n        /* \"#utility.yul\":73:127   */\n      and\n        /* \"#utility.yul\":62:127   */\n      swap1\n      pop\n        /* \"#utility.yul\":7:133   */\n      swap2\n      swap1\n      pop\n      jump\t// out\n        /* \"#utility.yul\":139:235   */\n    tag_98:\n        /* \"#utility.yul\":176:183   */\n      0x00\n        /* \"#utility.yul\":205:229   */\n      tag_148\n        /* \"#utility.yul\":223:228   */\n      dup3\n        /* \"#utility.yul\":205:229   */\n      tag_97\n      jump\t// in\n    tag_148:\n        /* \"#utility.yul\":194:229   */\n      swap1\n      pop\n        /* \"#utility.yul\":139:235   */\n      swap2\n      swap1\n      pop\n      jump\t// out\n        /* \"#utility.yul\":241:359   */\n    tag_99:\n        /* \"#utility.yul\":328:352   */\n      tag_150\n        /* \"#utility.yul\":346:351   */\n      dup2\n        /* \"#utility.yul\":328:352   */\n      tag_98\n      jump\t// in\n    tag_150:\n        /* \"#utility.yul\":323:326   */\n      dup3\n        /* \"#utility.yul\":316:353   */\n      mstore\n        /* \"#utility.yul\":241:359   */\n      pop\n      pop\n      jump\t// out\n        /* \"#utility.yul\":365:587   */\n    tag_14:\n        /* \"#utility.yul\":458:462   */\n      0x00\n        /* \"#utility.yul\":496:498   */\n      0x20\n        /* \"#utility.yul\":485:494   */\n      dup3\n        /* \"#utility.yul\":481:499   */\n      add\n        /* \"#utility.yul\":473:499   */\n      swap1\n      pop\n        /* \"#utility.yul\":509:580   */\n      tag_152\n        /* \"#utility.yul\":577:578   */\n      0x00\n        /* \"#utility.yul\":566:575   */\n      dup4\n        /* \"#utility.yul\":562:579   */\n      add\n        /* \"#utility.yul\":553:559   */\n      dup5\n        /* \"#utility.yul\":509:580   */\n      tag_99\n      jump\t// in\n    tag_152:\n        /* \"#utility.yul\":365:587   */\n      swap3\n      swap2\n      pop\n      pop\n      jump\t// out\n        /* \"#utility.yul\":593:715   */\n    tag_100:\n        /* \"#utility.yul\":668:674   */\n      0x00\n        /* \"#utility.yul\":702:707   */\n      dup2\n        /* \"#utility.yul\":696:708   */\n      mload\n        /* \"#utility.yul\":686:708   */\n      swap1\n      pop\n        /* \"#utility.yul\":593:715   */\n      swap2\n      swap1\n      pop\n      jump\t// out\n        /* \"#utility.yul\":721:913   */\n    tag_101:\n        /* \"#utility.yul\":828:839   */\n      0x00\n        /* \"#utility.yul\":862:868   */\n      dup3\n        /* \"#utility.yul\":857:860   */\n      dup3\n        /* \"#utility.yul\":850:869   */\n      mstore\n        /* \"#utility.yul\":902:906   */\n      0x20\n        /* \"#utility.yul\":897:900   */\n      dup3\n        /* \"#utility.yul\":893:907   */\n      add\n        /* \"#utility.yul\":878:907   */\n      swap1\n      pop\n        /* \"#utility.yul\":721:913   */\n      swap3\n      swap2\n      pop\n      pop\n      jump\t// out\n        /* \"#utility.yul\":919:1059   */\n    tag_102:\n        /* \"#utility.yul\":994:998   */\n      0x00\n        /* \"#utility.yul\":1017:1020   */\n      dup2\n        /* \"#utility.yul\":1009:1020   */\n      swap1\n      pop\n        /* \"#utility.yul\":1047:1051   */\n      0x20\n        /* \"#utility.yul\":1042:1045   */\n      dup3\n        /* \"#utility.yul\":1038:1052   */\n      add\n        /* \"#utility.yul\":1030:1052   */\n      swap1\n      pop\n        /* \"#utility.yul\":919:1059   */\n      swap2\n      swap1\n      pop\n      jump\t// out\n        /* \"#utility.yul\":1065:1169   */\n    tag_103:\n        /* \"#utility.yul\":1110:1117   */\n      0x00\n        /* \"#utility.yul\":1139:1163   */\n      tag_157\n        /* \"#utility.yul\":1157:1162   */\n      dup3\n        /* \"#utility.yul\":1139:1163   */\n      tag_97\n      jump\t// in\n    tag_157:\n        /* \"#utility.yul\":1128:1163   */\n      swap1\n      pop\n        /* \"#utility.yul\":1065:1169   */\n      swap2\n      swap1\n      pop\n      jump\t// out\n        /* \"#utility.yul\":1175:1307   */\n    tag_104:\n        /* \"#utility.yul\":1268:1300   */\n      tag_159\n        /* \"#utility.yul\":1294:1299   */\n      dup2\n        /* \"#utility.yul\":1268:1300   */\n      tag_103\n      jump\t// in\n    tag_159:\n        /* \"#utility.yul\":1263:1266   */\n      dup3\n        /* \"#utility.yul\":1256:1301   */\n      mstore\n        /* \"#utility.yul\":1175:1307   */\n      pop\n      pop\n      jump\t// out\n        /* \"#utility.yul\":1313:1524   */\n    tag_105:\n        /* \"#utility.yul\":1398:1408   */\n      0x00\n        /* \"#utility.yul\":1419:1481   */\n      tag_161\n        /* \"#utility.yul\":1477:1480   */\n      dup4\n        /* \"#utility.yul\":1469:1475   */\n      dup4\n        /* \"#utility.yul\":1419:1481   */\n      tag_104\n      jump\t// in\n    tag_161:\n        /* \"#utility.yul\":1513:1517   */\n      0x20\n        /* \"#utility.yul\":1508:1511   */\n      dup4\n        /* \"#utility.yul\":1504:1518   */\n      add\n        /* \"#utility.yul\":1490:1518   */\n      swap1\n      pop\n        /* \"#utility.yul\":1313:1524   */\n      swap3\n      swap2\n      pop\n      pop\n      jump\t// out\n        /* \"#utility.yul\":1530:1651   */\n    tag_106:\n        /* \"#utility.yul\":1608:1612   */\n      0x00\n        /* \"#utility.yul\":1640:1644   */\n      0x20\n        /* \"#utility.yul\":1635:1638   */\n      dup3\n        /* \"#utility.yul\":1631:1645   */\n      add\n        /* \"#utility.yul\":1623:1645   */\n      swap1\n      pop\n        /* \"#utility.yul\":1530:1651   */\n      swap2\n      swap1\n      pop\n      jump\t// out\n        /* \"#utility.yul\":1703:2499   */\n    tag_107:\n        /* \"#utility.yul\":1838:1841   */\n      0x00\n        /* \"#utility.yul\":1867:1929   */\n      tag_164\n        /* \"#utility.yul\":1923:1928   */\n      dup3\n        /* \"#utility.yul\":1867:1929   */\n      tag_100\n      jump\t// in\n    tag_164:\n        /* \"#utility.yul\":1945:2039   */\n      tag_165\n        /* \"#utility.yul\":2032:2038   */\n      dup2\n        /* \"#utility.yul\":2027:2030   */\n      dup6\n        /* \"#utility.yul\":1945:2039   */\n      tag_101\n      jump\t// in\n    tag_165:\n        /* \"#utility.yul\":1938:2039   */\n      swap4\n      pop\n        /* \"#utility.yul\":2063:2127   */\n      tag_166\n        /* \"#utility.yul\":2121:2126   */\n      dup4\n        /* \"#utility.yul\":2063:2127   */\n      tag_102\n      jump\t// in\n    tag_166:\n        /* \"#utility.yul\":2150:2157   */\n      dup1\n        /* \"#utility.yul\":2181:2182   */\n      0x00\n        /* \"#utility.yul\":2166:2474   */\n    tag_167:\n        /* \"#utility.yul\":2191:2197   */\n      dup4\n        /* \"#utility.yul\":2188:2189   */\n      dup2\n        /* \"#utility.yul\":2185:2198   */\n      lt\n        /* \"#utility.yul\":2166:2474   */\n      iszero\n      tag_169\n      jumpi\n        /* \"#utility.yul\":2267:2273   */\n      dup2\n        /* \"#utility.yul\":2261:2274   */\n      mload\n        /* \"#utility.yul\":2294:2373   */\n      tag_170\n        /* \"#utility.yul\":2369:2372   */\n      dup9\n        /* \"#utility.yul\":2354:2367   */\n      dup3\n        /* \"#utility.yul\":2294:2373   */\n      tag_105\n      jump\t// in\n    tag_170:\n        /* \"#utility.yul\":2287:2373   */\n      swap8\n      pop\n        /* \"#utility.yul\":2396:2464   */\n      tag_171\n        /* \"#utility.yul\":2457:2463   */\n      dup4\n        /* \"#utility.yul\":2396:2464   */\n      tag_106\n      jump\t// in\n    tag_171:\n        /* \"#utility.yul\":2386:2464   */\n      swap3\n      pop\n        /* \"#utility.yul\":2226:2474   */\n      pop\n        /* \"#utility.yul\":2213:2214   */\n      0x01\n        /* \"#utility.yul\":2210:2211   */\n      dup2\n        /* \"#utility.yul\":2206:2215   */\n      add\n        /* \"#utility.yul\":2201:2215   */\n      swap1\n      pop\n        /* \"#utility.yul\":2166:2474   */\n      jump(tag_167)\n    tag_169:\n        /* \"#utility.yul\":2170:2184   */\n      pop\n        /* \"#utility.yul\":2490:2493   */\n      dup6\n        /* \"#utility.yul\":2483:2493   */\n      swap4\n      pop\n        /* \"#utility.yul\":1843:2499   */\n      pop\n      pop\n      pop\n        /* \"#utility.yul\":1703:2499   */\n      swap3\n      swap2\n      pop\n      pop\n      jump\t// out\n        /* \"#utility.yul\":2505:2910   */\n    tag_22:\n        /* \"#utility.yul\":2664:2668   */\n      0x00\n        /* \"#utility.yul\":2702:2704   */\n      0x20\n        /* \"#utility.yul\":2691:2700   */\n      dup3\n        /* \"#utility.yul\":2687:2705   */\n      add\n        /* \"#utility.yul\":2679:2705   */\n      swap1\n      pop\n        /* \"#utility.yul\":2751:2760   */\n      dup2\n        /* \"#utility.yul\":2745:2749   */\n      dup2\n        /* \"#utility.yul\":2741:2761   */\n      sub\n        /* \"#utility.yul\":2737:2738   */\n      0x00\n        /* \"#utility.yul\":2726:2735   */\n      dup4\n        /* \"#utility.yul\":2722:2739   */\n      add\n        /* \"#utility.yul\":2715:2762   */\n      mstore\n        /* \"#utility.yul\":2779:2903   */\n      tag_173\n        /* \"#utility.yul\":2898:2902   */\n      dup2\n        /* \"#utility.yul\":2889:2895   */\n      dup5\n        /* \"#utility.yul\":2779:2903   */\n      tag_107\n      jump\t// in\n    tag_173:\n        /* \"#utility.yul\":2771:2903   */\n      swap1\n      pop\n        /* \"#utility.yul\":2505:2910   */\n      swap3\n      swap2\n      pop\n      pop\n      jump\t// out\n        /* \"#utility.yul\":2997:3114   */\n    tag_109:\n        /* \"#utility.yul\":3106:3107   */\n      0x00\n        /* \"#utility.yul\":3103:3104   */\n      dup1\n        /* \"#utility.yul\":3096:3108   */\n      revert\n        /* \"#utility.yul\":3243:3320   */\n    tag_111:\n        /* \"#utility.yul\":3280:3287   */\n      0x00\n        /* \"#utility.yul\":3309:3314   */\n      dup2\n        /* \"#utility.yul\":3298:3314   */\n      swap1\n      pop\n        /* \"#utility.yul\":3243:3320   */\n      swap2\n      swap1\n      pop\n      jump\t// out\n        /* \"#utility.yul\":3326:3448   */\n    tag_112:\n        /* \"#utility.yul\":3399:3423   */\n      tag_179\n        /* \"#utility.yul\":3417:3422   */\n      dup2\n        /* \"#utility.yul\":3399:3423   */\n      tag_111\n      jump\t// in\n    tag_179:\n        /* \"#utility.yul\":3392:3397   */\n      dup2\n        /* \"#utility.yul\":3389:3424   */\n      eq\n        /* \"#utility.yul\":3379:3442   */\n      tag_180\n      jumpi\n        /* \"#utility.yul\":3438:3439   */\n      0x00\n        /* \"#utility.yul\":3435:3436   */\n      dup1\n        /* \"#utility.yul\":3428:3440   */\n      revert\n        /* \"#utility.yul\":3379:3442   */\n    tag_180:\n        /* \"#utility.yul\":3326:3448   */\n      pop\n      jump\t// out\n        /* \"#utility.yul\":3454:3593   */\n    tag_113:\n        /* \"#utility.yul\":3500:3505   */\n      0x00\n        /* \"#utility.yul\":3538:3544   */\n      dup2\n        /* \"#utility.yul\":3525:3545   */\n      calldataload\n        /* \"#utility.yul\":3516:3545   */\n      swap1\n      pop\n        /* \"#utility.yul\":3554:3587   */\n      tag_182\n        /* \"#utility.yul\":3581:3586   */\n      dup2\n        /* \"#utility.yul\":3554:3587   */\n      tag_112\n      jump\t// in\n    tag_182:\n        /* \"#utility.yul\":3454:3593   */\n      swap3\n      swap2\n      pop\n      pop\n      jump\t// out\n        /* \"#utility.yul\":3599:3928   */\n    tag_28:\n        /* \"#utility.yul\":3658:3664   */\n      0x00\n        /* \"#utility.yul\":3707:3709   */\n      0x20\n        /* \"#utility.yul\":3695:3704   */\n      dup3\n        /* \"#utility.yul\":3686:3693   */\n      dup5\n        /* \"#utility.yul\":3682:3705   */\n      sub\n        /* \"#utility.yul\":3678:3710   */\n      slt\n        /* \"#utility.yul\":3675:3794   */\n      iszero\n      tag_184\n      jumpi\n        /* \"#utility.yul\":3713:3792   */\n      tag_185\n      tag_109\n      jump\t// in\n    tag_185:\n        /* \"#utility.yul\":3675:3794   */\n    tag_184:\n        /* \"#utility.yul\":3833:3834   */\n      0x00\n        /* \"#utility.yul\":3858:3911   */\n      tag_186\n        /* \"#utility.yul\":3903:3910   */\n      dup5\n        /* \"#utility.yul\":3894:3900   */\n      dup3\n        /* \"#utility.yul\":3883:3892   */\n      dup6\n        /* \"#utility.yul\":3879:3901   */\n      add\n        /* \"#utility.yul\":3858:3911   */\n      tag_113\n      jump\t// in\n    tag_186:\n        /* \"#utility.yul\":3848:3911   */\n      swap2\n      pop\n        /* \"#utility.yul\":3804:3921   */\n      pop\n        /* \"#utility.yul\":3599:3928   */\n      swap3\n      swap2\n      pop\n      pop\n      jump\t// out\n        /* \"#utility.yul\":3934:4076   */\n    tag_114:\n        /* \"#utility.yul\":4037:4069   */\n      tag_188\n        /* \"#utility.yul\":4063:4068   */\n      dup2\n        /* \"#utility.yul\":4037:4069   */\n      tag_103\n      jump\t// in\n    tag_188:\n        /* \"#utility.yul\":4032:4035   */\n      dup3\n        /* \"#utility.yul\":4025:4070   */\n      mstore\n        /* \"#utility.yul\":3934:4076   */\n      pop\n      pop\n      jump\t// out\n        /* \"#utility.yul\":4082:4336   */\n    tag_31:\n        /* \"#utility.yul\":4191:4195   */\n      0x00\n        /* \"#utility.yul\":4229:4231   */\n      0x20\n        /* \"#utility.yul\":4218:4227   */\n      dup3\n        /* \"#utility.yul\":4214:4232   */\n      add\n        /* \"#utility.yul\":4206:4232   */\n      swap1\n      pop\n        /* \"#utility.yul\":4242:4329   */\n      tag_190\n        /* \"#utility.yul\":4326:4327   */\n      0x00\n        /* \"#utility.yul\":4315:4324   */\n      dup4\n        /* \"#utility.yul\":4311:4328   */\n      add\n        /* \"#utility.yul\":4302:4308   */\n      dup5\n        /* \"#utility.yul\":4242:4329   */\n      tag_114\n      jump\t// in\n    tag_190:\n        /* \"#utility.yul\":4082:4336   */\n      swap3\n      swap2\n      pop\n      pop\n      jump\t// out\n        /* \"#utility.yul\":4342:4511   */\n    tag_115:\n        /* \"#utility.yul\":4426:4437   */\n      0x00\n        /* \"#utility.yul\":4460:4466   */\n      dup3\n        /* \"#utility.yul\":4455:4458   */\n      dup3\n        /* \"#utility.yul\":4448:4467   */\n      mstore\n        /* \"#utility.yul\":4500:4504   */\n      0x20\n        /* \"#utility.yul\":4495:4498   */\n      dup3\n        /* \"#utility.yul\":4491:4505   */\n      add\n        /* \"#utility.yul\":4476:4505   */\n      swap1\n      pop\n        /* \"#utility.yul\":4342:4511   */\n      swap3\n      swap2\n      pop\n      pop\n      jump\t// out\n        /* \"#utility.yul\":4517:4699   */\n    tag_116:\n        /* \"#utility.yul\":4657:4691   */\n      0x4f6e6c79206d616e616765722063616e207069636b207468652077696e6e6572\n        /* \"#utility.yul\":4653:4654   */\n      0x00\n        /* \"#utility.yul\":4645:4651   */\n      dup3\n        /* \"#utility.yul\":4641:4655   */\n      add\n        /* \"#utility.yul\":4634:4692   */\n      mstore\n        /* \"#utility.yul\":4517:4699   */\n      pop\n      jump\t// out\n        /* \"#utility.yul\":4705:5071   */\n    tag_117:\n        /* \"#utility.yul\":4847:4850   */\n      0x00\n        /* \"#utility.yul\":4868:4935   */\n      tag_194\n        /* \"#utility.yul\":4932:4934   */\n      0x20\n        /* \"#utility.yul\":4927:4930   */\n      dup4\n        /* \"#utility.yul\":4868:4935   */\n      tag_115\n      jump\t// in\n    tag_194:\n        /* \"#utility.yul\":4861:4935   */\n      swap2\n      pop\n        /* \"#utility.yul\":4944:5037   */\n      tag_195\n        /* \"#utility.yul\":5033:5036   */\n      dup3\n        /* \"#utility.yul\":4944:5037   */\n      tag_116\n      jump\t// in\n    tag_195:\n        /* \"#utility.yul\":5062:5064   */\n      0x20\n        /* \"#utility.yul\":5057:5060   */\n      dup3\n        /* \"#utility.yul\":5053:5065   */\n      add\n        /* \"#utility.yul\":5046:5065   */\n      swap1\n      pop\n        /* \"#utility.yul\":4705:5071   */\n      swap2\n      swap1\n      pop\n      jump\t// out\n        /* \"#utility.yul\":5077:5496   */\n    tag_35:\n        /* \"#utility.yul\":5243:5247   */\n      0x00\n        /* \"#utility.yul\":5281:5283   */\n      0x20\n        /* \"#utility.yul\":5270:5279   */\n      dup3\n        /* \"#utility.yul\":5266:5284   */\n      add\n        /* \"#utility.yul\":5258:5284   */\n      swap1\n      pop\n        /* \"#utility.yul\":5330:5339   */\n      dup2\n        /* \"#utility.yul\":5324:5328   */\n      dup2\n        /* \"#utility.yul\":5320:5340   */\n      sub\n        /* \"#utility.yul\":5316:5317   */\n      0x00\n        /* \"#utility.yul\":5305:5314   */\n      dup4\n        /* \"#utility.yul\":5301:5318   */\n      add\n        /* \"#utility.yul\":5294:5341   */\n      mstore\n        /* \"#utility.yul\":5358:5489   */\n      tag_197\n        /* \"#utility.yul\":5484:5488   */\n      dup2\n        /* \"#utility.yul\":5358:5489   */\n      tag_117\n      jump\t// in\n    tag_197:\n        /* \"#utility.yul\":5350:5489   */\n      swap1\n      pop\n        /* \"#utility.yul\":5077:5496   */\n      swap2\n      swap1\n      pop\n      jump\t// out\n        /* \"#utility.yul\":5502:5677   */\n    tag_118:\n        /* \"#utility.yul\":5642:5669   */\n      0x4e6f20706c617965727320696e20746865206c6f747465727900000000000000\n        /* \"#utility.yul\":5638:5639   */\n      0x00\n        /* \"#utility.yul\":5630:5636   */\n      dup3\n        /* \"#utility.yul\":5626:5640   */\n      add\n        /* \"#utility.yul\":5619:5670   */\n      mstore\n        /* \"#utility.yul\":5502:5677   */\n      pop\n      jump\t// out\n        /* \"#utility.yul\":5683:6049   */\n    tag_119:\n        /* \"#utility.yul\":5825:5828   */\n      0x00\n        /* \"#utility.yul\":5846:5913   */\n      tag_200\n        /* \"#utility.yul\":5910:5912   */\n      0x19\n        /* \"#utility.yul\":5905:5908   */\n      dup4\n        /* \"#utility.yul\":5846:5913   */\n      tag_115\n      jump\t// in\n    tag_200:\n        /* \"#utility.yul\":5839:5913   */\n      swap2\n      pop\n        /* \"#utility.yul\":5922:6015   */\n      tag_201\n        /* \"#utility.yul\":6011:6014   */\n      dup3\n        /* \"#utility.yul\":5922:6015   */\n      tag_118\n      jump\t// in\n    tag_201:\n        /* \"#utility.yul\":6040:6042   */\n      0x20\n        /* \"#utility.yul\":6035:6038   */\n      dup3\n        /* \"#utility.yul\":6031:6043   */\n      add\n        /* \"#utility.yul\":6024:6043   */\n      swap1\n      pop\n        /* \"#utility.yul\":5683:6049   */\n      swap2\n      swap1\n      pop\n      jump\t// out\n        /* \"#utility.yul\":6055:6474   */\n    tag_38:\n        /* \"#utility.yul\":6221:6225   */\n      0x00\n        /* \"#utility.yul\":6259:6261   */\n      0x20\n        /* \"#utility.yul\":6248:6257   */\n      dup3\n        /* \"#utility.yul\":6244:6262   */\n      add\n        /* \"#utility.yul\":6236:6262   */\n      swap1\n      pop\n        /* \"#utility.yul\":6308:6317   */\n      dup2\n        /* \"#utility.yul\":6302:6306   */\n      dup2\n        /* \"#utility.yul\":6298:6318   */\n      sub\n        /* \"#utility.yul\":6294:6295   */\n      0x00\n        /* \"#utility.yul\":6283:6292   */\n      dup4\n        /* \"#utility.yul\":6279:6296   */\n      add\n        /* \"#utility.yul\":6272:6319   */\n      mstore\n        /* \"#utility.yul\":6336:6467   */\n      tag_203\n        /* \"#utility.yul\":6462:6466   */\n      dup2\n        /* \"#utility.yul\":6336:6467   */\n      tag_119\n      jump\t// in\n    tag_203:\n        /* \"#utility.yul\":6328:6467   */\n      swap1\n      pop\n        /* \"#utility.yul\":6055:6474   */\n      swap2\n      swap1\n      pop\n      jump\t// out\n        /* \"#utility.yul\":6480:6660   */\n    tag_120:\n        /* \"#utility.yul\":6528:6605   */\n      0x4e487b7100000000000000000000000000000000000000000000000000000000\n        /* \"#utility.yul\":6525:6526   */\n      0x00\n        /* \"#utility.yul\":6518:6606   */\n      mstore\n        /* \"#utility.yul\":6625:6629   */\n      0x12\n        /* \"#utility.yul\":6622:6623   */\n      0x04\n        /* \"#utility.yul\":6615:6630   */\n      mstore\n        /* \"#utility.yul\":6649:6653   */\n      0x24\n        /* \"#utility.yul\":6646:6647   */\n      0x00\n        /* \"#utility.yul\":6639:6654   */\n      revert\n        /* \"#utility.yul\":6666:6842   */\n    tag_42:\n        /* \"#utility.yul\":6698:6699   */\n      0x00\n        /* \"#utility.yul\":6715:6735   */\n      tag_206\n        /* \"#utility.yul\":6733:6734   */\n      dup3\n        /* \"#utility.yul\":6715:6735   */\n      tag_111\n      jump\t// in\n    tag_206:\n        /* \"#utility.yul\":6710:6735   */\n      swap2\n      pop\n        /* \"#utility.yul\":6749:6769   */\n      tag_207\n        /* \"#utility.yul\":6767:6768   */\n      dup4\n        /* \"#utility.yul\":6749:6769   */\n      tag_111\n      jump\t// in\n    tag_207:\n        /* \"#utility.yul\":6744:6769   */\n      swap3\n      pop\n        /* \"#utility.yul\":6788:6789   */\n      dup3\n        /* \"#utility.yul\":6778:6813   */\n      tag_208\n      jumpi\n        /* \"#utility.yul\":6793:6811   */\n      tag_209\n      tag_120\n      jump\t// in\n    tag_209:\n        /* \"#utility.yul\":6778:6813   */\n    tag_208:\n        /* \"#utility.yul\":6834:6835   */\n      dup3\n        /* \"#utility.yul\":6831:6832   */\n      dup3\n        /* \"#utility.yul\":6827:6836   */\n      mod\n        /* \"#utility.yul\":6822:6836   */\n      swap1\n      pop\n        /* \"#utility.yul\":6666:6842   */\n      swap3\n      swap2\n      pop\n      pop\n      jump\t// out\n        /* \"#utility.yul\":6848:7028   */\n    tag_45:\n        /* \"#utility.yul\":6896:6973   */\n      0x4e487b7100000000000000000000000000000000000000000000000000000000\n        /* \"#utility.yul\":6893:6894   */\n      0x00\n        /* \"#utility.yul\":6886:6974   */\n      mstore\n        /* \"#utility.yul\":6993:6997   */\n      0x32\n        /* \"#utility.yul\":6990:6991   */\n      0x04\n        /* \"#utility.yul\":6983:6998   */\n      mstore\n        /* \"#utility.yul\":7017:7021   */\n      0x24\n        /* \"#utility.yul\":7014:7015   */\n      0x00\n        /* \"#utility.yul\":7007:7022   */\n      revert\n        /* \"#utility.yul\":7034:7181   */\n    tag_121:\n        /* \"#utility.yul\":7135:7146   */\n      0x00\n        /* \"#utility.yul\":7172:7175   */\n      dup2\n        /* \"#utility.yul\":7157:7175   */\n      swap1\n      pop\n        /* \"#utility.yul\":7034:7181   */\n      swap3\n      swap2\n      pop\n      pop\n      jump\t// out\n        /* \"#utility.yul\":7187:7301   */\n    tag_122:\n      pop\n      jump\t// out\n        /* \"#utility.yul\":7307:7705   */\n    tag_123:\n        /* \"#utility.yul\":7466:7469   */\n      0x00\n        /* \"#utility.yul\":7487:7570   */\n      tag_214\n        /* \"#utility.yul\":7568:7569   */\n      0x00\n        /* \"#utility.yul\":7563:7566   */\n      dup4\n        /* \"#utility.yul\":7487:7570   */\n      tag_121\n      jump\t// in\n    tag_214:\n        /* \"#utility.yul\":7480:7570   */\n      swap2\n      pop\n        /* \"#utility.yul\":7579:7672   */\n      tag_215\n        /* \"#utility.yul\":7668:7671   */\n      dup3\n        /* \"#utility.yul\":7579:7672   */\n      tag_122\n      jump\t// in\n    tag_215:\n        /* \"#utility.yul\":7697:7698   */\n      0x00\n        /* \"#utility.yul\":7692:7695   */\n      dup3\n        /* \"#utility.yul\":7688:7699   */\n      add\n        /* \"#utility.yul\":7681:7699   */\n      swap1\n      pop\n        /* \"#utility.yul\":7307:7705   */\n      swap2\n      swap1\n      pop\n      jump\t// out\n        /* \"#utility.yul\":7711:8090   */\n    tag_48:\n        /* \"#utility.yul\":7895:7898   */\n      0x00\n        /* \"#utility.yul\":7917:8064   */\n      tag_217\n        /* \"#utility.yul\":8060:8063   */\n      dup3\n        /* \"#utility.yul\":7917:8064   */\n      tag_123\n      jump\t// in\n    tag_217:\n        /* \"#utility.yul\":7910:8064   */\n      swap2\n      pop\n        /* \"#utility.yul\":8081:8084   */\n      dup2\n        /* \"#utility.yul\":8074:8084   */\n      swap1\n      pop\n        /* \"#utility.yul\":7711:8090   */\n      swap2\n      swap1\n      pop\n      jump\t// out\n        /* \"#utility.yul\":8096:8262   */\n    tag_124:\n        /* \"#utility.yul\":8236:8254   */\n      0x5472616e73666572206661696c65642e00000000000000000000000000000000\n        /* \"#utility.yul\":8232:8233   */\n      0x00\n        /* \"#utility.yul\":8224:8230   */\n      dup3\n        /* \"#utility.yul\":8220:8234   */\n      add\n        /* \"#utility.yul\":8213:8255   */\n      mstore\n        /* \"#utility.yul\":8096:8262   */\n      pop\n      jump\t// out\n        /* \"#utility.yul\":8268:8634   */\n    tag_125:\n        /* \"#utility.yul\":8410:8413   */\n      0x00\n        /* \"#utility.yul\":8431:8498   */\n      tag_220\n        /* \"#utility.yul\":8495:8497   */\n      0x10\n        /* \"#utility.yul\":8490:8493   */\n      dup4\n        /* \"#utility.yul\":8431:8498   */\n      tag_115\n      jump\t// in\n    tag_220:\n        /* \"#utility.yul\":8424:8498   */\n      swap2\n      pop\n        /* \"#utility.yul\":8507:8600   */\n      tag_221\n        /* \"#utility.yul\":8596:8599   */\n      dup3\n        /* \"#utility.yul\":8507:8600   */\n      tag_124\n      jump\t// in\n    tag_221:\n        /* \"#utility.yul\":8625:8627   */\n      0x20\n        /* \"#utility.yul\":8620:8623   */\n      dup3\n        /* \"#utility.yul\":8616:8628   */\n      add\n        /* \"#utility.yul\":8609:8628   */\n      swap1\n      pop\n        /* \"#utility.yul\":8268:8634   */\n      swap2\n      swap1\n      pop\n      jump\t// out\n        /* \"#utility.yul\":8640:9059   */\n    tag_54:\n        /* \"#utility.yul\":8806:8810   */\n      0x00\n        /* \"#utility.yul\":8844:8846   */\n      0x20\n        /* \"#utility.yul\":8833:8842   */\n      dup3\n        /* \"#utility.yul\":8829:8847   */\n      add\n        /* \"#utility.yul\":8821:8847   */\n      swap1\n      pop\n        /* \"#utility.yul\":8893:8902   */\n      dup2\n        /* \"#utility.yul\":8887:8891   */\n      dup2\n        /* \"#utility.yul\":8883:8903   */\n      sub\n        /* \"#utility.yul\":8879:8880   */\n      0x00\n        /* \"#utility.yul\":8868:8877   */\n      dup4\n        /* \"#utility.yul\":8864:8881   */\n      add\n        /* \"#utility.yul\":8857:8904   */\n      mstore\n        /* \"#utility.yul\":8921:9052   */\n      tag_223\n        /* \"#utility.yul\":9047:9051   */\n      dup2\n        /* \"#utility.yul\":8921:9052   */\n      tag_125\n      jump\t// in\n    tag_223:\n        /* \"#utility.yul\":8913:9052   */\n      swap1\n      pop\n        /* \"#utility.yul\":8640:9059   */\n      swap2\n      swap1\n      pop\n      jump\t// out\n        /* \"#utility.yul\":9065:9245   */\n    tag_57:\n        /* \"#utility.yul\":9113:9190   */\n      0x4e487b7100000000000000000000000000000000000000000000000000000000\n        /* \"#utility.yul\":9110:9111   */\n      0x00\n        /* \"#utility.yul\":9103:9191   */\n      mstore\n        /* \"#utility.yul\":9210:9214   */\n      0x41\n        /* \"#utility.yul\":9207:9208   */\n      0x04\n        /* \"#utility.yul\":9200:9215   */\n      mstore\n        /* \"#utility.yul\":9234:9238   */\n      0x24\n        /* \"#utility.yul\":9231:9232   */\n      0x00\n        /* \"#utility.yul\":9224:9239   */\n      revert\n        /* \"#utility.yul\":9251:9421   */\n    tag_126:\n        /* \"#utility.yul\":9391:9413   */\n      0x4d616e616765722063616e6e6f7420656e746572000000000000000000000000\n        /* \"#utility.yul\":9387:9388   */\n      0x00\n        /* \"#utility.yul\":9379:9385   */\n      dup3\n        /* \"#utility.yul\":9375:9389   */\n      add\n        /* \"#utility.yul\":9368:9414   */\n      mstore\n        /* \"#utility.yul\":9251:9421   */\n      pop\n      jump\t// out\n        /* \"#utility.yul\":9427:9793   */\n    tag_127:\n        /* \"#utility.yul\":9569:9572   */\n      0x00\n        /* \"#utility.yul\":9590:9657   */\n      tag_227\n        /* \"#utility.yul\":9654:9656   */\n      0x14\n        /* \"#utility.yul\":9649:9652   */\n      dup4\n        /* \"#utility.yul\":9590:9657   */\n      tag_115\n      jump\t// in\n    tag_227:\n        /* \"#utility.yul\":9583:9657   */\n      swap2\n      pop\n        /* \"#utility.yul\":9666:9759   */\n      tag_228\n        /* \"#utility.yul\":9755:9758   */\n      dup3\n        /* \"#utility.yul\":9666:9759   */\n      tag_126\n      jump\t// in\n    tag_228:\n        /* \"#utility.yul\":9784:9786   */\n      0x20\n        /* \"#utility.yul\":9779:9782   */\n      dup3\n        /* \"#utility.yul\":9775:9787   */\n      add\n        /* \"#utility.yul\":9768:9787   */\n      swap1\n      pop\n        /* \"#utility.yul\":9427:9793   */\n      swap2\n      swap1\n      pop\n      jump\t// out\n        /* \"#utility.yul\":9799:10218   */\n    tag_67:\n        /* \"#utility.yul\":9965:9969   */\n      0x00\n        /* \"#utility.yul\":10003:10005   */\n      0x20\n        /* \"#utility.yul\":9992:10001   */\n      dup3\n        /* \"#utility.yul\":9988:10006   */\n      add\n        /* \"#utility.yul\":9980:10006   */\n      swap1\n      pop\n        /* \"#utility.yul\":10052:10061   */\n      dup2\n        /* \"#utility.yul\":10046:10050   */\n      dup2\n        /* \"#utility.yul\":10042:10062   */\n      sub\n        /* \"#utility.yul\":10038:10039   */\n      0x00\n        /* \"#utility.yul\":10027:10036   */\n      dup4\n        /* \"#utility.yul\":10023:10040   */\n      add\n        /* \"#utility.yul\":10016:10063   */\n      mstore\n        /* \"#utility.yul\":10080:10211   */\n      tag_230\n        /* \"#utility.yul\":10206:10210   */\n      dup2\n        /* \"#utility.yul\":10080:10211   */\n      tag_127\n      jump\t// in\n    tag_230:\n        /* \"#utility.yul\":10072:10211   */\n      swap1\n      pop\n        /* \"#utility.yul\":9799:10218   */\n      swap2\n      swap1\n      pop\n      jump\t// out\n        /* \"#utility.yul\":10224:10396   */\n    tag_128:\n        /* \"#utility.yul\":10364:10388   */\n      0x506c6179657220616c726561647920656e746572656400000000000000000000\n        /* \"#utility.yul\":10360:10361   */\n      0x00\n        /* \"#utility.yul\":10352:10358   */\n      dup3\n        /* \"#utility.yul\":10348:10362   */\n      add\n        /* \"#utility.yul\":10341:10389   */\n      mstore\n        /* \"#utility.yul\":10224:10396   */\n      pop\n      jump\t// out\n        /* \"#utility.yul\":10402:10768   */\n    tag_129:\n        /* \"#utility.yul\":10544:10547   */\n      0x00\n        /* \"#utility.yul\":10565:10632   */\n      tag_233\n        /* \"#utility.yul\":10629:10631   */\n      0x16\n        /* \"#utility.yul\":10624:10627   */\n      dup4\n        /* \"#utility.yul\":10565:10632   */\n      tag_115\n      jump\t// in\n    tag_233:\n        /* \"#utility.yul\":10558:10632   */\n      swap2\n      pop\n        /* \"#utility.yul\":10641:10734   */\n      tag_234\n        /* \"#utility.yul\":10730:10733   */\n      dup3\n        /* \"#utility.yul\":10641:10734   */\n      tag_128\n      jump\t// in\n    tag_234:\n        /* \"#utility.yul\":10759:10761   */\n      0x20\n        /* \"#utility.yul\":10754:10757   */\n      dup3\n        /* \"#utility.yul\":10750:10762   */\n      add\n        /* \"#utility.yul\":10743:10762   */\n      swap1\n      pop\n        /* \"#utility.yul\":10402:10768   */\n      swap2\n      swap1\n      pop\n      jump\t// out\n        /* \"#utility.yul\":10774:11193   */\n    tag_72:\n        /* \"#utility.yul\":10940:10944   */\n      0x00\n        /* \"#utility.yul\":10978:10980   */\n      0x20\n        /* \"#utility.yul\":10967:10976   */\n      dup3\n        /* \"#utility.yul\":10963:10981   */\n      add\n        /* \"#utility.yul\":10955:10981   */\n      swap1\n      pop\n        /* \"#utility.yul\":11027:11036   */\n      dup2\n        /* \"#utility.yul\":11021:11025   */\n      dup2\n        /* \"#utility.yul\":11017:11037   */\n      sub\n        /* \"#utility.yul\":11013:11014   */\n      0x00\n        /* \"#utility.yul\":11002:11011   */\n      dup4\n        /* \"#utility.yul\":10998:11015   */\n      add\n        /* \"#utility.yul\":10991:11038   */\n      mstore\n        /* \"#utility.yul\":11055:11186   */\n      tag_236\n        /* \"#utility.yul\":11181:11185   */\n      dup2\n        /* \"#utility.yul\":11055:11186   */\n      tag_129\n      jump\t// in\n    tag_236:\n        /* \"#utility.yul\":11047:11186   */\n      swap1\n      pop\n        /* \"#utility.yul\":10774:11193   */\n      swap2\n      swap1\n      pop\n      jump\t// out\n        /* \"#utility.yul\":11199:11376   */\n    tag_130:\n        /* \"#utility.yul\":11339:11368   */\n      0x4d696e696d756d20616d6f756e74206d75737420626520706169640000000000\n        /* \"#utility.yul\":11335:11336   */\n      0x00\n        /* \"#utility.yul\":11327:11333   */\n      dup3\n        /* \"#utility.yul\":11323:11337   */\n      add\n        /* \"#utility.yul\":11316:11369   */\n      mstore\n        /* \"#utility.yul\":11199:11376   */\n      pop\n      jump\t// out\n        /* \"#utility.yul\":11382:11748   */\n    tag_131:\n        /* \"#utility.yul\":11524:11527   */\n      0x00\n        /* \"#utility.yul\":11545:11612   */\n      tag_239\n        /* \"#utility.yul\":11609:11611   */\n      0x1b\n        /* \"#utility.yul\":11604:11607   */\n      dup4\n        /* \"#utility.yul\":11545:11612   */\n      tag_115\n      jump\t// in\n    tag_239:\n        /* \"#utility.yul\":11538:11612   */\n      swap2\n      pop\n        /* \"#utility.yul\":11621:11714   */\n      tag_240\n        /* \"#utility.yul\":11710:11713   */\n      dup3\n        /* \"#utility.yul\":11621:11714   */\n      tag_130\n      jump\t// in\n    tag_240:\n        /* \"#utility.yul\":11739:11741   */\n      0x20\n        /* \"#utility.yul\":11734:11737   */\n      dup3\n        /* \"#utility.yul\":11730:11742   */\n      add\n        /* \"#utility.yul\":11723:11742   */\n      swap1\n      pop\n        /* \"#utility.yul\":11382:11748   */\n      swap2\n      swap1\n      pop\n      jump\t// out\n        /* \"#utility.yul\":11754:12173   */\n    tag_75:\n        /* \"#utility.yul\":11920:11924   */\n      0x00\n        /* \"#utility.yul\":11958:11960   */\n      0x20\n        /* \"#utility.yul\":11947:11956   */\n      dup3\n        /* \"#utility.yul\":11943:11961   */\n      add\n        /* \"#utility.yul\":11935:11961   */\n      swap1\n      pop\n        /* \"#utility.yul\":12007:12016   */\n      dup2\n        /* \"#utility.yul\":12001:12005   */\n      dup2\n        /* \"#utility.yul\":11997:12017   */\n      sub\n        /* \"#utility.yul\":11993:11994   */\n      0x00\n        /* \"#utility.yul\":11982:11991   */\n      dup4\n        /* \"#utility.yul\":11978:11995   */\n      add\n        /* \"#utility.yul\":11971:12018   */\n      mstore\n        /* \"#utility.yul\":12035:12166   */\n      tag_242\n        /* \"#utility.yul\":12161:12165   */\n      dup2\n        /* \"#utility.yul\":12035:12166   */\n      tag_131\n      jump\t// in\n    tag_242:\n        /* \"#utility.yul\":12027:12166   */\n      swap1\n      pop\n        /* \"#utility.yul\":11754:12173   */\n      swap2\n      swap1\n      pop\n      jump\t// out\n        /* \"#utility.yul\":12179:12258   */\n    tag_132:\n        /* \"#utility.yul\":12218:12225   */\n      0x00\n        /* \"#utility.yul\":12247:12252   */\n      dup2\n        /* \"#utility.yul\":12236:12252   */\n      swap1\n      pop\n        /* \"#utility.yul\":12179:12258   */\n      swap2\n      swap1\n      pop\n      jump\t// out\n        /* \"#utility.yul\":12264:12421   */\n    tag_133:\n        /* \"#utility.yul\":12369:12414   */\n      tag_245\n        /* \"#utility.yul\":12389:12413   */\n      tag_246\n        /* \"#utility.yul\":12407:12412   */\n      dup3\n        /* \"#utility.yul\":12389:12413   */\n      tag_111\n      jump\t// in\n    tag_246:\n        /* \"#utility.yul\":12369:12414   */\n      tag_132\n      jump\t// in\n    tag_245:\n        /* \"#utility.yul\":12364:12367   */\n      dup3\n        /* \"#utility.yul\":12357:12415   */\n      mstore\n        /* \"#utility.yul\":12264:12421   */\n      pop\n      pop\n      jump\t// out\n        /* \"#utility.yul\":12427:12546   */\n    tag_134:\n        /* \"#utility.yul\":12499:12505   */\n      0x00\n        /* \"#utility.yul\":12533:12538   */\n      dup2\n        /* \"#utility.yul\":12527:12539   */\n      sload\n        /* \"#utility.yul\":12517:12539   */\n      swap1\n      pop\n        /* \"#utility.yul\":12427:12546   */\n      swap2\n      swap1\n      pop\n      jump\t// out\n        /* \"#utility.yul\":12552:12723   */\n    tag_135:\n        /* \"#utility.yul\":12677:12688   */\n      0x00\n        /* \"#utility.yul\":12714:12717   */\n      dup2\n        /* \"#utility.yul\":12699:12717   */\n      swap1\n      pop\n        /* \"#utility.yul\":12552:12723   */\n      swap3\n      swap2\n      pop\n      pop\n      jump\t// out\n        /* \"#utility.yul\":12729:12893   */\n    tag_136:\n        /* \"#utility.yul\":12801:12805   */\n      0x00\n        /* \"#utility.yul\":12824:12827   */\n      dup2\n        /* \"#utility.yul\":12816:12827   */\n      swap1\n      pop\n        /* \"#utility.yul\":12847:12850   */\n      dup2\n        /* \"#utility.yul\":12844:12845   */\n      0x00\n        /* \"#utility.yul\":12837:12851   */\n      mstore\n        /* \"#utility.yul\":12881:12885   */\n      0x20\n        /* \"#utility.yul\":12878:12879   */\n      0x00\n        /* \"#utility.yul\":12868:12886   */\n      keccak256\n        /* \"#utility.yul\":12860:12886   */\n      swap1\n      pop\n        /* \"#utility.yul\":12729:12893   */\n      swap2\n      swap1\n      pop\n      jump\t// out\n        /* \"#utility.yul\":12899:13039   */\n    tag_137:\n        /* \"#utility.yul\":13000:13032   */\n      tag_251\n        /* \"#utility.yul\":13026:13031   */\n      dup2\n        /* \"#utility.yul\":13000:13032   */\n      tag_103\n      jump\t// in\n    tag_251:\n        /* \"#utility.yul\":12995:12998   */\n      dup3\n        /* \"#utility.yul\":12988:13033   */\n      mstore\n        /* \"#utility.yul\":12899:13039   */\n      pop\n      pop\n      jump\t// out\n        /* \"#utility.yul\":13045:13272   */\n    tag_138:\n        /* \"#utility.yul\":13138:13148   */\n      0x00\n        /* \"#utility.yul\":13159:13229   */\n      tag_253\n        /* \"#utility.yul\":13225:13228   */\n      dup4\n        /* \"#utility.yul\":13217:13223   */\n      dup4\n        /* \"#utility.yul\":13159:13229   */\n      tag_137\n      jump\t// in\n    tag_253:\n        /* \"#utility.yul\":13261:13265   */\n      0x20\n        /* \"#utility.yul\":13256:13259   */\n      dup4\n        /* \"#utility.yul\":13252:13266   */\n      add\n        /* \"#utility.yul\":13238:13266   */\n      swap1\n      pop\n        /* \"#utility.yul\":13045:13272   */\n      swap3\n      swap2\n      pop\n      pop\n      jump\t// out\n        /* \"#utility.yul\":13278:13380   */\n    tag_139:\n        /* \"#utility.yul\":13320:13328   */\n      0x00\n        /* \"#utility.yul\":13367:13372   */\n      dup2\n        /* \"#utility.yul\":13364:13365   */\n      0x00\n        /* \"#utility.yul\":13360:13373   */\n      shr\n        /* \"#utility.yul\":13339:13373   */\n      swap1\n      pop\n        /* \"#utility.yul\":13278:13380   */\n      swap2\n      swap1\n      pop\n      jump\t// out\n        /* \"#utility.yul\":13386:13533   */\n    tag_140:\n        /* \"#utility.yul\":13444:13451   */\n      0x00\n        /* \"#utility.yul\":13484:13526   */\n      0xffffffffffffffffffffffffffffffffffffffff\n        /* \"#utility.yul\":13477:13482   */\n      dup3\n        /* \"#utility.yul\":13473:13527   */\n      and\n        /* \"#utility.yul\":13462:13527   */\n      swap1\n      pop\n        /* \"#utility.yul\":13386:13533   */\n      swap2\n      swap1\n      pop\n      jump\t// out\n        /* \"#utility.yul\":13539:13721   */\n    tag_141:\n        /* \"#utility.yul\":13616:13621   */\n      0x00\n        /* \"#utility.yul\":13641:13715   */\n      tag_257\n        /* \"#utility.yul\":13680:13714   */\n      tag_258\n        /* \"#utility.yul\":13703:13713   */\n      dup4\n        /* \"#utility.yul\":13680:13714   */\n      tag_139\n      jump\t// in\n    tag_258:\n        /* \"#utility.yul\":13641:13715   */\n      tag_140\n      jump\t// in\n    tag_257:\n        /* \"#utility.yul\":13632:13715   */\n      swap1\n      pop\n        /* \"#utility.yul\":13539:13721   */\n      swap2\n      swap1\n      pop\n      jump\t// out\n        /* \"#utility.yul\":13727:13887   */\n    tag_142:\n        /* \"#utility.yul\":13790:13795   */\n      0x00\n        /* \"#utility.yul\":13815:13880   */\n      tag_260\n        /* \"#utility.yul\":13874:13878   */\n      dup3\n        /* \"#utility.yul\":13868:13879   */\n      sload\n        /* \"#utility.yul\":13815:13880   */\n      tag_141\n      jump\t// in\n    tag_260:\n        /* \"#utility.yul\":13806:13880   */\n      swap1\n      pop\n        /* \"#utility.yul\":13727:13887   */\n      swap2\n      swap1\n      pop\n      jump\t// out\n        /* \"#utility.yul\":13893:14011   */\n    tag_143:\n        /* \"#utility.yul\":13968:13972   */\n      0x00\n        /* \"#utility.yul\":14000:14004   */\n      0x01\n        /* \"#utility.yul\":13995:13998   */\n      dup3\n        /* \"#utility.yul\":13991:14005   */\n      add\n        /* \"#utility.yul\":13983:14005   */\n      swap1\n      pop\n        /* \"#utility.yul\":13893:14011   */\n      swap2\n      swap1\n      pop\n      jump\t// out\n        /* \"#utility.yul\":14063:14930   */\n    tag_144:\n        /* \"#utility.yul\":14213:14216   */\n      0x00\n        /* \"#utility.yul\":14242:14301   */\n      tag_263\n        /* \"#utility.yul\":14295:14300   */\n      dup3\n        /* \"#utility.yul\":14242:14301   */\n      tag_134\n      jump\t// in\n    tag_263:\n        /* \"#utility.yul\":14317:14429   */\n      tag_264\n        /* \"#utility.yul\":14422:14428   */\n      dup2\n        /* \"#utility.yul\":14417:14420   */\n      dup6\n        /* \"#utility.yul\":14317:14429   */\n      tag_135\n      jump\t// in\n    tag_264:\n        /* \"#utility.yul\":14310:14429   */\n      swap4\n      pop\n        /* \"#utility.yul\":14453:14514   */\n      tag_265\n        /* \"#utility.yul\":14508:14513   */\n      dup4\n        /* \"#utility.yul\":14453:14514   */\n      tag_136\n      jump\t// in\n    tag_265:\n        /* \"#utility.yul\":14537:14544   */\n      dup1\n        /* \"#utility.yul\":14568:14569   */\n      0x00\n        /* \"#utility.yul\":14553:14905   */\n    tag_266:\n        /* \"#utility.yul\":14578:14584   */\n      dup4\n        /* \"#utility.yul\":14575:14576   */\n      dup2\n        /* \"#utility.yul\":14572:14585   */\n      lt\n        /* \"#utility.yul\":14553:14905   */\n      iszero\n      tag_268\n      jumpi\n        /* \"#utility.yul\":14648:14700   */\n      tag_269\n        /* \"#utility.yul\":14693:14699   */\n      dup3\n        /* \"#utility.yul\":14648:14700   */\n      tag_142\n      jump\t// in\n    tag_269:\n        /* \"#utility.yul\":14720:14807   */\n      tag_270\n        /* \"#utility.yul\":14803:14806   */\n      dup9\n        /* \"#utility.yul\":14788:14801   */\n      dup3\n        /* \"#utility.yul\":14720:14807   */\n      tag_138\n      jump\t// in\n    tag_270:\n        /* \"#utility.yul\":14713:14807   */\n      swap8\n      pop\n        /* \"#utility.yul\":14830:14895   */\n      tag_271\n        /* \"#utility.yul\":14888:14894   */\n      dup4\n        /* \"#utility.yul\":14830:14895   */\n      tag_143\n      jump\t// in\n    tag_271:\n        /* \"#utility.yul\":14820:14895   */\n      swap3\n      pop\n        /* \"#utility.yul\":14613:14905   */\n      pop\n        /* \"#utility.yul\":14600:14601   */\n      0x01\n        /* \"#utility.yul\":14597:14598   */\n      dup2\n        /* \"#utility.yul\":14593:14602   */\n      add\n        /* \"#utility.yul\":14588:14602   */\n      swap1\n      pop\n        /* \"#utility.yul\":14553:14905   */\n      jump(tag_266)\n    tag_268:\n        /* \"#utility.yul\":14557:14571   */\n      pop\n        /* \"#utility.yul\":14921:14924   */\n      dup6\n        /* \"#utility.yul\":14914:14924   */\n      swap4\n      pop\n        /* \"#utility.yul\":14218:14930   */\n      pop\n      pop\n      pop\n        /* \"#utility.yul\":14063:14930   */\n      swap3\n      swap2\n      pop\n      pop\n      jump\t// out\n        /* \"#utility.yul\":14936:15579   */\n    tag_81:\n        /* \"#utility.yul\":15167:15170   */\n      0x00\n        /* \"#utility.yul\":15182:15257   */\n      tag_273\n        /* \"#utility.yul\":15253:15256   */\n      dup3\n        /* \"#utility.yul\":15244:15250   */\n      dup7\n        /* \"#utility.yul\":15182:15257   */\n      tag_133\n      jump\t// in\n    tag_273:\n        /* \"#utility.yul\":15282:15284   */\n      0x20\n        /* \"#utility.yul\":15277:15280   */\n      dup3\n        /* \"#utility.yul\":15273:15285   */\n      add\n        /* \"#utility.yul\":15266:15285   */\n      swap2\n      pop\n        /* \"#utility.yul\":15295:15370   */\n      tag_274\n        /* \"#utility.yul\":15366:15369   */\n      dup3\n        /* \"#utility.yul\":15357:15363   */\n      dup6\n        /* \"#utility.yul\":15295:15370   */\n      tag_133\n      jump\t// in\n    tag_274:\n        /* \"#utility.yul\":15395:15397   */\n      0x20\n        /* \"#utility.yul\":15390:15393   */\n      dup3\n        /* \"#utility.yul\":15386:15398   */\n      add\n        /* \"#utility.yul\":15379:15398   */\n      swap2\n      pop\n        /* \"#utility.yul\":15415:15553   */\n      tag_275\n        /* \"#utility.yul\":15549:15552   */\n      dup3\n        /* \"#utility.yul\":15540:15546   */\n      dup5\n        /* \"#utility.yul\":15415:15553   */\n      tag_144\n      jump\t// in\n    tag_275:\n        /* \"#utility.yul\":15408:15553   */\n      swap2\n      pop\n        /* \"#utility.yul\":15570:15573   */\n      dup2\n        /* \"#utility.yul\":15563:15573   */\n      swap1\n      pop\n        /* \"#utility.yul\":14936:15579   */\n      swap5\n      swap4\n      pop\n      pop\n      pop\n      pop\n      jump\t// out\n\n    auxdata: 0xa2646970667358221220469dea9f1c9c2ef0148f6fb6c7f290124608be3d03c70f828a3249965e18ec0b64736f6c634300081a0033\n}\n",
				"bytecode": {
					"linkReferences": {},
					"object": "6080604052348015600e575f80fd5b50335f806101000a81548173ffffffffffffffffffffffffffffffffffffffff021916908373ffffffffffffffffffffffffffffffffffffffff160217905550610e1f8061005b5f395ff3fe60806040526004361061004d575f3560e01c8063481c6a75146100585780635d495aea146100825780638b5b9ccc14610098578063e97dcb62146100c2578063f71d96cb146100cc57610054565b3661005457005b5f80fd5b348015610063575f80fd5b5061006c610108565b604051610079919061077e565b60405180910390f35b34801561008d575f80fd5b5061009661012b565b005b3480156100a3575f80fd5b506100ac61037c565b6040516100b9919061085f565b60405180910390f35b6100ca610407565b005b3480156100d7575f80fd5b506100f260048036038101906100ed91906108b6565b61058e565b6040516100ff91906108f0565b60405180910390f35b5f8054906101000a900473ffffffffffffffffffffffffffffffffffffffff1681565b5f8054906101000a900473ffffffffffffffffffffffffffffffffffffffff1673ffffffffffffffffffffffffffffffffffffffff163373ffffffffffffffffffffffffffffffffffffffff16146101b8576040517f08c379a00000000000000000000000000000000000000000000000000000000081526004016101af90610963565b60405180910390fd5b5f600180549050116101ff576040517f08c379a00000000000000000000000000000000000000000000000000000000081526004016101f6906109cb565b60405180910390fd5b5f60018054905061020e6105c9565b6102189190610a16565b90505f3090505f6001838154811061023357610232610a46565b5b905f5260205f20015f9054906101000a900473ffffffffffffffffffffffffffffffffffffffff1673ffffffffffffffffffffffffffffffffffffffff168273ffffffffffffffffffffffffffffffffffffffff163160405161029590610aa0565b5f6040518083038185875af1925050503d805f81146102cf576040519150601f19603f3d011682016040523d82523d5f602084013e6102d4565b606091505b5050905080610318576040517f08c379a000000000000000000000000000000000000000000000000000000000815260040161030f90610afe565b60405180910390fd5b5f67ffffffffffffffff81111561033257610331610b1c565b5b6040519080825280602002602001820160405280156103605781602001602082028036833780820191505090505b506001908051906020019061037692919061069d565b50505050565b606060018054806020026020016040519081016040528092919081815260200182805480156103fd57602002820191905f5260205f20905b815f9054906101000a900473ffffffffffffffffffffffffffffffffffffffff1673ffffffffffffffffffffffffffffffffffffffff16815260200190600101908083116103b4575b5050505050905090565b5f8054906101000a900473ffffffffffffffffffffffffffffffffffffffff1673ffffffffffffffffffffffffffffffffffffffff163373ffffffffffffffffffffffffffffffffffffffff1603610494576040517f08c379a000000000000000000000000000000000000000000000000000000000815260040161048b90610b93565b60405180910390fd5b5f151561049f6105fd565b1515146104e1576040517f08c379a00000000000000000000000000000000000000000000000000000000081526004016104d890610bfb565b60405180910390fd5b670de0b6b3a764000034101561052c576040517f08c379a000000000000000000000000000000000000000000000000000000000815260040161052390610c63565b60405180910390fd5b600133908060018154018082558091505060019003905f5260205f20015f9091909190916101000a81548173ffffffffffffffffffffffffffffffffffffffff021916908373ffffffffffffffffffffffffffffffffffffffff160217905550565b6001818154811061059d575f80fd5b905f5260205f20015f915054906101000a900473ffffffffffffffffffffffffffffffffffffffff1681565b5f444260016040516020016105e093929190610db1565b604051602081830303815290604052805190602001205f1c905090565b5f805f90505b600180549050811015610695573373ffffffffffffffffffffffffffffffffffffffff166001828154811061063b5761063a610a46565b5b905f5260205f20015f9054906101000a900473ffffffffffffffffffffffffffffffffffffffff1673ffffffffffffffffffffffffffffffffffffffff160361068857600191505061069a565b8080600101915050610603565b505f90505b90565b828054828255905f5260205f20908101928215610713579160200282015b82811115610712578251825f6101000a81548173ffffffffffffffffffffffffffffffffffffffff021916908373ffffffffffffffffffffffffffffffffffffffff160217905550916020019190600101906106bb565b5b5090506107209190610724565b5090565b5b8082111561073b575f815f905550600101610725565b5090565b5f73ffffffffffffffffffffffffffffffffffffffff82169050919050565b5f6107688261073f565b9050919050565b6107788161075e565b82525050565b5f6020820190506107915f83018461076f565b92915050565b5f81519050919050565b5f82825260208201905092915050565b5f819050602082019050919050565b5f6107ca8261073f565b9050919050565b6107da816107c0565b82525050565b5f6107eb83836107d1565b60208301905092915050565b5f602082019050919050565b5f61080d82610797565b61081781856107a1565b9350610822836107b1565b805f5b8381101561085257815161083988826107e0565b9750610844836107f7565b925050600181019050610825565b5085935050505092915050565b5f6020820190508181035f8301526108778184610803565b905092915050565b5f80fd5b5f819050919050565b61089581610883565b811461089f575f80fd5b50565b5f813590506108b08161088c565b92915050565b5f602082840312156108cb576108ca61087f565b5b5f6108d8848285016108a2565b91505092915050565b6108ea816107c0565b82525050565b5f6020820190506109035f8301846108e1565b92915050565b5f82825260208201905092915050565b7f4f6e6c79206d616e616765722063616e207069636b207468652077696e6e65725f82015250565b5f61094d602083610909565b915061095882610919565b602082019050919050565b5f6020820190508181035f83015261097a81610941565b9050919050565b7f4e6f20706c617965727320696e20746865206c6f7474657279000000000000005f82015250565b5f6109b5601983610909565b91506109c082610981565b602082019050919050565b5f6020820190508181035f8301526109e2816109a9565b9050919050565b7f4e487b71000000000000000000000000000000000000000000000000000000005f52601260045260245ffd5b5f610a2082610883565b9150610a2b83610883565b925082610a3b57610a3a6109e9565b5b828206905092915050565b7f4e487b71000000000000000000000000000000000000000000000000000000005f52603260045260245ffd5b5f81905092915050565b50565b5f610a8b5f83610a73565b9150610a9682610a7d565b5f82019050919050565b5f610aaa82610a80565b9150819050919050565b7f5472616e73666572206661696c65642e000000000000000000000000000000005f82015250565b5f610ae8601083610909565b9150610af382610ab4565b602082019050919050565b5f6020820190508181035f830152610b1581610adc565b9050919050565b7f4e487b71000000000000000000000000000000000000000000000000000000005f52604160045260245ffd5b7f4d616e616765722063616e6e6f7420656e7465720000000000000000000000005f82015250565b5f610b7d601483610909565b9150610b8882610b49565b602082019050919050565b5f6020820190508181035f830152610baa81610b71565b9050919050565b7f506c6179657220616c726561647920656e7465726564000000000000000000005f82015250565b5f610be5601683610909565b9150610bf082610bb1565b602082019050919050565b5f6020820190508181035f830152610c1281610bd9565b9050919050565b7f4d696e696d756d20616d6f756e74206d757374206265207061696400000000005f82015250565b5f610c4d601b83610909565b9150610c5882610c19565b602082019050919050565b5f6020820190508181035f830152610c7a81610c41565b9050919050565b5f819050919050565b610c9b610c9682610883565b610c81565b82525050565b5f81549050919050565b5f81905092915050565b5f819050815f5260205f209050919050565b610cd0816107c0565b82525050565b5f610ce18383610cc7565b60208301905092915050565b5f815f1c9050919050565b5f73ffffffffffffffffffffffffffffffffffffffff82169050919050565b5f610d29610d2483610ced565b610cf8565b9050919050565b5f610d3b8254610d17565b9050919050565b5f600182019050919050565b5f610d5882610ca1565b610d628185610cab565b9350610d6d83610cb5565b805f5b83811015610da457610d8182610d30565b610d8b8882610cd6565b9750610d9683610d42565b925050600181019050610d70565b5085935050505092915050565b5f610dbc8286610c8a565b602082019150610dcc8285610c8a565b602082019150610ddc8284610d4e565b915081905094935050505056fea2646970667358221220469dea9f1c9c2ef0148f6fb6c7f290124608be3d03c70f828a3249965e18ec0b64736f6c634300081a0033",
					"opcodes": "PUSH1 0x80 PUSH1 0x40 MSTORE CALLVALUE DUP1 ISZERO PUSH1 0xE JUMPI PUSH0 DUP1 REVERT JUMPDEST POP CALLER PUSH0 DUP1 PUSH2 0x100 EXP DUP2 SLOAD DUP2 PUSH20 0xFFFFFFFFFFFFFFFFFFFFFFFFFFFFFFFFFFFFFFFF MUL NOT AND SWAP1 DUP4 PUSH20 0xFFFFFFFFFFFFFFFFFFFFFFFFFFFFFFFFFFFFFFFF AND MUL OR SWAP1 SSTORE POP PUSH2 0xE1F DUP1 PUSH2 0x5B PUSH0 CODECOPY PUSH0 RETURN INVALID PUSH1 0x80 PUSH1 0x40 MSTORE PUSH1 0x4 CALLDATASIZE LT PUSH2 0x4D JUMPI PUSH0 CALLDATALOAD PUSH1 0xE0 SHR DUP1 PUSH4 0x481C6A75 EQ PUSH2 0x58 JUMPI DUP1 PUSH4 0x5D495AEA EQ PUSH2 0x82 JUMPI DUP1 PUSH4 0x8B5B9CCC EQ PUSH2 0x98 JUMPI DUP1 PUSH4 0xE97DCB62 EQ PUSH2 0xC2 JUMPI DUP1 PUSH4 0xF71D96CB EQ PUSH2 0xCC JUMPI PUSH2 0x54 JUMP JUMPDEST CALLDATASIZE PUSH2 0x54 JUMPI STOP JUMPDEST PUSH0 DUP1 REVERT JUMPDEST CALLVALUE DUP1 ISZERO PUSH2 0x63 JUMPI PUSH0 DUP1 REVERT JUMPDEST POP PUSH2 0x6C PUSH2 0x108 JUMP JUMPDEST PUSH1 0x40 MLOAD PUSH2 0x79 SWAP2 SWAP1 PUSH2 0x77E JUMP JUMPDEST PUSH1 0x40 MLOAD DUP1 SWAP2 SUB SWAP1 RETURN JUMPDEST CALLVALUE DUP1 ISZERO PUSH2 0x8D JUMPI PUSH0 DUP1 REVERT JUMPDEST POP PUSH2 0x96 PUSH2 0x12B JUMP JUMPDEST STOP JUMPDEST CALLVALUE DUP1 ISZERO PUSH2 0xA3 JUMPI PUSH0 DUP1 REVERT JUMPDEST POP PUSH2 0xAC PUSH2 0x37C JUMP JUMPDEST PUSH1 0x40 MLOAD PUSH2 0xB9 SWAP2 SWAP1 PUSH2 0x85F JUMP JUMPDEST PUSH1 0x40 MLOAD DUP1 SWAP2 SUB SWAP1 RETURN JUMPDEST PUSH2 0xCA PUSH2 0x407 JUMP JUMPDEST STOP JUMPDEST CALLVALUE DUP1 ISZERO PUSH2 0xD7 JUMPI PUSH0 DUP1 REVERT JUMPDEST POP PUSH2 0xF2 PUSH1 0x4 DUP1 CALLDATASIZE SUB DUP2 ADD SWAP1 PUSH2 0xED SWAP2 SWAP1 PUSH2 0x8B6 JUMP JUMPDEST PUSH2 0x58E JUMP JUMPDEST PUSH1 0x40 MLOAD PUSH2 0xFF SWAP2 SWAP1 PUSH2 0x8F0 JUMP JUMPDEST PUSH1 0x40 MLOAD DUP1 SWAP2 SUB SWAP1 RETURN JUMPDEST PUSH0 DUP1 SLOAD SWAP1 PUSH2 0x100 EXP SWAP1 DIV PUSH20 0xFFFFFFFFFFFFFFFFFFFFFFFFFFFFFFFFFFFFFFFF AND DUP2 JUMP JUMPDEST PUSH0 DUP1 SLOAD SWAP1 PUSH2 0x100 EXP SWAP1 DIV PUSH20 0xFFFFFFFFFFFFFFFFFFFFFFFFFFFFFFFFFFFFFFFF AND PUSH20 0xFFFFFFFFFFFFFFFFFFFFFFFFFFFFFFFFFFFFFFFF AND CALLER PUSH20 0xFFFFFFFFFFFFFFFFFFFFFFFFFFFFFFFFFFFFFFFF AND EQ PUSH2 0x1B8 JUMPI PUSH1 0x40 MLOAD PUSH32 0x8C379A000000000000000000000000000000000000000000000000000000000 DUP2 MSTORE PUSH1 0x4 ADD PUSH2 0x1AF SWAP1 PUSH2 0x963 JUMP JUMPDEST PUSH1 0x40 MLOAD DUP1 SWAP2 SUB SWAP1 REVERT JUMPDEST PUSH0 PUSH1 0x1 DUP1 SLOAD SWAP1 POP GT PUSH2 0x1FF JUMPI PUSH1 0x40 MLOAD PUSH32 0x8C379A000000000000000000000000000000000000000000000000000000000 DUP2 MSTORE PUSH1 0x4 ADD PUSH2 0x1F6 SWAP1 PUSH2 0x9CB JUMP JUMPDEST PUSH1 0x40 MLOAD DUP1 SWAP2 SUB SWAP1 REVERT JUMPDEST PUSH0 PUSH1 0x1 DUP1 SLOAD SWAP1 POP PUSH2 0x20E PUSH2 0x5C9 JUMP JUMPDEST PUSH2 0x218 SWAP2 SWAP1 PUSH2 0xA16 JUMP JUMPDEST SWAP1 POP PUSH0 ADDRESS SWAP1 POP PUSH0 PUSH1 0x1 DUP4 DUP2 SLOAD DUP2 LT PUSH2 0x233 JUMPI PUSH2 0x232 PUSH2 0xA46 JUMP JUMPDEST JUMPDEST SWAP1 PUSH0 MSTORE PUSH1 0x20 PUSH0 KECCAK256 ADD PUSH0 SWAP1 SLOAD SWAP1 PUSH2 0x100 EXP SWAP1 DIV PUSH20 0xFFFFFFFFFFFFFFFFFFFFFFFFFFFFFFFFFFFFFFFF AND PUSH20 0xFFFFFFFFFFFFFFFFFFFFFFFFFFFFFFFFFFFFFFFF AND DUP3 PUSH20 0xFFFFFFFFFFFFFFFFFFFFFFFFFFFFFFFFFFFFFFFF AND BALANCE PUSH1 0x40 MLOAD PUSH2 0x295 SWAP1 PUSH2 0xAA0 JUMP JUMPDEST PUSH0 PUSH1 0x40 MLOAD DUP1 DUP4 SUB DUP2 DUP6 DUP8 GAS CALL SWAP3 POP POP POP RETURNDATASIZE DUP1 PUSH0 DUP2 EQ PUSH2 0x2CF JUMPI PUSH1 0x40 MLOAD SWAP2 POP PUSH1 0x1F NOT PUSH1 0x3F RETURNDATASIZE ADD AND DUP3 ADD PUSH1 0x40 MSTORE RETURNDATASIZE DUP3 MSTORE RETURNDATASIZE PUSH0 PUSH1 0x20 DUP5 ADD RETURNDATACOPY PUSH2 0x2D4 JUMP JUMPDEST PUSH1 0x60 SWAP2 POP JUMPDEST POP POP SWAP1 POP DUP1 PUSH2 0x318 JUMPI PUSH1 0x40 MLOAD PUSH32 0x8C379A000000000000000000000000000000000000000000000000000000000 DUP2 MSTORE PUSH1 0x4 ADD PUSH2 0x30F SWAP1 PUSH2 0xAFE JUMP JUMPDEST PUSH1 0x40 MLOAD DUP1 SWAP2 SUB SWAP1 REVERT JUMPDEST PUSH0 PUSH8 0xFFFFFFFFFFFFFFFF DUP2 GT ISZERO PUSH2 0x332 JUMPI PUSH2 0x331 PUSH2 0xB1C JUMP JUMPDEST JUMPDEST PUSH1 0x40 MLOAD SWAP1 DUP1 DUP3 MSTORE DUP1 PUSH1 0x20 MUL PUSH1 0x20 ADD DUP3 ADD PUSH1 0x40 MSTORE DUP1 ISZERO PUSH2 0x360 JUMPI DUP2 PUSH1 0x20 ADD PUSH1 0x20 DUP3 MUL DUP1 CALLDATASIZE DUP4 CALLDATACOPY DUP1 DUP3 ADD SWAP2 POP POP SWAP1 POP JUMPDEST POP PUSH1 0x1 SWAP1 DUP1 MLOAD SWAP1 PUSH1 0x20 ADD SWAP1 PUSH2 0x376 SWAP3 SWAP2 SWAP1 PUSH2 0x69D JUMP JUMPDEST POP POP POP POP JUMP JUMPDEST PUSH1 0x60 PUSH1 0x1 DUP1 SLOAD DUP1 PUSH1 0x20 MUL PUSH1 0x20 ADD PUSH1 0x40 MLOAD SWAP1 DUP2 ADD PUSH1 0x40 MSTORE DUP1 SWAP3 SWAP2 SWAP1 DUP2 DUP2 MSTORE PUSH1 0x20 ADD DUP3 DUP1 SLOAD DUP1 ISZERO PUSH2 0x3FD JUMPI PUSH1 0x20 MUL DUP3 ADD SWAP2 SWAP1 PUSH0 MSTORE PUSH1 0x20 PUSH0 KECCAK256 SWAP1 JUMPDEST DUP2 PUSH0 SWAP1 SLOAD SWAP1 PUSH2 0x100 EXP SWAP1 DIV PUSH20 0xFFFFFFFFFFFFFFFFFFFFFFFFFFFFFFFFFFFFFFFF AND PUSH20 0xFFFFFFFFFFFFFFFFFFFFFFFFFFFFFFFFFFFFFFFF AND DUP2 MSTORE PUSH1 0x20 ADD SWAP1 PUSH1 0x1 ADD SWAP1 DUP1 DUP4 GT PUSH2 0x3B4 JUMPI JUMPDEST POP POP POP POP POP SWAP1 POP SWAP1 JUMP JUMPDEST PUSH0 DUP1 SLOAD SWAP1 PUSH2 0x100 EXP SWAP1 DIV PUSH20 0xFFFFFFFFFFFFFFFFFFFFFFFFFFFFFFFFFFFFFFFF AND PUSH20 0xFFFFFFFFFFFFFFFFFFFFFFFFFFFFFFFFFFFFFFFF AND CALLER PUSH20 0xFFFFFFFFFFFFFFFFFFFFFFFFFFFFFFFFFFFFFFFF AND SUB PUSH2 0x494 JUMPI PUSH1 0x40 MLOAD PUSH32 0x8C379A000000000000000000000000000000000000000000000000000000000 DUP2 MSTORE PUSH1 0x4 ADD PUSH2 0x48B SWAP1 PUSH2 0xB93 JUMP JUMPDEST PUSH1 0x40 MLOAD DUP1 SWAP2 SUB SWAP1 REVERT JUMPDEST PUSH0 ISZERO ISZERO PUSH2 0x49F PUSH2 0x5FD JUMP JUMPDEST ISZERO ISZERO EQ PUSH2 0x4E1 JUMPI PUSH1 0x40 MLOAD PUSH32 0x8C379A000000000000000000000000000000000000000000000000000000000 DUP2 MSTORE PUSH1 0x4 ADD PUSH2 0x4D8 SWAP1 PUSH2 0xBFB JUMP JUMPDEST PUSH1 0x40 MLOAD DUP1 SWAP2 SUB SWAP1 REVERT JUMPDEST PUSH8 0xDE0B6B3A7640000 CALLVALUE LT ISZERO PUSH2 0x52C JUMPI PUSH1 0x40 MLOAD PUSH32 0x8C379A000000000000000000000000000000000000000000000000000000000 DUP2 MSTORE PUSH1 0x4 ADD PUSH2 0x523 SWAP1 PUSH2 0xC63 JUMP JUMPDEST PUSH1 0x40 MLOAD DUP1 SWAP2 SUB SWAP1 REVERT JUMPDEST PUSH1 0x1 CALLER SWAP1 DUP1 PUSH1 0x1 DUP2 SLOAD ADD DUP1 DUP3 SSTORE DUP1 SWAP2 POP POP PUSH1 0x1 SWAP1 SUB SWAP1 PUSH0 MSTORE PUSH1 0x20 PUSH0 KECCAK256 ADD PUSH0 SWAP1 SWAP2 SWAP1 SWAP2 SWAP1 SWAP2 PUSH2 0x100 EXP DUP2 SLOAD DUP2 PUSH20 0xFFFFFFFFFFFFFFFFFFFFFFFFFFFFFFFFFFFFFFFF MUL NOT AND SWAP1 DUP4 PUSH20 0xFFFFFFFFFFFFFFFFFFFFFFFFFFFFFFFFFFFFFFFF AND MUL OR SWAP1 SSTORE POP JUMP JUMPDEST PUSH1 0x1 DUP2 DUP2 SLOAD DUP2 LT PUSH2 0x59D JUMPI PUSH0 DUP1 REVERT JUMPDEST SWAP1 PUSH0 MSTORE PUSH1 0x20 PUSH0 KECCAK256 ADD PUSH0 SWAP2 POP SLOAD SWAP1 PUSH2 0x100 EXP SWAP1 DIV PUSH20 0xFFFFFFFFFFFFFFFFFFFFFFFFFFFFFFFFFFFFFFFF AND DUP2 JUMP JUMPDEST PUSH0 PREVRANDAO TIMESTAMP PUSH1 0x1 PUSH1 0x40 MLOAD PUSH1 0x20 ADD PUSH2 0x5E0 SWAP4 SWAP3 SWAP2 SWAP1 PUSH2 0xDB1 JUMP JUMPDEST PUSH1 0x40 MLOAD PUSH1 0x20 DUP2 DUP4 SUB SUB DUP2 MSTORE SWAP1 PUSH1 0x40 MSTORE DUP1 MLOAD SWAP1 PUSH1 0x20 ADD KECCAK256 PUSH0 SHR SWAP1 POP SWAP1 JUMP JUMPDEST PUSH0 DUP1 PUSH0 SWAP1 POP JUMPDEST PUSH1 0x1 DUP1 SLOAD SWAP1 POP DUP2 LT ISZERO PUSH2 0x695 JUMPI CALLER PUSH20 0xFFFFFFFFFFFFFFFFFFFFFFFFFFFFFFFFFFFFFFFF AND PUSH1 0x1 DUP3 DUP2 SLOAD DUP2 LT PUSH2 0x63B JUMPI PUSH2 0x63A PUSH2 0xA46 JUMP JUMPDEST JUMPDEST SWAP1 PUSH0 MSTORE PUSH1 0x20 PUSH0 KECCAK256 ADD PUSH0 SWAP1 SLOAD SWAP1 PUSH2 0x100 EXP SWAP1 DIV PUSH20 0xFFFFFFFFFFFFFFFFFFFFFFFFFFFFFFFFFFFFFFFF AND PUSH20 0xFFFFFFFFFFFFFFFFFFFFFFFFFFFFFFFFFFFFFFFF AND SUB PUSH2 0x688 JUMPI PUSH1 0x1 SWAP2 POP POP PUSH2 0x69A JUMP JUMPDEST DUP1 DUP1 PUSH1 0x1 ADD SWAP2 POP POP PUSH2 0x603 JUMP JUMPDEST POP PUSH0 SWAP1 POP JUMPDEST SWAP1 JUMP JUMPDEST DUP3 DUP1 SLOAD DUP3 DUP3 SSTORE SWAP1 PUSH0 MSTORE PUSH1 0x20 PUSH0 KECCAK256 SWAP1 DUP2 ADD SWAP3 DUP3 ISZERO PUSH2 0x713 JUMPI SWAP2 PUSH1 0x20 MUL DUP3 ADD JUMPDEST DUP3 DUP2 GT ISZERO PUSH2 0x712 JUMPI DUP3 MLOAD DUP3 PUSH0 PUSH2 0x100 EXP DUP2 SLOAD DUP2 PUSH20 0xFFFFFFFFFFFFFFFFFFFFFFFFFFFFFFFFFFFFFFFF MUL NOT AND SWAP1 DUP4 PUSH20 0xFFFFFFFFFFFFFFFFFFFFFFFFFFFFFFFFFFFFFFFF AND MUL OR SWAP1 SSTORE POP SWAP2 PUSH1 0x20 ADD SWAP2 SWAP1 PUSH1 0x1 ADD SWAP1 PUSH2 0x6BB JUMP JUMPDEST JUMPDEST POP SWAP1 POP PUSH2 0x720 SWAP2 SWAP1 PUSH2 0x724 JUMP JUMPDEST POP SWAP1 JUMP JUMPDEST JUMPDEST DUP1 DUP3 GT ISZERO PUSH2 0x73B JUMPI PUSH0 DUP2 PUSH0 SWAP1 SSTORE POP PUSH1 0x1 ADD PUSH2 0x725 JUMP JUMPDEST POP SWAP1 JUMP JUMPDEST PUSH0 PUSH20 0xFFFFFFFFFFFFFFFFFFFFFFFFFFFFFFFFFFFFFFFF DUP3 AND SWAP1 POP SWAP2 SWAP1 POP JUMP JUMPDEST PUSH0 PUSH2 0x768 DUP3 PUSH2 0x73F JUMP JUMPDEST SWAP1 POP SWAP2 SWAP1 POP JUMP JUMPDEST PUSH2 0x778 DUP2 PUSH2 0x75E JUMP JUMPDEST DUP3 MSTORE POP POP JUMP JUMPDEST PUSH0 PUSH1 0x20 DUP3 ADD SWAP1 POP PUSH2 0x791 PUSH0 DUP4 ADD DUP5 PUSH2 0x76F JUMP JUMPDEST SWAP3 SWAP2 POP POP JUMP JUMPDEST PUSH0 DUP2 MLOAD SWAP1 POP SWAP2 SWAP1 POP JUMP JUMPDEST PUSH0 DUP3 DUP3 MSTORE PUSH1 0x20 DUP3 ADD SWAP1 POP SWAP3 SWAP2 POP POP JUMP JUMPDEST PUSH0 DUP2 SWAP1 POP PUSH1 0x20 DUP3 ADD SWAP1 POP SWAP2 SWAP1 POP JUMP JUMPDEST PUSH0 PUSH2 0x7CA DUP3 PUSH2 0x73F JUMP JUMPDEST SWAP1 POP SWAP2 SWAP1 POP JUMP JUMPDEST PUSH2 0x7DA DUP2 PUSH2 0x7C0 JUMP JUMPDEST DUP3 MSTORE POP POP JUMP JUMPDEST PUSH0 PUSH2 0x7EB DUP4 DUP4 PUSH2 0x7D1 JUMP JUMPDEST PUSH1 0x20 DUP4 ADD SWAP1 POP SWAP3 SWAP2 POP POP JUMP JUMPDEST PUSH0 PUSH1 0x20 DUP3 ADD SWAP1 POP SWAP2 SWAP1 POP JUMP JUMPDEST PUSH0 PUSH2 0x80D DUP3 PUSH2 0x797 JUMP JUMPDEST PUSH2 0x817 DUP2 DUP6 PUSH2 0x7A1 JUMP JUMPDEST SWAP4 POP PUSH2 0x822 DUP4 PUSH2 0x7B1 JUMP JUMPDEST DUP1 PUSH0 JUMPDEST DUP4 DUP2 LT ISZERO PUSH2 0x852 JUMPI DUP2 MLOAD PUSH2 0x839 DUP9 DUP3 PUSH2 0x7E0 JUMP JUMPDEST SWAP8 POP PUSH2 0x844 DUP4 PUSH2 0x7F7 JUMP JUMPDEST SWAP3 POP POP PUSH1 0x1 DUP2 ADD SWAP1 POP PUSH2 0x825 JUMP JUMPDEST POP DUP6 SWAP4 POP POP POP POP SWAP3 SWAP2 POP POP JUMP JUMPDEST PUSH0 PUSH1 0x20 DUP3 ADD SWAP1 POP DUP2 DUP2 SUB PUSH0 DUP4 ADD MSTORE PUSH2 0x877 DUP2 DUP5 PUSH2 0x803 JUMP JUMPDEST SWAP1 POP SWAP3 SWAP2 POP POP JUMP JUMPDEST PUSH0 DUP1 REVERT JUMPDEST PUSH0 DUP2 SWAP1 POP SWAP2 SWAP1 POP JUMP JUMPDEST PUSH2 0x895 DUP2 PUSH2 0x883 JUMP JUMPDEST DUP2 EQ PUSH2 0x89F JUMPI PUSH0 DUP1 REVERT JUMPDEST POP JUMP JUMPDEST PUSH0 DUP2 CALLDATALOAD SWAP1 POP PUSH2 0x8B0 DUP2 PUSH2 0x88C JUMP JUMPDEST SWAP3 SWAP2 POP POP JUMP JUMPDEST PUSH0 PUSH1 0x20 DUP3 DUP5 SUB SLT ISZERO PUSH2 0x8CB JUMPI PUSH2 0x8CA PUSH2 0x87F JUMP JUMPDEST JUMPDEST PUSH0 PUSH2 0x8D8 DUP5 DUP3 DUP6 ADD PUSH2 0x8A2 JUMP JUMPDEST SWAP2 POP POP SWAP3 SWAP2 POP POP JUMP JUMPDEST PUSH2 0x8EA DUP2 PUSH2 0x7C0 JUMP JUMPDEST DUP3 MSTORE POP POP JUMP JUMPDEST PUSH0 PUSH1 0x20 DUP3 ADD SWAP1 POP PUSH2 0x903 PUSH0 DUP4 ADD DUP5 PUSH2 0x8E1 JUMP JUMPDEST SWAP3 SWAP2 POP POP JUMP JUMPDEST PUSH0 DUP3 DUP3 MSTORE PUSH1 0x20 DUP3 ADD SWAP1 POP SWAP3 SWAP2 POP POP JUMP JUMPDEST PUSH32 0x4F6E6C79206D616E616765722063616E207069636B207468652077696E6E6572 PUSH0 DUP3 ADD MSTORE POP JUMP JUMPDEST PUSH0 PUSH2 0x94D PUSH1 0x20 DUP4 PUSH2 0x909 JUMP JUMPDEST SWAP2 POP PUSH2 0x958 DUP3 PUSH2 0x919 JUMP JUMPDEST PUSH1 0x20 DUP3 ADD SWAP1 POP SWAP2 SWAP1 POP JUMP JUMPDEST PUSH0 PUSH1 0x20 DUP3 ADD SWAP1 POP DUP2 DUP2 SUB PUSH0 DUP4 ADD MSTORE PUSH2 0x97A DUP2 PUSH2 0x941 JUMP JUMPDEST SWAP1 POP SWAP2 SWAP1 POP JUMP JUMPDEST PUSH32 0x4E6F20706C617965727320696E20746865206C6F747465727900000000000000 PUSH0 DUP3 ADD MSTORE POP JUMP JUMPDEST PUSH0 PUSH2 0x9B5 PUSH1 0x19 DUP4 PUSH2 0x909 JUMP JUMPDEST SWAP2 POP PUSH2 0x9C0 DUP3 PUSH2 0x981 JUMP JUMPDEST PUSH1 0x20 DUP3 ADD SWAP1 POP SWAP2 SWAP1 POP JUMP JUMPDEST PUSH0 PUSH1 0x20 DUP3 ADD SWAP1 POP DUP2 DUP2 SUB PUSH0 DUP4 ADD MSTORE PUSH2 0x9E2 DUP2 PUSH2 0x9A9 JUMP JUMPDEST SWAP1 POP SWAP2 SWAP1 POP JUMP JUMPDEST PUSH32 0x4E487B7100000000000000000000000000000000000000000000000000000000 PUSH0 MSTORE PUSH1 0x12 PUSH1 0x4 MSTORE PUSH1 0x24 PUSH0 REVERT JUMPDEST PUSH0 PUSH2 0xA20 DUP3 PUSH2 0x883 JUMP JUMPDEST SWAP2 POP PUSH2 0xA2B DUP4 PUSH2 0x883 JUMP JUMPDEST SWAP3 POP DUP3 PUSH2 0xA3B JUMPI PUSH2 0xA3A PUSH2 0x9E9 JUMP JUMPDEST JUMPDEST DUP3 DUP3 MOD SWAP1 POP SWAP3 SWAP2 POP POP JUMP JUMPDEST PUSH32 0x4E487B7100000000000000000000000000000000000000000000000000000000 PUSH0 MSTORE PUSH1 0x32 PUSH1 0x4 MSTORE PUSH1 0x24 PUSH0 REVERT JUMPDEST PUSH0 DUP2 SWAP1 POP SWAP3 SWAP2 POP POP JUMP JUMPDEST POP JUMP JUMPDEST PUSH0 PUSH2 0xA8B PUSH0 DUP4 PUSH2 0xA73 JUMP JUMPDEST SWAP2 POP PUSH2 0xA96 DUP3 PUSH2 0xA7D JUMP JUMPDEST PUSH0 DUP3 ADD SWAP1 POP SWAP2 SWAP1 POP JUMP JUMPDEST PUSH0 PUSH2 0xAAA DUP3 PUSH2 0xA80 JUMP JUMPDEST SWAP2 POP DUP2 SWAP1 POP SWAP2 SWAP1 POP JUMP JUMPDEST PUSH32 0x5472616E73666572206661696C65642E00000000000000000000000000000000 PUSH0 DUP3 ADD MSTORE POP JUMP JUMPDEST PUSH0 PUSH2 0xAE8 PUSH1 0x10 DUP4 PUSH2 0x909 JUMP JUMPDEST SWAP2 POP PUSH2 0xAF3 DUP3 PUSH2 0xAB4 JUMP JUMPDEST PUSH1 0x20 DUP3 ADD SWAP1 POP SWAP2 SWAP1 POP JUMP JUMPDEST PUSH0 PUSH1 0x20 DUP3 ADD SWAP1 POP DUP2 DUP2 SUB PUSH0 DUP4 ADD MSTORE PUSH2 0xB15 DUP2 PUSH2 0xADC JUMP JUMPDEST SWAP1 POP SWAP2 SWAP1 POP JUMP JUMPDEST PUSH32 0x4E487B7100000000000000000000000000000000000000000000000000000000 PUSH0 MSTORE PUSH1 0x41 PUSH1 0x4 MSTORE PUSH1 0x24 PUSH0 REVERT JUMPDEST PUSH32 0x4D616E616765722063616E6E6F7420656E746572000000000000000000000000 PUSH0 DUP3 ADD MSTORE POP JUMP JUMPDEST PUSH0 PUSH2 0xB7D PUSH1 0x14 DUP4 PUSH2 0x909 JUMP JUMPDEST SWAP2 POP PUSH2 0xB88 DUP3 PUSH2 0xB49 JUMP JUMPDEST PUSH1 0x20 DUP3 ADD SWAP1 POP SWAP2 SWAP1 POP JUMP JUMPDEST PUSH0 PUSH1 0x20 DUP3 ADD SWAP1 POP DUP2 DUP2 SUB PUSH0 DUP4 ADD MSTORE PUSH2 0xBAA DUP2 PUSH2 0xB71 JUMP JUMPDEST SWAP1 POP SWAP2 SWAP1 POP JUMP JUMPDEST PUSH32 0x506C6179657220616C726561647920656E746572656400000000000000000000 PUSH0 DUP3 ADD MSTORE POP JUMP JUMPDEST PUSH0 PUSH2 0xBE5 PUSH1 0x16 DUP4 PUSH2 0x909 JUMP JUMPDEST SWAP2 POP PUSH2 0xBF0 DUP3 PUSH2 0xBB1 JUMP JUMPDEST PUSH1 0x20 DUP3 ADD SWAP1 POP SWAP2 SWAP1 POP JUMP JUMPDEST PUSH0 PUSH1 0x20 DUP3 ADD SWAP1 POP DUP2 DUP2 SUB PUSH0 DUP4 ADD MSTORE PUSH2 0xC12 DUP2 PUSH2 0xBD9 JUMP JUMPDEST SWAP1 POP SWAP2 SWAP1 POP JUMP JUMPDEST PUSH32 0x4D696E696D756D20616D6F756E74206D75737420626520706169640000000000 PUSH0 DUP3 ADD MSTORE POP JUMP JUMPDEST PUSH0 PUSH2 0xC4D PUSH1 0x1B DUP4 PUSH2 0x909 JUMP JUMPDEST SWAP2 POP PUSH2 0xC58 DUP3 PUSH2 0xC19 JUMP JUMPDEST PUSH1 0x20 DUP3 ADD SWAP1 POP SWAP2 SWAP1 POP JUMP JUMPDEST PUSH0 PUSH1 0x20 DUP3 ADD SWAP1 POP DUP2 DUP2 SUB PUSH0 DUP4 ADD MSTORE PUSH2 0xC7A DUP2 PUSH2 0xC41 JUMP JUMPDEST SWAP1 POP SWAP2 SWAP1 POP JUMP JUMPDEST PUSH0 DUP2 SWAP1 POP SWAP2 SWAP1 POP JUMP JUMPDEST PUSH2 0xC9B PUSH2 0xC96 DUP3 PUSH2 0x883 JUMP JUMPDEST PUSH2 0xC81 JUMP JUMPDEST DUP3 MSTORE POP POP JUMP JUMPDEST PUSH0 DUP2 SLOAD SWAP1 POP SWAP2 SWAP1 POP JUMP JUMPDEST PUSH0 DUP2 SWAP1 POP SWAP3 SWAP2 POP POP JUMP JUMPDEST PUSH0 DUP2 SWAP1 POP DUP2 PUSH0 MSTORE PUSH1 0x20 PUSH0 KECCAK256 SWAP1 POP SWAP2 SWAP1 POP JUMP JUMPDEST PUSH2 0xCD0 DUP2 PUSH2 0x7C0 JUMP JUMPDEST DUP3 MSTORE POP POP JUMP JUMPDEST PUSH0 PUSH2 0xCE1 DUP4 DUP4 PUSH2 0xCC7 JUMP JUMPDEST PUSH1 0x20 DUP4 ADD SWAP1 POP SWAP3 SWAP2 POP POP JUMP JUMPDEST PUSH0 DUP2 PUSH0 SHR SWAP1 POP SWAP2 SWAP1 POP JUMP JUMPDEST PUSH0 PUSH20 0xFFFFFFFFFFFFFFFFFFFFFFFFFFFFFFFFFFFFFFFF DUP3 AND SWAP1 POP SWAP2 SWAP1 POP JUMP JUMPDEST PUSH0 PUSH2 0xD29 PUSH2 0xD24 DUP4 PUSH2 0xCED JUMP JUMPDEST PUSH2 0xCF8 JUMP JUMPDEST SWAP1 POP SWAP2 SWAP1 POP JUMP JUMPDEST PUSH0 PUSH2 0xD3B DUP3 SLOAD PUSH2 0xD17 JUMP JUMPDEST SWAP1 POP SWAP2 SWAP1 POP JUMP JUMPDEST PUSH0 PUSH1 0x1 DUP3 ADD SWAP1 POP SWAP2 SWAP1 POP JUMP JUMPDEST PUSH0 PUSH2 0xD58 DUP3 PUSH2 0xCA1 JUMP JUMPDEST PUSH2 0xD62 DUP2 DUP6 PUSH2 0xCAB JUMP JUMPDEST SWAP4 POP PUSH2 0xD6D DUP4 PUSH2 0xCB5 JUMP JUMPDEST DUP1 PUSH0 JUMPDEST DUP4 DUP2 LT ISZERO PUSH2 0xDA4 JUMPI PUSH2 0xD81 DUP3 PUSH2 0xD30 JUMP JUMPDEST PUSH2 0xD8B DUP9 DUP3 PUSH2 0xCD6 JUMP JUMPDEST SWAP8 POP PUSH2 0xD96 DUP4 PUSH2 0xD42 JUMP JUMPDEST SWAP3 POP POP PUSH1 0x1 DUP2 ADD SWAP1 POP PUSH2 0xD70 JUMP JUMPDEST POP DUP6 SWAP4 POP POP POP POP SWAP3 SWAP2 POP POP JUMP JUMPDEST PUSH0 PUSH2 0xDBC DUP3 DUP7 PUSH2 0xC8A JUMP JUMPDEST PUSH1 0x20 DUP3 ADD SWAP2 POP PUSH2 0xDCC DUP3 DUP6 PUSH2 0xC8A JUMP JUMPDEST PUSH1 0x20 DUP3 ADD SWAP2 POP PUSH2 0xDDC DUP3 DUP5 PUSH2 0xD4E JUMP JUMPDEST SWAP2 POP DUP2 SWAP1 POP SWAP5 SWAP4 POP POP POP POP JUMP INVALID LOG2 PUSH5 0x6970667358 0x22 SLT KECCAK256 CHAINID SWAP14 0xEA SWAP16 SHR SWAP13 0x2E CREATE EQ DUP16 PUSH16 0xB6C7F290124608BE3D03C70F828A3249 SWAP7 MCOPY XOR 0xEC SIGNEXTEND PUSH5 0x736F6C6343 STOP ADDMOD BYTE STOP CALLER "
				},
				"gasEstimates": {
					"creation": {
						"codeDepositCost": "723000",
						"executionCost": "25016",
						"totalCost": "748016"
					},
					"external": {
						"enter()": "infinite",
						"getPlayers()": "infinite",
						"manager()": "2483",
						"pickWinner()": "infinite",
						"players(uint256)": "5010"
					},
					"internal": {
						"alreadyEntered()": "infinite",
						"random()": "infinite"
					}
				},
				"methodIdentifiers": {
					"enter()": "e97dcb62",
					"getPlayers()": "8b5b9ccc",
					"manager()": "481c6a75",
					"pickWinner()": "5d495aea",
					"players(uint256)": "f71d96cb"
				}
			},
			"storageLayout": {
				"storage": [
					{
						"astId": 3,
						"contract": "Assignment3/q1.sol:Lottery",
						"label": "manager",
						"offset": 0,
						"slot": "0",
						"type": "t_address"
					},
					{
						"astId": 6,
						"contract": "Assignment3/q1.sol:Lottery",
						"label": "players",
						"offset": 0,
						"slot": "1",
						"type": "t_array(t_address_payable)dyn_storage"
					}
				],
				"types": {
					"t_address": {
						"encoding": "inplace",
						"label": "address",
						"numberOfBytes": "20"
					},
					"t_address_payable": {
						"encoding": "inplace",
						"label": "address payable",
						"numberOfBytes": "20"
					},
					"t_array(t_address_payable)dyn_storage": {
						"base": "t_address_payable",
						"encoding": "dynamic_array",
						"label": "address payable[]",
						"numberOfBytes": "32"
					}
				}
			},
			"userdoc": {
				"kind": "user",
				"methods": {},
				"version": 1
			}
		}
	}
}