{
	"data": {
		"bytecode": {
			"linkReferences": {},
			"object": "6080604052348015600e575f80fd5b5061010f8061001c5f395ff3fe6080604052348015600e575f80fd5b50600436106026575f3560e01c80636c18f73e14602a575b5f80fd5b60306032565b005b7fa380f0b7ee635659644dd1aaeb442a4a549248c644a0ae23dce219ffd0954893604051605d9060bd565b60405180910390a1565b5f82825260208201905092915050565b7f416374696f6e20686173206265656e20706572666f726d65642e0000000000005f82015250565b5f60a9601a836067565b915060b2826077565b602082019050919050565b5f6020820190508181035f83015260d281609f565b905091905056fea26469706673582212206418a846c04cc47e504c16ed30a81917f66f8c8e0aa7322b7d25c7f3e27cadc464736f6c634300081a0033",
			"opcodes": "PUSH1 0x80 PUSH1 0x40 MSTORE CALLVALUE DUP1 ISZERO PUSH1 0xE JUMPI PUSH0 DUP1 REVERT JUMPDEST POP PUSH2 0x10F DUP1 PUSH2 0x1C PUSH0 CODECOPY PUSH0 RETURN INVALID PUSH1 0x80 PUSH1 0x40 MSTORE CALLVALUE DUP1 ISZERO PUSH1 0xE JUMPI PUSH0 DUP1 REVERT JUMPDEST POP PUSH1 0x4 CALLDATASIZE LT PUSH1 0x26 JUMPI PUSH0 CALLDATALOAD PUSH1 0xE0 SHR DUP1 PUSH4 0x6C18F73E EQ PUSH1 0x2A JUMPI JUMPDEST PUSH0 DUP1 REVERT JUMPDEST PUSH1 0x30 PUSH1 0x32 JUMP JUMPDEST STOP JUMPDEST PUSH32 0xA380F0B7EE635659644DD1AAEB442A4A549248C644A0AE23DCE219FFD0954893 PUSH1 0x40 MLOAD PUSH1 0x5D SWAP1 PUSH1 0xBD JUMP JUMPDEST PUSH1 0x40 MLOAD DUP1 SWAP2 SUB SWAP1 LOG1 JUMP JUMPDEST PUSH0 DUP3 DUP3 MSTORE PUSH1 0x20 DUP3 ADD SWAP1 POP SWAP3 SWAP2 POP POP JUMP JUMPDEST PUSH32 0x416374696F6E20686173206265656E20706572666F726D65642E000000000000 PUSH0 DUP3 ADD MSTORE POP JUMP JUMPDEST PUSH0 PUSH1 0xA9 PUSH1 0x1A DUP4 PUSH1 0x67 JUMP JUMPDEST SWAP2 POP PUSH1 0xB2 DUP3 PUSH1 0x77 JUMP JUMPDEST PUSH1 0x20 DUP3 ADD SWAP1 POP SWAP2 SWAP1 POP JUMP JUMPDEST PUSH0 PUSH1 0x20 DUP3 ADD SWAP1 POP DUP2 DUP2 SUB PUSH0 DUP4 ADD MSTORE PUSH1 0xD2 DUP2 PUSH1 0x9F JUMP JUMPDEST SWAP1 POP SWAP2 SWAP1 POP JUMP INVALID LOG2 PUSH5 0x6970667358 0x22 SLT KECCAK256 PUSH5 0x18A846C04C 0xC4 PUSH31 0x504C16ED30A81917F66F8C8E0AA7322B7D25C7F3E27CADC464736F6C634300 ADDMOD BYTE STOP CALLER "
		},
		"gasEstimates": {
			"creation": {
				"codeDepositCost": "54200",
				"executionCost": "103",
				"totalCost": "54303"
			},
			"external": {
				"performAction()": "1918"
			}
		},
		"methodIdentifiers": {
			"performAction()": "6c18f73e"
		}
	},
	"abi": [
		{
			"anonymous": false,
			"inputs": [
				{
					"indexed": false,
					"internalType": "string",
					"name": "message",
					"type": "string"
				}
			],
			"name": "ActionPerformed",
			"type": "event"
		},
		{
			"inputs": [],
			"name": "performAction",
			"outputs": [],
			"stateMutability": "nonpayable",
			"type": "function"
		}
	]
}