{
	"Assignment5/q2.sol": {
		"VotingSystem": {
			"abi": [
				{
					"inputs": [],
					"stateMutability": "nonpayable",
					"type": "constructor"
				},
				{
					"anonymous": false,
					"inputs": [
						{
							"indexed": false,
							"internalType": "uint256",
							"name": "proposalId",
							"type": "uint256"
						},
						{
							"indexed": false,
							"internalType": "string",
							"name": "description",
							"type": "string"
						}
					],
					"name": "ProposalCreated",
					"type": "event"
				},
				{
					"anonymous": false,
					"inputs": [
						{
							"indexed": false,
							"internalType": "uint256",
							"name": "proposalId",
							"type": "uint256"
						},
						{
							"indexed": false,
							"internalType": "address",
							"name": "voter",
							"type": "address"
						}
					],
					"name": "Voted",
					"type": "event"
				},
				{
					"inputs": [
						{
							"internalType": "uint256",
							"name": "_proposalId",
							"type": "uint256"
						}
					],
					"name": "getProposal",
					"outputs": [
						{
							"internalType": "string",
							"name": "description",
							"type": "string"
						},
						{
							"internalType": "uint256",
							"name": "voteCount",
							"type": "uint256"
						}
					],
					"stateMutability": "view",
					"type": "function"
				},
				{
					"inputs": [],
					"name": "getProposalsCount",
					"outputs": [
						{
							"internalType": "uint256",
							"name": "",
							"type": "uint256"
						}
					],
					"stateMutability": "view",
					"type": "function"
				},
				{
					"inputs": [],
					"name": "getWinningProposal",
					"outputs": [
						{
							"internalType": "uint256",
							"name": "winningProposalId",
							"type": "uint256"
						}
					],
					"stateMutability": "view",
					"type": "function"
				},
				{
					"inputs": [
						{
							"internalType": "uint256",
							"name": "",
							"type": "uint256"
						},
						{
							"internalType": "address",
							"name": "",
							"type": "address"
						}
					],
					"name": "hasVoted",
					"outputs": [
						{
							"internalType": "bool",
							"name": "",
							"type": "bool"
						}
					],
					"stateMutability": "view",
					"type": "function"
				},
				{
					"inputs": [],
					"name": "owner",
					"outputs": [
						{
							"internalType": "address",
							"name": "",
							"type": "address"
						}
					],
					"stateMutability": "view",
					"type": "function"
				},
				{
					"inputs": [
						{
							"internalType": "uint256",
							"name": "",
							"type": "uint256"
						}
					],
					"name": "proposals",
					"outputs": [
						{
							"internalType": "string",
							"name": "description",
							"type": "string"
						},
						{
							"internalType": "uint256",
							"name": "voteCount",
							"type": "uint256"
						}
					],
					"stateMutability": "view",
					"type": "function"
				},
				{
					"inputs": [
						{
							"internalType": "string",
							"name": "_description",
							"type": "string"
						}
					],
					"name": "propose",
					"outputs": [],
					"stateMutability": "nonpayable",
					"type": "function"
				},
				{
					"inputs": [
						{
							"internalType": "uint256",
							"name": "_proposalId",
							"type": "uint256"
						}
					],
					"name": "vote",
					"outputs": [],
					"stateMutability": "nonpayable",
					"type": "function"
				}
			],
			"devdoc": {
				"kind": "dev",
				"methods": {},
				"version": 1
			},
			"evm": {
				"assembly": "    /* \"Assignment5/q2.sol\":69:2621  contract VotingSystem {... */\n  mstore(0x40, 0x80)\n    /* \"Assignment5/q2.sol\":440:525  constructor() {... */\n  callvalue\n  dup1\n  iszero\n  tag_1\n  jumpi\n  0x00\n  dup1\n  revert\ntag_1:\n  pop\n    /* \"Assignment5/q2.sol\":473:483  msg.sender */\n  caller\n    /* \"Assignment5/q2.sol\":465:470  owner */\n  0x00\n  dup1\n    /* \"Assignment5/q2.sol\":465:483  owner = msg.sender */\n  0x0100\n  exp\n  dup2\n  sload\n  dup2\n  0xffffffffffffffffffffffffffffffffffffffff\n  mul\n  not\n  and\n  swap1\n  dup4\n  0xffffffffffffffffffffffffffffffffffffffff\n  and\n  mul\n  or\n  swap1\n  sstore\n  pop\n    /* \"Assignment5/q2.sol\":69:2621  contract VotingSystem {... */\n  dataSize(sub_0)\n  dup1\n  dataOffset(sub_0)\n  0x00\n  codecopy\n  0x00\n  return\nstop\n\nsub_0: assembly {\n        /* \"Assignment5/q2.sol\":69:2621  contract VotingSystem {... */\n      mstore(0x40, 0x80)\n      callvalue\n      dup1\n      iszero\n      tag_1\n      jumpi\n      0x00\n      dup1\n      revert\n    tag_1:\n      pop\n      jumpi(tag_2, lt(calldatasize, 0x04))\n      shr(0xe0, calldataload(0x00))\n      dup1\n      0x98e527d3\n      gt\n      tag_11\n      jumpi\n      dup1\n      0x98e527d3\n      eq\n      tag_7\n      jumpi\n      dup1\n      0xa5134620\n      eq\n      tag_8\n      jumpi\n      dup1\n      0xaa98df39\n      eq\n      tag_9\n      jumpi\n      dup1\n      0xc7f758a8\n      eq\n      tag_10\n      jumpi\n      jump(tag_2)\n    tag_11:\n      dup1\n      0x0121b93f\n      eq\n      tag_3\n      jumpi\n      dup1\n      0x013cf08b\n      eq\n      tag_4\n      jumpi\n      dup1\n      0x43859632\n      eq\n      tag_5\n      jumpi\n      dup1\n      0x8da5cb5b\n      eq\n      tag_6\n      jumpi\n    tag_2:\n      0x00\n      dup1\n      revert\n        /* \"Assignment5/q2.sol\":984:1447  function vote(uint256 _proposalId) external {... */\n    tag_3:\n      tag_12\n      0x04\n      dup1\n      calldatasize\n      sub\n      dup2\n      add\n      swap1\n      tag_13\n      swap2\n      swap1\n      tag_14\n      jump\t// in\n    tag_13:\n      tag_15\n      jump\t// in\n    tag_12:\n      stop\n        /* \"Assignment5/q2.sol\":214:241  Proposal[] public proposals */\n    tag_4:\n      tag_16\n      0x04\n      dup1\n      calldatasize\n      sub\n      dup2\n      add\n      swap1\n      tag_17\n      swap2\n      swap1\n      tag_14\n      jump\t// in\n    tag_17:\n      tag_18\n      jump\t// in\n    tag_16:\n      mload(0x40)\n      tag_19\n      swap3\n      swap2\n      swap1\n      tag_20\n      jump\t// in\n    tag_19:\n      mload(0x40)\n      dup1\n      swap2\n      sub\n      swap1\n      return\n        /* \"Assignment5/q2.sol\":248:308  mapping(uint256 => mapping(address => bool)) public hasVoted */\n    tag_5:\n      tag_21\n      0x04\n      dup1\n      calldatasize\n      sub\n      dup2\n      add\n      swap1\n      tag_22\n      swap2\n      swap1\n      tag_23\n      jump\t// in\n    tag_22:\n      tag_24\n      jump\t// in\n    tag_21:\n      mload(0x40)\n      tag_25\n      swap2\n      swap1\n      tag_26\n      jump\t// in\n    tag_25:\n      mload(0x40)\n      dup1\n      swap2\n      sub\n      swap1\n      return\n        /* \"Assignment5/q2.sol\":187:207  address public owner */\n    tag_6:\n      tag_27\n      tag_28\n      jump\t// in\n    tag_27:\n      mload(0x40)\n      tag_29\n      swap2\n      swap1\n      tag_30\n      jump\t// in\n    tag_29:\n      mload(0x40)\n      dup1\n      swap2\n      sub\n      swap1\n      return\n        /* \"Assignment5/q2.sol\":1503:1606  function getProposalsCount() external view returns (uint256) {... */\n    tag_7:\n      tag_31\n      tag_32\n      jump\t// in\n    tag_31:\n      mload(0x40)\n      tag_33\n      swap2\n      swap1\n      tag_34\n      jump\t// in\n    tag_33:\n      mload(0x40)\n      dup1\n      swap2\n      sub\n      swap1\n      return\n        /* \"Assignment5/q2.sol\":2072:2618  function getWinningProposal() external view returns (uint256 winningProposalId) {... */\n    tag_8:\n      tag_35\n      tag_36\n      jump\t// in\n    tag_35:\n      mload(0x40)\n      tag_37\n      swap2\n      swap1\n      tag_34\n      jump\t// in\n    tag_37:\n      mload(0x40)\n      dup1\n      swap2\n      sub\n      swap1\n      return\n        /* \"Assignment5/q2.sol\":574:944  function propose(string calldata _description) external {... */\n    tag_9:\n      tag_38\n      0x04\n      dup1\n      calldatasize\n      sub\n      dup2\n      add\n      swap1\n      tag_39\n      swap2\n      swap1\n      tag_40\n      jump\t// in\n    tag_39:\n      tag_41\n      jump\t// in\n    tag_38:\n      stop\n        /* \"Assignment5/q2.sol\":1655:2019  function getProposal(uint256 _proposalId) external view returns (string memory description, uint256 voteCount) {... */\n    tag_10:\n      tag_42\n      0x04\n      dup1\n      calldatasize\n      sub\n      dup2\n      add\n      swap1\n      tag_43\n      swap2\n      swap1\n      tag_14\n      jump\t// in\n    tag_43:\n      tag_44\n      jump\t// in\n    tag_42:\n      mload(0x40)\n      tag_45\n      swap3\n      swap2\n      swap1\n      tag_20\n      jump\t// in\n    tag_45:\n      mload(0x40)\n      dup1\n      swap2\n      sub\n      swap1\n      return\n        /* \"Assignment5/q2.sol\":984:1447  function vote(uint256 _proposalId) external {... */\n    tag_15:\n        /* \"Assignment5/q2.sol\":1061:1070  proposals */\n      0x01\n        /* \"Assignment5/q2.sol\":1061:1077  proposals.length */\n      dup1\n      sload\n      swap1\n      pop\n        /* \"Assignment5/q2.sol\":1047:1058  _proposalId */\n      dup2\n        /* \"Assignment5/q2.sol\":1047:1077  _proposalId < proposals.length */\n      lt\n        /* \"Assignment5/q2.sol\":1039:1101  require(_proposalId < proposals.length, \"Invalid proposal ID\") */\n      tag_47\n      jumpi\n      mload(0x40)\n      0x08c379a000000000000000000000000000000000000000000000000000000000\n      dup2\n      mstore\n      0x04\n      add\n      tag_48\n      swap1\n      tag_49\n      jump\t// in\n    tag_48:\n      mload(0x40)\n      dup1\n      swap2\n      sub\n      swap1\n      revert\n    tag_47:\n        /* \"Assignment5/q2.sol\":1121:1129  hasVoted */\n      0x02\n        /* \"Assignment5/q2.sol\":1121:1142  hasVoted[_proposalId] */\n      0x00\n        /* \"Assignment5/q2.sol\":1130:1141  _proposalId */\n      dup3\n        /* \"Assignment5/q2.sol\":1121:1142  hasVoted[_proposalId] */\n      dup2\n      mstore\n      0x20\n      add\n      swap1\n      dup2\n      mstore\n      0x20\n      add\n      0x00\n      keccak256\n        /* \"Assignment5/q2.sol\":1121:1154  hasVoted[_proposalId][msg.sender] */\n      0x00\n        /* \"Assignment5/q2.sol\":1143:1153  msg.sender */\n      caller\n        /* \"Assignment5/q2.sol\":1121:1154  hasVoted[_proposalId][msg.sender] */\n      0xffffffffffffffffffffffffffffffffffffffff\n      and\n      0xffffffffffffffffffffffffffffffffffffffff\n      and\n      dup2\n      mstore\n      0x20\n      add\n      swap1\n      dup2\n      mstore\n      0x20\n      add\n      0x00\n      keccak256\n      0x00\n      swap1\n      sload\n      swap1\n      0x0100\n      exp\n      swap1\n      div\n      0xff\n      and\n        /* \"Assignment5/q2.sol\":1120:1154  !hasVoted[_proposalId][msg.sender] */\n      iszero\n        /* \"Assignment5/q2.sol\":1112:1202  require(!hasVoted[_proposalId][msg.sender], \"Address has already voted for this proposal\") */\n      tag_50\n      jumpi\n      mload(0x40)\n      0x08c379a000000000000000000000000000000000000000000000000000000000\n      dup2\n      mstore\n      0x04\n      add\n      tag_51\n      swap1\n      tag_52\n      jump\t// in\n    tag_51:\n      mload(0x40)\n      dup1\n      swap2\n      sub\n      swap1\n      revert\n    tag_50:\n        /* \"Assignment5/q2.sol\":1251:1255  true */\n      0x01\n        /* \"Assignment5/q2.sol\":1215:1223  hasVoted */\n      0x02\n        /* \"Assignment5/q2.sol\":1215:1236  hasVoted[_proposalId] */\n      0x00\n        /* \"Assignment5/q2.sol\":1224:1235  _proposalId */\n      dup4\n        /* \"Assignment5/q2.sol\":1215:1236  hasVoted[_proposalId] */\n      dup2\n      mstore\n      0x20\n      add\n      swap1\n      dup2\n      mstore\n      0x20\n      add\n      0x00\n      keccak256\n        /* \"Assignment5/q2.sol\":1215:1248  hasVoted[_proposalId][msg.sender] */\n      0x00\n        /* \"Assignment5/q2.sol\":1237:1247  msg.sender */\n      caller\n        /* \"Assignment5/q2.sol\":1215:1248  hasVoted[_proposalId][msg.sender] */\n      0xffffffffffffffffffffffffffffffffffffffff\n      and\n      0xffffffffffffffffffffffffffffffffffffffff\n      and\n      dup2\n      mstore\n      0x20\n      add\n      swap1\n      dup2\n      mstore\n      0x20\n      add\n      0x00\n      keccak256\n      0x00\n        /* \"Assignment5/q2.sol\":1215:1255  hasVoted[_proposalId][msg.sender] = true */\n      0x0100\n      exp\n      dup2\n      sload\n      dup2\n      0xff\n      mul\n      not\n      and\n      swap1\n      dup4\n      iszero\n      iszero\n      mul\n      or\n      swap1\n      sstore\n      pop\n        /* \"Assignment5/q2.sol\":1336:1337  1 */\n      0x01\n        /* \"Assignment5/q2.sol\":1300:1309  proposals */\n      dup1\n        /* \"Assignment5/q2.sol\":1310:1321  _proposalId */\n      dup3\n        /* \"Assignment5/q2.sol\":1300:1322  proposals[_proposalId] */\n      dup2\n      sload\n      dup2\n      lt\n      tag_53\n      jumpi\n      tag_54\n      tag_55\n      jump\t// in\n    tag_54:\n    tag_53:\n      swap1\n      0x00\n      mstore\n      keccak256(0x00, 0x20)\n      swap1\n      0x02\n      mul\n      add\n        /* \"Assignment5/q2.sol\":1300:1332  proposals[_proposalId].voteCount */\n      0x01\n      add\n      0x00\n        /* \"Assignment5/q2.sol\":1300:1337  proposals[_proposalId].voteCount += 1 */\n      dup3\n      dup3\n      sload\n      tag_57\n      swap2\n      swap1\n      tag_58\n      jump\t// in\n    tag_57:\n      swap3\n      pop\n      pop\n      dup2\n      swap1\n      sstore\n      pop\n        /* \"Assignment5/q2.sol\":1382:1412  Voted(_proposalId, msg.sender) */\n      0x030b0f8dcd86a031eddb071f91882edeac8173663ba775713b677b42b51be44b\n        /* \"Assignment5/q2.sol\":1388:1399  _proposalId */\n      dup2\n        /* \"Assignment5/q2.sol\":1401:1411  msg.sender */\n      caller\n        /* \"Assignment5/q2.sol\":1382:1412  Voted(_proposalId, msg.sender) */\n      mload(0x40)\n      tag_59\n      swap3\n      swap2\n      swap1\n      tag_60\n      jump\t// in\n    tag_59:\n      mload(0x40)\n      dup1\n      swap2\n      sub\n      swap1\n      log1\n        /* \"Assignment5/q2.sol\":984:1447  function vote(uint256 _proposalId) external {... */\n      pop\n      jump\t// out\n        /* \"Assignment5/q2.sol\":214:241  Proposal[] public proposals */\n    tag_18:\n      0x01\n      dup2\n      dup2\n      sload\n      dup2\n      lt\n      tag_61\n      jumpi\n      0x00\n      dup1\n      revert\n    tag_61:\n      swap1\n      0x00\n      mstore\n      keccak256(0x00, 0x20)\n      swap1\n      0x02\n      mul\n      add\n      0x00\n      swap2\n      pop\n      swap1\n      pop\n      dup1\n      0x00\n      add\n      dup1\n      sload\n      tag_63\n      swap1\n      tag_64\n      jump\t// in\n    tag_63:\n      dup1\n      0x1f\n      add\n      0x20\n      dup1\n      swap2\n      div\n      mul\n      0x20\n      add\n      mload(0x40)\n      swap1\n      dup2\n      add\n      0x40\n      mstore\n      dup1\n      swap3\n      swap2\n      swap1\n      dup2\n      dup2\n      mstore\n      0x20\n      add\n      dup3\n      dup1\n      sload\n      tag_65\n      swap1\n      tag_64\n      jump\t// in\n    tag_65:\n      dup1\n      iszero\n      tag_66\n      jumpi\n      dup1\n      0x1f\n      lt\n      tag_67\n      jumpi\n      0x0100\n      dup1\n      dup4\n      sload\n      div\n      mul\n      dup4\n      mstore\n      swap2\n      0x20\n      add\n      swap2\n      jump(tag_66)\n    tag_67:\n      dup3\n      add\n      swap2\n      swap1\n      0x00\n      mstore\n      keccak256(0x00, 0x20)\n      swap1\n    tag_68:\n      dup2\n      sload\n      dup2\n      mstore\n      swap1\n      0x01\n      add\n      swap1\n      0x20\n      add\n      dup1\n      dup4\n      gt\n      tag_68\n      jumpi\n      dup3\n      swap1\n      sub\n      0x1f\n      and\n      dup3\n      add\n      swap2\n    tag_66:\n      pop\n      pop\n      pop\n      pop\n      pop\n      swap1\n      dup1\n      0x01\n      add\n      sload\n      swap1\n      pop\n      dup3\n      jump\t// out\n        /* \"Assignment5/q2.sol\":248:308  mapping(uint256 => mapping(address => bool)) public hasVoted */\n    tag_24:\n      mstore(0x20, 0x02)\n      dup2\n      0x00\n      mstore\n      mstore(0x20, keccak256(0x00, 0x40))\n      dup1\n      0x00\n      mstore\n      keccak256(0x00, 0x40)\n      0x00\n      swap2\n      pop\n      swap2\n      pop\n      swap1\n      sload\n      swap1\n      0x0100\n      exp\n      swap1\n      div\n      0xff\n      and\n      dup2\n      jump\t// out\n        /* \"Assignment5/q2.sol\":187:207  address public owner */\n    tag_28:\n      0x00\n      dup1\n      sload\n      swap1\n      0x0100\n      exp\n      swap1\n      div\n      0xffffffffffffffffffffffffffffffffffffffff\n      and\n      dup2\n      jump\t// out\n        /* \"Assignment5/q2.sol\":1503:1606  function getProposalsCount() external view returns (uint256) {... */\n    tag_32:\n        /* \"Assignment5/q2.sol\":1555:1562  uint256 */\n      0x00\n        /* \"Assignment5/q2.sol\":1582:1591  proposals */\n      0x01\n        /* \"Assignment5/q2.sol\":1582:1598  proposals.length */\n      dup1\n      sload\n      swap1\n      pop\n        /* \"Assignment5/q2.sol\":1575:1598  return proposals.length */\n      swap1\n      pop\n        /* \"Assignment5/q2.sol\":1503:1606  function getProposalsCount() external view returns (uint256) {... */\n      swap1\n      jump\t// out\n        /* \"Assignment5/q2.sol\":2072:2618  function getWinningProposal() external view returns (uint256 winningProposalId) {... */\n    tag_36:\n        /* \"Assignment5/q2.sol\":2125:2150  uint256 winningProposalId */\n      0x00\n        /* \"Assignment5/q2.sol\":2190:2191  0 */\n      dup1\n        /* \"Assignment5/q2.sol\":2171:2180  proposals */\n      0x01\n        /* \"Assignment5/q2.sol\":2171:2187  proposals.length */\n      dup1\n      sload\n      swap1\n      pop\n        /* \"Assignment5/q2.sol\":2171:2191  proposals.length > 0 */\n      gt\n        /* \"Assignment5/q2.sol\":2163:2218  require(proposals.length > 0, \"No proposals available\") */\n      tag_71\n      jumpi\n      mload(0x40)\n      0x08c379a000000000000000000000000000000000000000000000000000000000\n      dup2\n      mstore\n      0x04\n      add\n      tag_72\n      swap1\n      tag_73\n      jump\t// in\n    tag_72:\n      mload(0x40)\n      dup1\n      swap2\n      sub\n      swap1\n      revert\n    tag_71:\n        /* \"Assignment5/q2.sol\":2231:2255  uint256 winningVoteCount */\n      0x00\n        /* \"Assignment5/q2.sol\":2290:2291  0 */\n      dup1\n        /* \"Assignment5/q2.sol\":2270:2291  winningProposalId = 0 */\n      swap2\n      pop\n        /* \"Assignment5/q2.sol\":2380:2389  uint256 i */\n      0x00\n        /* \"Assignment5/q2.sol\":2375:2611  for (uint256 i = 0; i < proposals.length; i++) {... */\n    tag_74:\n        /* \"Assignment5/q2.sol\":2399:2408  proposals */\n      0x01\n        /* \"Assignment5/q2.sol\":2399:2415  proposals.length */\n      dup1\n      sload\n      swap1\n      pop\n        /* \"Assignment5/q2.sol\":2395:2396  i */\n      dup2\n        /* \"Assignment5/q2.sol\":2395:2415  i < proposals.length */\n      lt\n        /* \"Assignment5/q2.sol\":2375:2611  for (uint256 i = 0; i < proposals.length; i++) {... */\n      iszero\n      tag_75\n      jumpi\n        /* \"Assignment5/q2.sol\":2466:2482  winningVoteCount */\n      dup2\n        /* \"Assignment5/q2.sol\":2441:2450  proposals */\n      0x01\n        /* \"Assignment5/q2.sol\":2451:2452  i */\n      dup3\n        /* \"Assignment5/q2.sol\":2441:2453  proposals[i] */\n      dup2\n      sload\n      dup2\n      lt\n      tag_77\n      jumpi\n      tag_78\n      tag_55\n      jump\t// in\n    tag_78:\n    tag_77:\n      swap1\n      0x00\n      mstore\n      keccak256(0x00, 0x20)\n      swap1\n      0x02\n      mul\n      add\n        /* \"Assignment5/q2.sol\":2441:2463  proposals[i].voteCount */\n      0x01\n      add\n      sload\n        /* \"Assignment5/q2.sol\":2441:2482  proposals[i].voteCount > winningVoteCount */\n      gt\n        /* \"Assignment5/q2.sol\":2437:2600  if (proposals[i].voteCount > winningVoteCount) {... */\n      iszero\n      tag_80\n      jumpi\n        /* \"Assignment5/q2.sol\":2522:2531  proposals */\n      0x01\n        /* \"Assignment5/q2.sol\":2532:2533  i */\n      dup2\n        /* \"Assignment5/q2.sol\":2522:2534  proposals[i] */\n      dup2\n      sload\n      dup2\n      lt\n      tag_81\n      jumpi\n      tag_82\n      tag_55\n      jump\t// in\n    tag_82:\n    tag_81:\n      swap1\n      0x00\n      mstore\n      keccak256(0x00, 0x20)\n      swap1\n      0x02\n      mul\n      add\n        /* \"Assignment5/q2.sol\":2522:2544  proposals[i].voteCount */\n      0x01\n      add\n      sload\n        /* \"Assignment5/q2.sol\":2503:2544  winningVoteCount = proposals[i].voteCount */\n      swap2\n      pop\n        /* \"Assignment5/q2.sol\":2583:2584  i */\n      dup1\n        /* \"Assignment5/q2.sol\":2563:2584  winningProposalId = i */\n      swap3\n      pop\n        /* \"Assignment5/q2.sol\":2437:2600  if (proposals[i].voteCount > winningVoteCount) {... */\n    tag_80:\n        /* \"Assignment5/q2.sol\":2417:2420  i++ */\n      dup1\n      dup1\n      0x01\n      add\n      swap2\n      pop\n      pop\n        /* \"Assignment5/q2.sol\":2375:2611  for (uint256 i = 0; i < proposals.length; i++) {... */\n      jump(tag_74)\n    tag_75:\n      pop\n        /* \"Assignment5/q2.sol\":2152:2618  {... */\n      pop\n        /* \"Assignment5/q2.sol\":2072:2618  function getWinningProposal() external view returns (uint256 winningProposalId) {... */\n      swap1\n      jump\t// out\n        /* \"Assignment5/q2.sol\":574:944  function propose(string calldata _description) external {... */\n    tag_41:\n        /* \"Assignment5/q2.sol\":678:679  0 */\n      0x00\n        /* \"Assignment5/q2.sol\":655:667  _description */\n      dup3\n      dup3\n        /* \"Assignment5/q2.sol\":649:675  bytes(_description).length */\n      swap1\n      pop\n        /* \"Assignment5/q2.sol\":649:679  bytes(_description).length > 0 */\n      gt\n        /* \"Assignment5/q2.sol\":641:711  require(bytes(_description).length > 0, \"Description cannot be empty\") */\n      tag_85\n      jumpi\n      mload(0x40)\n      0x08c379a000000000000000000000000000000000000000000000000000000000\n      dup2\n      mstore\n      0x04\n      add\n      tag_86\n      swap1\n      tag_87\n      jump\t// in\n    tag_86:\n      mload(0x40)\n      dup1\n      swap2\n      sub\n      swap1\n      revert\n    tag_85:\n        /* \"Assignment5/q2.sol\":724:733  proposals */\n      0x01\n        /* \"Assignment5/q2.sol\":739:827  Proposal({... */\n      mload(0x40)\n      dup1\n      0x40\n      add\n      0x40\n      mstore\n      dup1\n        /* \"Assignment5/q2.sol\":776:788  _description */\n      dup5\n      dup5\n        /* \"Assignment5/q2.sol\":739:827  Proposal({... */\n      dup1\n      dup1\n      0x1f\n      add\n      0x20\n      dup1\n      swap2\n      div\n      mul\n      0x20\n      add\n      mload(0x40)\n      swap1\n      dup2\n      add\n      0x40\n      mstore\n      dup1\n      swap4\n      swap3\n      swap2\n      swap1\n      dup2\n      dup2\n      mstore\n      0x20\n      add\n      dup4\n      dup4\n      dup1\n      dup3\n      dup5\n      calldatacopy\n      0x00\n      dup2\n      dup5\n      add\n      mstore\n      not(0x1f)\n      0x1f\n      dup3\n      add\n      and\n      swap1\n      pop\n      dup1\n      dup4\n      add\n      swap3\n      pop\n      pop\n      pop\n      pop\n      pop\n      pop\n      pop\n      dup2\n      mstore\n      0x20\n      add\n        /* \"Assignment5/q2.sol\":814:815  0 */\n      0x00\n        /* \"Assignment5/q2.sol\":739:827  Proposal({... */\n      dup2\n      mstore\n      pop\n        /* \"Assignment5/q2.sol\":724:828  proposals.push(Proposal({... */\n      swap1\n      dup1\n      0x01\n      dup2\n      sload\n      add\n      dup1\n      dup3\n      sstore\n      dup1\n      swap2\n      pop\n      pop\n      0x01\n      swap1\n      sub\n      swap1\n      0x00\n      mstore\n      keccak256(0x00, 0x20)\n      swap1\n      0x02\n      mul\n      add\n      0x00\n      swap1\n      swap2\n      swap1\n      swap2\n      swap1\n      swap2\n      pop\n      0x00\n      dup3\n      add\n      mload\n      dup2\n      0x00\n      add\n      swap1\n      dup2\n      tag_89\n      swap2\n      swap1\n      tag_90\n      jump\t// in\n    tag_89:\n      pop\n      0x20\n      dup3\n      add\n      mload\n      dup2\n      0x01\n      add\n      sstore\n      pop\n      pop\n        /* \"Assignment5/q2.sol\":846:897  ProposalCreated(proposals.length - 1, _description) */\n      0x9c770c289ab5bf7e57cb1d23c8ceae993aea46eb64847072fd3d78ca60d3e432\n        /* \"Assignment5/q2.sol\":881:882  1 */\n      0x01\n        /* \"Assignment5/q2.sol\":862:871  proposals */\n      dup1\n        /* \"Assignment5/q2.sol\":862:878  proposals.length */\n      dup1\n      sload\n      swap1\n      pop\n        /* \"Assignment5/q2.sol\":862:882  proposals.length - 1 */\n      tag_91\n      swap2\n      swap1\n      tag_92\n      jump\t// in\n    tag_91:\n        /* \"Assignment5/q2.sol\":884:896  _description */\n      dup4\n      dup4\n        /* \"Assignment5/q2.sol\":846:897  ProposalCreated(proposals.length - 1, _description) */\n      mload(0x40)\n      tag_93\n      swap4\n      swap3\n      swap2\n      swap1\n      tag_94\n      jump\t// in\n    tag_93:\n      mload(0x40)\n      dup1\n      swap2\n      sub\n      swap1\n      log1\n        /* \"Assignment5/q2.sol\":574:944  function propose(string calldata _description) external {... */\n      pop\n      pop\n      jump\t// out\n        /* \"Assignment5/q2.sol\":1655:2019  function getProposal(uint256 _proposalId) external view returns (string memory description, uint256 voteCount) {... */\n    tag_44:\n        /* \"Assignment5/q2.sol\":1720:1745  string memory description */\n      0x60\n        /* \"Assignment5/q2.sol\":1747:1764  uint256 voteCount */\n      0x00\n        /* \"Assignment5/q2.sol\":1799:1808  proposals */\n      0x01\n        /* \"Assignment5/q2.sol\":1799:1815  proposals.length */\n      dup1\n      sload\n      swap1\n      pop\n        /* \"Assignment5/q2.sol\":1785:1796  _proposalId */\n      dup4\n        /* \"Assignment5/q2.sol\":1785:1815  _proposalId < proposals.length */\n      lt\n        /* \"Assignment5/q2.sol\":1777:1839  require(_proposalId < proposals.length, \"Invalid proposal ID\") */\n      tag_96\n      jumpi\n      mload(0x40)\n      0x08c379a000000000000000000000000000000000000000000000000000000000\n      dup2\n      mstore\n      0x04\n      add\n      tag_97\n      swap1\n      tag_49\n      jump\t// in\n    tag_97:\n      mload(0x40)\n      dup1\n      swap2\n      sub\n      swap1\n      revert\n    tag_96:\n        /* \"Assignment5/q2.sol\":1850:1875  Proposal storage proposal */\n      0x00\n        /* \"Assignment5/q2.sol\":1878:1887  proposals */\n      0x01\n        /* \"Assignment5/q2.sol\":1888:1899  _proposalId */\n      dup5\n        /* \"Assignment5/q2.sol\":1878:1900  proposals[_proposalId] */\n      dup2\n      sload\n      dup2\n      lt\n      tag_98\n      jumpi\n      tag_99\n      tag_55\n      jump\t// in\n    tag_99:\n    tag_98:\n      swap1\n      0x00\n      mstore\n      keccak256(0x00, 0x20)\n      swap1\n      0x02\n      mul\n      add\n        /* \"Assignment5/q2.sol\":1850:1900  Proposal storage proposal = proposals[_proposalId] */\n      swap1\n      pop\n        /* \"Assignment5/q2.sol\":1939:1947  proposal */\n      dup1\n        /* \"Assignment5/q2.sol\":1939:1959  proposal.description */\n      0x00\n      add\n        /* \"Assignment5/q2.sol\":1961:1969  proposal */\n      dup2\n        /* \"Assignment5/q2.sol\":1961:1979  proposal.voteCount */\n      0x01\n      add\n      sload\n        /* \"Assignment5/q2.sol\":1931:1980  return (proposal.description, proposal.voteCount) */\n      dup2\n      dup1\n      sload\n      tag_101\n      swap1\n      tag_64\n      jump\t// in\n    tag_101:\n      dup1\n      0x1f\n      add\n      0x20\n      dup1\n      swap2\n      div\n      mul\n      0x20\n      add\n      mload(0x40)\n      swap1\n      dup2\n      add\n      0x40\n      mstore\n      dup1\n      swap3\n      swap2\n      swap1\n      dup2\n      dup2\n      mstore\n      0x20\n      add\n      dup3\n      dup1\n      sload\n      tag_102\n      swap1\n      tag_64\n      jump\t// in\n    tag_102:\n      dup1\n      iszero\n      tag_103\n      jumpi\n      dup1\n      0x1f\n      lt\n      tag_104\n      jumpi\n      0x0100\n      dup1\n      dup4\n      sload\n      div\n      mul\n      dup4\n      mstore\n      swap2\n      0x20\n      add\n      swap2\n      jump(tag_103)\n    tag_104:\n      dup3\n      add\n      swap2\n      swap1\n      0x00\n      mstore\n      keccak256(0x00, 0x20)\n      swap1\n    tag_105:\n      dup2\n      sload\n      dup2\n      mstore\n      swap1\n      0x01\n      add\n      swap1\n      0x20\n      add\n      dup1\n      dup4\n      gt\n      tag_105\n      jumpi\n      dup3\n      swap1\n      sub\n      0x1f\n      and\n      dup3\n      add\n      swap2\n    tag_103:\n      pop\n      pop\n      pop\n      pop\n      pop\n      swap2\n      pop\n      swap3\n      pop\n      swap3\n      pop\n      pop\n        /* \"Assignment5/q2.sol\":1655:2019  function getProposal(uint256 _proposalId) external view returns (string memory description, uint256 voteCount) {... */\n      swap2\n      pop\n      swap2\n      jump\t// out\n        /* \"#utility.yul\":88:205   */\n    tag_107:\n        /* \"#utility.yul\":197:198   */\n      0x00\n        /* \"#utility.yul\":194:195   */\n      dup1\n        /* \"#utility.yul\":187:199   */\n      revert\n        /* \"#utility.yul\":211:328   */\n    tag_108:\n        /* \"#utility.yul\":320:321   */\n      0x00\n        /* \"#utility.yul\":317:318   */\n      dup1\n        /* \"#utility.yul\":310:322   */\n      revert\n        /* \"#utility.yul\":334:411   */\n    tag_109:\n        /* \"#utility.yul\":371:378   */\n      0x00\n        /* \"#utility.yul\":400:405   */\n      dup2\n        /* \"#utility.yul\":389:405   */\n      swap1\n      pop\n        /* \"#utility.yul\":334:411   */\n      swap2\n      swap1\n      pop\n      jump\t// out\n        /* \"#utility.yul\":417:539   */\n    tag_110:\n        /* \"#utility.yul\":490:514   */\n      tag_163\n        /* \"#utility.yul\":508:513   */\n      dup2\n        /* \"#utility.yul\":490:514   */\n      tag_109\n      jump\t// in\n    tag_163:\n        /* \"#utility.yul\":483:488   */\n      dup2\n        /* \"#utility.yul\":480:515   */\n      eq\n        /* \"#utility.yul\":470:533   */\n      tag_164\n      jumpi\n        /* \"#utility.yul\":529:530   */\n      0x00\n        /* \"#utility.yul\":526:527   */\n      dup1\n        /* \"#utility.yul\":519:531   */\n      revert\n        /* \"#utility.yul\":470:533   */\n    tag_164:\n        /* \"#utility.yul\":417:539   */\n      pop\n      jump\t// out\n        /* \"#utility.yul\":545:684   */\n    tag_111:\n        /* \"#utility.yul\":591:596   */\n      0x00\n        /* \"#utility.yul\":629:635   */\n      dup2\n        /* \"#utility.yul\":616:636   */\n      calldataload\n        /* \"#utility.yul\":607:636   */\n      swap1\n      pop\n        /* \"#utility.yul\":645:678   */\n      tag_166\n        /* \"#utility.yul\":672:677   */\n      dup2\n        /* \"#utility.yul\":645:678   */\n      tag_110\n      jump\t// in\n    tag_166:\n        /* \"#utility.yul\":545:684   */\n      swap3\n      swap2\n      pop\n      pop\n      jump\t// out\n        /* \"#utility.yul\":690:1019   */\n    tag_14:\n        /* \"#utility.yul\":749:755   */\n      0x00\n        /* \"#utility.yul\":798:800   */\n      0x20\n        /* \"#utility.yul\":786:795   */\n      dup3\n        /* \"#utility.yul\":777:784   */\n      dup5\n        /* \"#utility.yul\":773:796   */\n      sub\n        /* \"#utility.yul\":769:801   */\n      slt\n        /* \"#utility.yul\":766:885   */\n      iszero\n      tag_168\n      jumpi\n        /* \"#utility.yul\":804:883   */\n      tag_169\n      tag_107\n      jump\t// in\n    tag_169:\n        /* \"#utility.yul\":766:885   */\n    tag_168:\n        /* \"#utility.yul\":924:925   */\n      0x00\n        /* \"#utility.yul\":949:1002   */\n      tag_170\n        /* \"#utility.yul\":994:1001   */\n      dup5\n        /* \"#utility.yul\":985:991   */\n      dup3\n        /* \"#utility.yul\":974:983   */\n      dup6\n        /* \"#utility.yul\":970:992   */\n      add\n        /* \"#utility.yul\":949:1002   */\n      tag_111\n      jump\t// in\n    tag_170:\n        /* \"#utility.yul\":939:1002   */\n      swap2\n      pop\n        /* \"#utility.yul\":895:1012   */\n      pop\n        /* \"#utility.yul\":690:1019   */\n      swap3\n      swap2\n      pop\n      pop\n      jump\t// out\n        /* \"#utility.yul\":1025:1124   */\n    tag_112:\n        /* \"#utility.yul\":1077:1083   */\n      0x00\n        /* \"#utility.yul\":1111:1116   */\n      dup2\n        /* \"#utility.yul\":1105:1117   */\n      mload\n        /* \"#utility.yul\":1095:1117   */\n      swap1\n      pop\n        /* \"#utility.yul\":1025:1124   */\n      swap2\n      swap1\n      pop\n      jump\t// out\n        /* \"#utility.yul\":1130:1299   */\n    tag_113:\n        /* \"#utility.yul\":1214:1225   */\n      0x00\n        /* \"#utility.yul\":1248:1254   */\n      dup3\n        /* \"#utility.yul\":1243:1246   */\n      dup3\n        /* \"#utility.yul\":1236:1255   */\n      mstore\n        /* \"#utility.yul\":1288:1292   */\n      0x20\n        /* \"#utility.yul\":1283:1286   */\n      dup3\n        /* \"#utility.yul\":1279:1293   */\n      add\n        /* \"#utility.yul\":1264:1293   */\n      swap1\n      pop\n        /* \"#utility.yul\":1130:1299   */\n      swap3\n      swap2\n      pop\n      pop\n      jump\t// out\n        /* \"#utility.yul\":1305:1444   */\n    tag_114:\n        /* \"#utility.yul\":1394:1400   */\n      dup3\n        /* \"#utility.yul\":1389:1392   */\n      dup2\n        /* \"#utility.yul\":1384:1387   */\n      dup4\n        /* \"#utility.yul\":1378:1401   */\n      mcopy\n        /* \"#utility.yul\":1435:1436   */\n      0x00\n        /* \"#utility.yul\":1426:1432   */\n      dup4\n        /* \"#utility.yul\":1421:1424   */\n      dup4\n        /* \"#utility.yul\":1417:1433   */\n      add\n        /* \"#utility.yul\":1410:1437   */\n      mstore\n        /* \"#utility.yul\":1305:1444   */\n      pop\n      pop\n      pop\n      jump\t// out\n        /* \"#utility.yul\":1450:1552   */\n    tag_115:\n        /* \"#utility.yul\":1491:1497   */\n      0x00\n        /* \"#utility.yul\":1542:1544   */\n      0x1f\n        /* \"#utility.yul\":1538:1545   */\n      not\n        /* \"#utility.yul\":1533:1535   */\n      0x1f\n        /* \"#utility.yul\":1526:1531   */\n      dup4\n        /* \"#utility.yul\":1522:1536   */\n      add\n        /* \"#utility.yul\":1518:1546   */\n      and\n        /* \"#utility.yul\":1508:1546   */\n      swap1\n      pop\n        /* \"#utility.yul\":1450:1552   */\n      swap2\n      swap1\n      pop\n      jump\t// out\n        /* \"#utility.yul\":1558:1935   */\n    tag_116:\n        /* \"#utility.yul\":1646:1649   */\n      0x00\n        /* \"#utility.yul\":1674:1713   */\n      tag_176\n        /* \"#utility.yul\":1707:1712   */\n      dup3\n        /* \"#utility.yul\":1674:1713   */\n      tag_112\n      jump\t// in\n    tag_176:\n        /* \"#utility.yul\":1729:1800   */\n      tag_177\n        /* \"#utility.yul\":1793:1799   */\n      dup2\n        /* \"#utility.yul\":1788:1791   */\n      dup6\n        /* \"#utility.yul\":1729:1800   */\n      tag_113\n      jump\t// in\n    tag_177:\n        /* \"#utility.yul\":1722:1800   */\n      swap4\n      pop\n        /* \"#utility.yul\":1809:1874   */\n      tag_178\n        /* \"#utility.yul\":1867:1873   */\n      dup2\n        /* \"#utility.yul\":1862:1865   */\n      dup6\n        /* \"#utility.yul\":1855:1859   */\n      0x20\n        /* \"#utility.yul\":1848:1853   */\n      dup7\n        /* \"#utility.yul\":1844:1860   */\n      add\n        /* \"#utility.yul\":1809:1874   */\n      tag_114\n      jump\t// in\n    tag_178:\n        /* \"#utility.yul\":1899:1928   */\n      tag_179\n        /* \"#utility.yul\":1921:1927   */\n      dup2\n        /* \"#utility.yul\":1899:1928   */\n      tag_115\n      jump\t// in\n    tag_179:\n        /* \"#utility.yul\":1894:1897   */\n      dup5\n        /* \"#utility.yul\":1890:1929   */\n      add\n        /* \"#utility.yul\":1883:1929   */\n      swap2\n      pop\n        /* \"#utility.yul\":1650:1935   */\n      pop\n        /* \"#utility.yul\":1558:1935   */\n      swap3\n      swap2\n      pop\n      pop\n      jump\t// out\n        /* \"#utility.yul\":1941:2059   */\n    tag_117:\n        /* \"#utility.yul\":2028:2052   */\n      tag_181\n        /* \"#utility.yul\":2046:2051   */\n      dup2\n        /* \"#utility.yul\":2028:2052   */\n      tag_109\n      jump\t// in\n    tag_181:\n        /* \"#utility.yul\":2023:2026   */\n      dup3\n        /* \"#utility.yul\":2016:2053   */\n      mstore\n        /* \"#utility.yul\":1941:2059   */\n      pop\n      pop\n      jump\t// out\n        /* \"#utility.yul\":2065:2488   */\n    tag_20:\n        /* \"#utility.yul\":2206:2210   */\n      0x00\n        /* \"#utility.yul\":2244:2246   */\n      0x40\n        /* \"#utility.yul\":2233:2242   */\n      dup3\n        /* \"#utility.yul\":2229:2247   */\n      add\n        /* \"#utility.yul\":2221:2247   */\n      swap1\n      pop\n        /* \"#utility.yul\":2293:2302   */\n      dup2\n        /* \"#utility.yul\":2287:2291   */\n      dup2\n        /* \"#utility.yul\":2283:2303   */\n      sub\n        /* \"#utility.yul\":2279:2280   */\n      0x00\n        /* \"#utility.yul\":2268:2277   */\n      dup4\n        /* \"#utility.yul\":2264:2281   */\n      add\n        /* \"#utility.yul\":2257:2304   */\n      mstore\n        /* \"#utility.yul\":2321:2399   */\n      tag_183\n        /* \"#utility.yul\":2394:2398   */\n      dup2\n        /* \"#utility.yul\":2385:2391   */\n      dup6\n        /* \"#utility.yul\":2321:2399   */\n      tag_116\n      jump\t// in\n    tag_183:\n        /* \"#utility.yul\":2313:2399   */\n      swap1\n      pop\n        /* \"#utility.yul\":2409:2481   */\n      tag_184\n        /* \"#utility.yul\":2477:2479   */\n      0x20\n        /* \"#utility.yul\":2466:2475   */\n      dup4\n        /* \"#utility.yul\":2462:2480   */\n      add\n        /* \"#utility.yul\":2453:2459   */\n      dup5\n        /* \"#utility.yul\":2409:2481   */\n      tag_117\n      jump\t// in\n    tag_184:\n        /* \"#utility.yul\":2065:2488   */\n      swap4\n      swap3\n      pop\n      pop\n      pop\n      jump\t// out\n        /* \"#utility.yul\":2494:2620   */\n    tag_118:\n        /* \"#utility.yul\":2531:2538   */\n      0x00\n        /* \"#utility.yul\":2571:2613   */\n      0xffffffffffffffffffffffffffffffffffffffff\n        /* \"#utility.yul\":2564:2569   */\n      dup3\n        /* \"#utility.yul\":2560:2614   */\n      and\n        /* \"#utility.yul\":2549:2614   */\n      swap1\n      pop\n        /* \"#utility.yul\":2494:2620   */\n      swap2\n      swap1\n      pop\n      jump\t// out\n        /* \"#utility.yul\":2626:2722   */\n    tag_119:\n        /* \"#utility.yul\":2663:2670   */\n      0x00\n        /* \"#utility.yul\":2692:2716   */\n      tag_187\n        /* \"#utility.yul\":2710:2715   */\n      dup3\n        /* \"#utility.yul\":2692:2716   */\n      tag_118\n      jump\t// in\n    tag_187:\n        /* \"#utility.yul\":2681:2716   */\n      swap1\n      pop\n        /* \"#utility.yul\":2626:2722   */\n      swap2\n      swap1\n      pop\n      jump\t// out\n        /* \"#utility.yul\":2728:2850   */\n    tag_120:\n        /* \"#utility.yul\":2801:2825   */\n      tag_189\n        /* \"#utility.yul\":2819:2824   */\n      dup2\n        /* \"#utility.yul\":2801:2825   */\n      tag_119\n      jump\t// in\n    tag_189:\n        /* \"#utility.yul\":2794:2799   */\n      dup2\n        /* \"#utility.yul\":2791:2826   */\n      eq\n        /* \"#utility.yul\":2781:2844   */\n      tag_190\n      jumpi\n        /* \"#utility.yul\":2840:2841   */\n      0x00\n        /* \"#utility.yul\":2837:2838   */\n      dup1\n        /* \"#utility.yul\":2830:2842   */\n      revert\n        /* \"#utility.yul\":2781:2844   */\n    tag_190:\n        /* \"#utility.yul\":2728:2850   */\n      pop\n      jump\t// out\n        /* \"#utility.yul\":2856:2995   */\n    tag_121:\n        /* \"#utility.yul\":2902:2907   */\n      0x00\n        /* \"#utility.yul\":2940:2946   */\n      dup2\n        /* \"#utility.yul\":2927:2947   */\n      calldataload\n        /* \"#utility.yul\":2918:2947   */\n      swap1\n      pop\n        /* \"#utility.yul\":2956:2989   */\n      tag_192\n        /* \"#utility.yul\":2983:2988   */\n      dup2\n        /* \"#utility.yul\":2956:2989   */\n      tag_120\n      jump\t// in\n    tag_192:\n        /* \"#utility.yul\":2856:2995   */\n      swap3\n      swap2\n      pop\n      pop\n      jump\t// out\n        /* \"#utility.yul\":3001:3475   */\n    tag_23:\n        /* \"#utility.yul\":3069:3075   */\n      0x00\n        /* \"#utility.yul\":3077:3083   */\n      dup1\n        /* \"#utility.yul\":3126:3128   */\n      0x40\n        /* \"#utility.yul\":3114:3123   */\n      dup4\n        /* \"#utility.yul\":3105:3112   */\n      dup6\n        /* \"#utility.yul\":3101:3124   */\n      sub\n        /* \"#utility.yul\":3097:3129   */\n      slt\n        /* \"#utility.yul\":3094:3213   */\n      iszero\n      tag_194\n      jumpi\n        /* \"#utility.yul\":3132:3211   */\n      tag_195\n      tag_107\n      jump\t// in\n    tag_195:\n        /* \"#utility.yul\":3094:3213   */\n    tag_194:\n        /* \"#utility.yul\":3252:3253   */\n      0x00\n        /* \"#utility.yul\":3277:3330   */\n      tag_196\n        /* \"#utility.yul\":3322:3329   */\n      dup6\n        /* \"#utility.yul\":3313:3319   */\n      dup3\n        /* \"#utility.yul\":3302:3311   */\n      dup7\n        /* \"#utility.yul\":3298:3320   */\n      add\n        /* \"#utility.yul\":3277:3330   */\n      tag_111\n      jump\t// in\n    tag_196:\n        /* \"#utility.yul\":3267:3330   */\n      swap3\n      pop\n        /* \"#utility.yul\":3223:3340   */\n      pop\n        /* \"#utility.yul\":3379:3381   */\n      0x20\n        /* \"#utility.yul\":3405:3458   */\n      tag_197\n        /* \"#utility.yul\":3450:3457   */\n      dup6\n        /* \"#utility.yul\":3441:3447   */\n      dup3\n        /* \"#utility.yul\":3430:3439   */\n      dup7\n        /* \"#utility.yul\":3426:3448   */\n      add\n        /* \"#utility.yul\":3405:3458   */\n      tag_121\n      jump\t// in\n    tag_197:\n        /* \"#utility.yul\":3395:3458   */\n      swap2\n      pop\n        /* \"#utility.yul\":3350:3468   */\n      pop\n        /* \"#utility.yul\":3001:3475   */\n      swap3\n      pop\n      swap3\n      swap1\n      pop\n      jump\t// out\n        /* \"#utility.yul\":3481:3571   */\n    tag_122:\n        /* \"#utility.yul\":3515:3522   */\n      0x00\n        /* \"#utility.yul\":3558:3563   */\n      dup2\n        /* \"#utility.yul\":3551:3564   */\n      iszero\n        /* \"#utility.yul\":3544:3565   */\n      iszero\n        /* \"#utility.yul\":3533:3565   */\n      swap1\n      pop\n        /* \"#utility.yul\":3481:3571   */\n      swap2\n      swap1\n      pop\n      jump\t// out\n        /* \"#utility.yul\":3577:3686   */\n    tag_123:\n        /* \"#utility.yul\":3658:3679   */\n      tag_200\n        /* \"#utility.yul\":3673:3678   */\n      dup2\n        /* \"#utility.yul\":3658:3679   */\n      tag_122\n      jump\t// in\n    tag_200:\n        /* \"#utility.yul\":3653:3656   */\n      dup3\n        /* \"#utility.yul\":3646:3680   */\n      mstore\n        /* \"#utility.yul\":3577:3686   */\n      pop\n      pop\n      jump\t// out\n        /* \"#utility.yul\":3692:3902   */\n    tag_26:\n        /* \"#utility.yul\":3779:3783   */\n      0x00\n        /* \"#utility.yul\":3817:3819   */\n      0x20\n        /* \"#utility.yul\":3806:3815   */\n      dup3\n        /* \"#utility.yul\":3802:3820   */\n      add\n        /* \"#utility.yul\":3794:3820   */\n      swap1\n      pop\n        /* \"#utility.yul\":3830:3895   */\n      tag_202\n        /* \"#utility.yul\":3892:3893   */\n      0x00\n        /* \"#utility.yul\":3881:3890   */\n      dup4\n        /* \"#utility.yul\":3877:3894   */\n      add\n        /* \"#utility.yul\":3868:3874   */\n      dup5\n        /* \"#utility.yul\":3830:3895   */\n      tag_123\n      jump\t// in\n    tag_202:\n        /* \"#utility.yul\":3692:3902   */\n      swap3\n      swap2\n      pop\n      pop\n      jump\t// out\n        /* \"#utility.yul\":3908:4026   */\n    tag_124:\n        /* \"#utility.yul\":3995:4019   */\n      tag_204\n        /* \"#utility.yul\":4013:4018   */\n      dup2\n        /* \"#utility.yul\":3995:4019   */\n      tag_119\n      jump\t// in\n    tag_204:\n        /* \"#utility.yul\":3990:3993   */\n      dup3\n        /* \"#utility.yul\":3983:4020   */\n      mstore\n        /* \"#utility.yul\":3908:4026   */\n      pop\n      pop\n      jump\t// out\n        /* \"#utility.yul\":4032:4254   */\n    tag_30:\n        /* \"#utility.yul\":4125:4129   */\n      0x00\n        /* \"#utility.yul\":4163:4165   */\n      0x20\n        /* \"#utility.yul\":4152:4161   */\n      dup3\n        /* \"#utility.yul\":4148:4166   */\n      add\n        /* \"#utility.yul\":4140:4166   */\n      swap1\n      pop\n        /* \"#utility.yul\":4176:4247   */\n      tag_206\n        /* \"#utility.yul\":4244:4245   */\n      0x00\n        /* \"#utility.yul\":4233:4242   */\n      dup4\n        /* \"#utility.yul\":4229:4246   */\n      add\n        /* \"#utility.yul\":4220:4226   */\n      dup5\n        /* \"#utility.yul\":4176:4247   */\n      tag_124\n      jump\t// in\n    tag_206:\n        /* \"#utility.yul\":4032:4254   */\n      swap3\n      swap2\n      pop\n      pop\n      jump\t// out\n        /* \"#utility.yul\":4260:4482   */\n    tag_34:\n        /* \"#utility.yul\":4353:4357   */\n      0x00\n        /* \"#utility.yul\":4391:4393   */\n      0x20\n        /* \"#utility.yul\":4380:4389   */\n      dup3\n        /* \"#utility.yul\":4376:4394   */\n      add\n        /* \"#utility.yul\":4368:4394   */\n      swap1\n      pop\n        /* \"#utility.yul\":4404:4475   */\n      tag_208\n        /* \"#utility.yul\":4472:4473   */\n      0x00\n        /* \"#utility.yul\":4461:4470   */\n      dup4\n        /* \"#utility.yul\":4457:4474   */\n      add\n        /* \"#utility.yul\":4448:4454   */\n      dup5\n        /* \"#utility.yul\":4404:4475   */\n      tag_117\n      jump\t// in\n    tag_208:\n        /* \"#utility.yul\":4260:4482   */\n      swap3\n      swap2\n      pop\n      pop\n      jump\t// out\n        /* \"#utility.yul\":4488:4605   */\n    tag_125:\n        /* \"#utility.yul\":4597:4598   */\n      0x00\n        /* \"#utility.yul\":4594:4595   */\n      dup1\n        /* \"#utility.yul\":4587:4599   */\n      revert\n        /* \"#utility.yul\":4611:4728   */\n    tag_126:\n        /* \"#utility.yul\":4720:4721   */\n      0x00\n        /* \"#utility.yul\":4717:4718   */\n      dup1\n        /* \"#utility.yul\":4710:4722   */\n      revert\n        /* \"#utility.yul\":4734:4851   */\n    tag_127:\n        /* \"#utility.yul\":4843:4844   */\n      0x00\n        /* \"#utility.yul\":4840:4841   */\n      dup1\n        /* \"#utility.yul\":4833:4845   */\n      revert\n        /* \"#utility.yul\":4871:5424   */\n    tag_128:\n        /* \"#utility.yul\":4929:4937   */\n      0x00\n        /* \"#utility.yul\":4939:4945   */\n      dup1\n        /* \"#utility.yul\":4989:4992   */\n      dup4\n        /* \"#utility.yul\":4982:4986   */\n      0x1f\n        /* \"#utility.yul\":4974:4980   */\n      dup5\n        /* \"#utility.yul\":4970:4987   */\n      add\n        /* \"#utility.yul\":4966:4993   */\n      slt\n        /* \"#utility.yul\":4956:5078   */\n      tag_213\n      jumpi\n        /* \"#utility.yul\":4997:5076   */\n      tag_214\n      tag_125\n      jump\t// in\n    tag_214:\n        /* \"#utility.yul\":4956:5078   */\n    tag_213:\n        /* \"#utility.yul\":5110:5116   */\n      dup3\n        /* \"#utility.yul\":5097:5117   */\n      calldataload\n        /* \"#utility.yul\":5087:5117   */\n      swap1\n      pop\n        /* \"#utility.yul\":5140:5158   */\n      0xffffffffffffffff\n        /* \"#utility.yul\":5132:5138   */\n      dup2\n        /* \"#utility.yul\":5129:5159   */\n      gt\n        /* \"#utility.yul\":5126:5243   */\n      iszero\n      tag_215\n      jumpi\n        /* \"#utility.yul\":5162:5241   */\n      tag_216\n      tag_126\n      jump\t// in\n    tag_216:\n        /* \"#utility.yul\":5126:5243   */\n    tag_215:\n        /* \"#utility.yul\":5276:5280   */\n      0x20\n        /* \"#utility.yul\":5268:5274   */\n      dup4\n        /* \"#utility.yul\":5264:5281   */\n      add\n        /* \"#utility.yul\":5252:5281   */\n      swap2\n      pop\n        /* \"#utility.yul\":5330:5333   */\n      dup4\n        /* \"#utility.yul\":5322:5326   */\n      0x01\n        /* \"#utility.yul\":5314:5320   */\n      dup3\n        /* \"#utility.yul\":5310:5327   */\n      mul\n        /* \"#utility.yul\":5300:5308   */\n      dup4\n        /* \"#utility.yul\":5296:5328   */\n      add\n        /* \"#utility.yul\":5293:5334   */\n      gt\n        /* \"#utility.yul\":5290:5418   */\n      iszero\n      tag_217\n      jumpi\n        /* \"#utility.yul\":5337:5416   */\n      tag_218\n      tag_127\n      jump\t// in\n    tag_218:\n        /* \"#utility.yul\":5290:5418   */\n    tag_217:\n        /* \"#utility.yul\":4871:5424   */\n      swap3\n      pop\n      swap3\n      swap1\n      pop\n      jump\t// out\n        /* \"#utility.yul\":5430:5959   */\n    tag_40:\n        /* \"#utility.yul\":5501:5507   */\n      0x00\n        /* \"#utility.yul\":5509:5515   */\n      dup1\n        /* \"#utility.yul\":5558:5560   */\n      0x20\n        /* \"#utility.yul\":5546:5555   */\n      dup4\n        /* \"#utility.yul\":5537:5544   */\n      dup6\n        /* \"#utility.yul\":5533:5556   */\n      sub\n        /* \"#utility.yul\":5529:5561   */\n      slt\n        /* \"#utility.yul\":5526:5645   */\n      iszero\n      tag_220\n      jumpi\n        /* \"#utility.yul\":5564:5643   */\n      tag_221\n      tag_107\n      jump\t// in\n    tag_221:\n        /* \"#utility.yul\":5526:5645   */\n    tag_220:\n        /* \"#utility.yul\":5712:5713   */\n      0x00\n        /* \"#utility.yul\":5701:5710   */\n      dup4\n        /* \"#utility.yul\":5697:5714   */\n      add\n        /* \"#utility.yul\":5684:5715   */\n      calldataload\n        /* \"#utility.yul\":5742:5760   */\n      0xffffffffffffffff\n        /* \"#utility.yul\":5734:5740   */\n      dup2\n        /* \"#utility.yul\":5731:5761   */\n      gt\n        /* \"#utility.yul\":5728:5845   */\n      iszero\n      tag_222\n      jumpi\n        /* \"#utility.yul\":5764:5843   */\n      tag_223\n      tag_108\n      jump\t// in\n    tag_223:\n        /* \"#utility.yul\":5728:5845   */\n    tag_222:\n        /* \"#utility.yul\":5877:5942   */\n      tag_224\n        /* \"#utility.yul\":5934:5941   */\n      dup6\n        /* \"#utility.yul\":5925:5931   */\n      dup3\n        /* \"#utility.yul\":5914:5923   */\n      dup7\n        /* \"#utility.yul\":5910:5932   */\n      add\n        /* \"#utility.yul\":5877:5942   */\n      tag_128\n      jump\t// in\n    tag_224:\n        /* \"#utility.yul\":5859:5942   */\n      swap3\n      pop\n      swap3\n      pop\n        /* \"#utility.yul\":5655:5952   */\n      pop\n        /* \"#utility.yul\":5430:5959   */\n      swap3\n      pop\n      swap3\n      swap1\n      pop\n      jump\t// out\n        /* \"#utility.yul\":5965:6134   */\n    tag_129:\n        /* \"#utility.yul\":6105:6126   */\n      0x496e76616c69642070726f706f73616c20494400000000000000000000000000\n        /* \"#utility.yul\":6101:6102   */\n      0x00\n        /* \"#utility.yul\":6093:6099   */\n      dup3\n        /* \"#utility.yul\":6089:6103   */\n      add\n        /* \"#utility.yul\":6082:6127   */\n      mstore\n        /* \"#utility.yul\":5965:6134   */\n      pop\n      jump\t// out\n        /* \"#utility.yul\":6140:6506   */\n    tag_130:\n        /* \"#utility.yul\":6282:6285   */\n      0x00\n        /* \"#utility.yul\":6303:6370   */\n      tag_227\n        /* \"#utility.yul\":6367:6369   */\n      0x13\n        /* \"#utility.yul\":6362:6365   */\n      dup4\n        /* \"#utility.yul\":6303:6370   */\n      tag_113\n      jump\t// in\n    tag_227:\n        /* \"#utility.yul\":6296:6370   */\n      swap2\n      pop\n        /* \"#utility.yul\":6379:6472   */\n      tag_228\n        /* \"#utility.yul\":6468:6471   */\n      dup3\n        /* \"#utility.yul\":6379:6472   */\n      tag_129\n      jump\t// in\n    tag_228:\n        /* \"#utility.yul\":6497:6499   */\n      0x20\n        /* \"#utility.yul\":6492:6495   */\n      dup3\n        /* \"#utility.yul\":6488:6500   */\n      add\n        /* \"#utility.yul\":6481:6500   */\n      swap1\n      pop\n        /* \"#utility.yul\":6140:6506   */\n      swap2\n      swap1\n      pop\n      jump\t// out\n        /* \"#utility.yul\":6512:6931   */\n    tag_49:\n        /* \"#utility.yul\":6678:6682   */\n      0x00\n        /* \"#utility.yul\":6716:6718   */\n      0x20\n        /* \"#utility.yul\":6705:6714   */\n      dup3\n        /* \"#utility.yul\":6701:6719   */\n      add\n        /* \"#utility.yul\":6693:6719   */\n      swap1\n      pop\n        /* \"#utility.yul\":6765:6774   */\n      dup2\n        /* \"#utility.yul\":6759:6763   */\n      dup2\n        /* \"#utility.yul\":6755:6775   */\n      sub\n        /* \"#utility.yul\":6751:6752   */\n      0x00\n        /* \"#utility.yul\":6740:6749   */\n      dup4\n        /* \"#utility.yul\":6736:6753   */\n      add\n        /* \"#utility.yul\":6729:6776   */\n      mstore\n        /* \"#utility.yul\":6793:6924   */\n      tag_230\n        /* \"#utility.yul\":6919:6923   */\n      dup2\n        /* \"#utility.yul\":6793:6924   */\n      tag_130\n      jump\t// in\n    tag_230:\n        /* \"#utility.yul\":6785:6924   */\n      swap1\n      pop\n        /* \"#utility.yul\":6512:6931   */\n      swap2\n      swap1\n      pop\n      jump\t// out\n        /* \"#utility.yul\":6937:7167   */\n    tag_131:\n        /* \"#utility.yul\":7077:7111   */\n      0x416464726573732068617320616c726561647920766f74656420666f72207468\n        /* \"#utility.yul\":7073:7074   */\n      0x00\n        /* \"#utility.yul\":7065:7071   */\n      dup3\n        /* \"#utility.yul\":7061:7075   */\n      add\n        /* \"#utility.yul\":7054:7112   */\n      mstore\n        /* \"#utility.yul\":7146:7159   */\n      0x69732070726f706f73616c000000000000000000000000000000000000000000\n        /* \"#utility.yul\":7141:7143   */\n      0x20\n        /* \"#utility.yul\":7133:7139   */\n      dup3\n        /* \"#utility.yul\":7129:7144   */\n      add\n        /* \"#utility.yul\":7122:7160   */\n      mstore\n        /* \"#utility.yul\":6937:7167   */\n      pop\n      jump\t// out\n        /* \"#utility.yul\":7173:7539   */\n    tag_132:\n        /* \"#utility.yul\":7315:7318   */\n      0x00\n        /* \"#utility.yul\":7336:7403   */\n      tag_233\n        /* \"#utility.yul\":7400:7402   */\n      0x2b\n        /* \"#utility.yul\":7395:7398   */\n      dup4\n        /* \"#utility.yul\":7336:7403   */\n      tag_113\n      jump\t// in\n    tag_233:\n        /* \"#utility.yul\":7329:7403   */\n      swap2\n      pop\n        /* \"#utility.yul\":7412:7505   */\n      tag_234\n        /* \"#utility.yul\":7501:7504   */\n      dup3\n        /* \"#utility.yul\":7412:7505   */\n      tag_131\n      jump\t// in\n    tag_234:\n        /* \"#utility.yul\":7530:7532   */\n      0x40\n        /* \"#utility.yul\":7525:7528   */\n      dup3\n        /* \"#utility.yul\":7521:7533   */\n      add\n        /* \"#utility.yul\":7514:7533   */\n      swap1\n      pop\n        /* \"#utility.yul\":7173:7539   */\n      swap2\n      swap1\n      pop\n      jump\t// out\n        /* \"#utility.yul\":7545:7964   */\n    tag_52:\n        /* \"#utility.yul\":7711:7715   */\n      0x00\n        /* \"#utility.yul\":7749:7751   */\n      0x20\n        /* \"#utility.yul\":7738:7747   */\n      dup3\n        /* \"#utility.yul\":7734:7752   */\n      add\n        /* \"#utility.yul\":7726:7752   */\n      swap1\n      pop\n        /* \"#utility.yul\":7798:7807   */\n      dup2\n        /* \"#utility.yul\":7792:7796   */\n      dup2\n        /* \"#utility.yul\":7788:7808   */\n      sub\n        /* \"#utility.yul\":7784:7785   */\n      0x00\n        /* \"#utility.yul\":7773:7782   */\n      dup4\n        /* \"#utility.yul\":7769:7786   */\n      add\n        /* \"#utility.yul\":7762:7809   */\n      mstore\n        /* \"#utility.yul\":7826:7957   */\n      tag_236\n        /* \"#utility.yul\":7952:7956   */\n      dup2\n        /* \"#utility.yul\":7826:7957   */\n      tag_132\n      jump\t// in\n    tag_236:\n        /* \"#utility.yul\":7818:7957   */\n      swap1\n      pop\n        /* \"#utility.yul\":7545:7964   */\n      swap2\n      swap1\n      pop\n      jump\t// out\n        /* \"#utility.yul\":7970:8150   */\n    tag_55:\n        /* \"#utility.yul\":8018:8095   */\n      0x4e487b7100000000000000000000000000000000000000000000000000000000\n        /* \"#utility.yul\":8015:8016   */\n      0x00\n        /* \"#utility.yul\":8008:8096   */\n      mstore\n        /* \"#utility.yul\":8115:8119   */\n      0x32\n        /* \"#utility.yul\":8112:8113   */\n      0x04\n        /* \"#utility.yul\":8105:8120   */\n      mstore\n        /* \"#utility.yul\":8139:8143   */\n      0x24\n        /* \"#utility.yul\":8136:8137   */\n      0x00\n        /* \"#utility.yul\":8129:8144   */\n      revert\n        /* \"#utility.yul\":8156:8336   */\n    tag_133:\n        /* \"#utility.yul\":8204:8281   */\n      0x4e487b7100000000000000000000000000000000000000000000000000000000\n        /* \"#utility.yul\":8201:8202   */\n      0x00\n        /* \"#utility.yul\":8194:8282   */\n      mstore\n        /* \"#utility.yul\":8301:8305   */\n      0x11\n        /* \"#utility.yul\":8298:8299   */\n      0x04\n        /* \"#utility.yul\":8291:8306   */\n      mstore\n        /* \"#utility.yul\":8325:8329   */\n      0x24\n        /* \"#utility.yul\":8322:8323   */\n      0x00\n        /* \"#utility.yul\":8315:8330   */\n      revert\n        /* \"#utility.yul\":8342:8533   */\n    tag_58:\n        /* \"#utility.yul\":8382:8385   */\n      0x00\n        /* \"#utility.yul\":8401:8421   */\n      tag_240\n        /* \"#utility.yul\":8419:8420   */\n      dup3\n        /* \"#utility.yul\":8401:8421   */\n      tag_109\n      jump\t// in\n    tag_240:\n        /* \"#utility.yul\":8396:8421   */\n      swap2\n      pop\n        /* \"#utility.yul\":8435:8455   */\n      tag_241\n        /* \"#utility.yul\":8453:8454   */\n      dup4\n        /* \"#utility.yul\":8435:8455   */\n      tag_109\n      jump\t// in\n    tag_241:\n        /* \"#utility.yul\":8430:8455   */\n      swap3\n      pop\n        /* \"#utility.yul\":8478:8479   */\n      dup3\n        /* \"#utility.yul\":8475:8476   */\n      dup3\n        /* \"#utility.yul\":8471:8480   */\n      add\n        /* \"#utility.yul\":8464:8480   */\n      swap1\n      pop\n        /* \"#utility.yul\":8499:8502   */\n      dup1\n        /* \"#utility.yul\":8496:8497   */\n      dup3\n        /* \"#utility.yul\":8493:8503   */\n      gt\n        /* \"#utility.yul\":8490:8526   */\n      iszero\n      tag_242\n      jumpi\n        /* \"#utility.yul\":8506:8524   */\n      tag_243\n      tag_133\n      jump\t// in\n    tag_243:\n        /* \"#utility.yul\":8490:8526   */\n    tag_242:\n        /* \"#utility.yul\":8342:8533   */\n      swap3\n      swap2\n      pop\n      pop\n      jump\t// out\n        /* \"#utility.yul\":8539:8871   */\n    tag_60:\n        /* \"#utility.yul\":8660:8664   */\n      0x00\n        /* \"#utility.yul\":8698:8700   */\n      0x40\n        /* \"#utility.yul\":8687:8696   */\n      dup3\n        /* \"#utility.yul\":8683:8701   */\n      add\n        /* \"#utility.yul\":8675:8701   */\n      swap1\n      pop\n        /* \"#utility.yul\":8711:8782   */\n      tag_245\n        /* \"#utility.yul\":8779:8780   */\n      0x00\n        /* \"#utility.yul\":8768:8777   */\n      dup4\n        /* \"#utility.yul\":8764:8781   */\n      add\n        /* \"#utility.yul\":8755:8761   */\n      dup6\n        /* \"#utility.yul\":8711:8782   */\n      tag_117\n      jump\t// in\n    tag_245:\n        /* \"#utility.yul\":8792:8864   */\n      tag_246\n        /* \"#utility.yul\":8860:8862   */\n      0x20\n        /* \"#utility.yul\":8849:8858   */\n      dup4\n        /* \"#utility.yul\":8845:8863   */\n      add\n        /* \"#utility.yul\":8836:8842   */\n      dup5\n        /* \"#utility.yul\":8792:8864   */\n      tag_124\n      jump\t// in\n    tag_246:\n        /* \"#utility.yul\":8539:8871   */\n      swap4\n      swap3\n      pop\n      pop\n      pop\n      jump\t// out\n        /* \"#utility.yul\":8877:9057   */\n    tag_134:\n        /* \"#utility.yul\":8925:9002   */\n      0x4e487b7100000000000000000000000000000000000000000000000000000000\n        /* \"#utility.yul\":8922:8923   */\n      0x00\n        /* \"#utility.yul\":8915:9003   */\n      mstore\n        /* \"#utility.yul\":9022:9026   */\n      0x22\n        /* \"#utility.yul\":9019:9020   */\n      0x04\n        /* \"#utility.yul\":9012:9027   */\n      mstore\n        /* \"#utility.yul\":9046:9050   */\n      0x24\n        /* \"#utility.yul\":9043:9044   */\n      0x00\n        /* \"#utility.yul\":9036:9051   */\n      revert\n        /* \"#utility.yul\":9063:9383   */\n    tag_64:\n        /* \"#utility.yul\":9107:9113   */\n      0x00\n        /* \"#utility.yul\":9144:9145   */\n      0x02\n        /* \"#utility.yul\":9138:9142   */\n      dup3\n        /* \"#utility.yul\":9134:9146   */\n      div\n        /* \"#utility.yul\":9124:9146   */\n      swap1\n      pop\n        /* \"#utility.yul\":9191:9192   */\n      0x01\n        /* \"#utility.yul\":9185:9189   */\n      dup3\n        /* \"#utility.yul\":9181:9193   */\n      and\n        /* \"#utility.yul\":9212:9230   */\n      dup1\n        /* \"#utility.yul\":9202:9283   */\n      tag_249\n      jumpi\n        /* \"#utility.yul\":9268:9272   */\n      0x7f\n        /* \"#utility.yul\":9260:9266   */\n      dup3\n        /* \"#utility.yul\":9256:9273   */\n      and\n        /* \"#utility.yul\":9246:9273   */\n      swap2\n      pop\n        /* \"#utility.yul\":9202:9283   */\n    tag_249:\n        /* \"#utility.yul\":9330:9332   */\n      0x20\n        /* \"#utility.yul\":9322:9328   */\n      dup3\n        /* \"#utility.yul\":9319:9333   */\n      lt\n        /* \"#utility.yul\":9299:9317   */\n      dup2\n        /* \"#utility.yul\":9296:9334   */\n      sub\n        /* \"#utility.yul\":9293:9377   */\n      tag_250\n      jumpi\n        /* \"#utility.yul\":9349:9367   */\n      tag_251\n      tag_134\n      jump\t// in\n    tag_251:\n        /* \"#utility.yul\":9293:9377   */\n    tag_250:\n        /* \"#utility.yul\":9114:9383   */\n      pop\n        /* \"#utility.yul\":9063:9383   */\n      swap2\n      swap1\n      pop\n      jump\t// out\n        /* \"#utility.yul\":9389:9561   */\n    tag_135:\n        /* \"#utility.yul\":9529:9553   */\n      0x4e6f2070726f706f73616c7320617661696c61626c6500000000000000000000\n        /* \"#utility.yul\":9525:9526   */\n      0x00\n        /* \"#utility.yul\":9517:9523   */\n      dup3\n        /* \"#utility.yul\":9513:9527   */\n      add\n        /* \"#utility.yul\":9506:9554   */\n      mstore\n        /* \"#utility.yul\":9389:9561   */\n      pop\n      jump\t// out\n        /* \"#utility.yul\":9567:9933   */\n    tag_136:\n        /* \"#utility.yul\":9709:9712   */\n      0x00\n        /* \"#utility.yul\":9730:9797   */\n      tag_254\n        /* \"#utility.yul\":9794:9796   */\n      0x16\n        /* \"#utility.yul\":9789:9792   */\n      dup4\n        /* \"#utility.yul\":9730:9797   */\n      tag_113\n      jump\t// in\n    tag_254:\n        /* \"#utility.yul\":9723:9797   */\n      swap2\n      pop\n        /* \"#utility.yul\":9806:9899   */\n      tag_255\n        /* \"#utility.yul\":9895:9898   */\n      dup3\n        /* \"#utility.yul\":9806:9899   */\n      tag_135\n      jump\t// in\n    tag_255:\n        /* \"#utility.yul\":9924:9926   */\n      0x20\n        /* \"#utility.yul\":9919:9922   */\n      dup3\n        /* \"#utility.yul\":9915:9927   */\n      add\n        /* \"#utility.yul\":9908:9927   */\n      swap1\n      pop\n        /* \"#utility.yul\":9567:9933   */\n      swap2\n      swap1\n      pop\n      jump\t// out\n        /* \"#utility.yul\":9939:10358   */\n    tag_73:\n        /* \"#utility.yul\":10105:10109   */\n      0x00\n        /* \"#utility.yul\":10143:10145   */\n      0x20\n        /* \"#utility.yul\":10132:10141   */\n      dup3\n        /* \"#utility.yul\":10128:10146   */\n      add\n        /* \"#utility.yul\":10120:10146   */\n      swap1\n      pop\n        /* \"#utility.yul\":10192:10201   */\n      dup2\n        /* \"#utility.yul\":10186:10190   */\n      dup2\n        /* \"#utility.yul\":10182:10202   */\n      sub\n        /* \"#utility.yul\":10178:10179   */\n      0x00\n        /* \"#utility.yul\":10167:10176   */\n      dup4\n        /* \"#utility.yul\":10163:10180   */\n      add\n        /* \"#utility.yul\":10156:10203   */\n      mstore\n        /* \"#utility.yul\":10220:10351   */\n      tag_257\n        /* \"#utility.yul\":10346:10350   */\n      dup2\n        /* \"#utility.yul\":10220:10351   */\n      tag_136\n      jump\t// in\n    tag_257:\n        /* \"#utility.yul\":10212:10351   */\n      swap1\n      pop\n        /* \"#utility.yul\":9939:10358   */\n      swap2\n      swap1\n      pop\n      jump\t// out\n        /* \"#utility.yul\":10364:10541   */\n    tag_137:\n        /* \"#utility.yul\":10504:10533   */\n      0x4465736372697074696f6e2063616e6e6f7420626520656d7074790000000000\n        /* \"#utility.yul\":10500:10501   */\n      0x00\n        /* \"#utility.yul\":10492:10498   */\n      dup3\n        /* \"#utility.yul\":10488:10502   */\n      add\n        /* \"#utility.yul\":10481:10534   */\n      mstore\n        /* \"#utility.yul\":10364:10541   */\n      pop\n      jump\t// out\n        /* \"#utility.yul\":10547:10913   */\n    tag_138:\n        /* \"#utility.yul\":10689:10692   */\n      0x00\n        /* \"#utility.yul\":10710:10777   */\n      tag_260\n        /* \"#utility.yul\":10774:10776   */\n      0x1b\n        /* \"#utility.yul\":10769:10772   */\n      dup4\n        /* \"#utility.yul\":10710:10777   */\n      tag_113\n      jump\t// in\n    tag_260:\n        /* \"#utility.yul\":10703:10777   */\n      swap2\n      pop\n        /* \"#utility.yul\":10786:10879   */\n      tag_261\n        /* \"#utility.yul\":10875:10878   */\n      dup3\n        /* \"#utility.yul\":10786:10879   */\n      tag_137\n      jump\t// in\n    tag_261:\n        /* \"#utility.yul\":10904:10906   */\n      0x20\n        /* \"#utility.yul\":10899:10902   */\n      dup3\n        /* \"#utility.yul\":10895:10907   */\n      add\n        /* \"#utility.yul\":10888:10907   */\n      swap1\n      pop\n        /* \"#utility.yul\":10547:10913   */\n      swap2\n      swap1\n      pop\n      jump\t// out\n        /* \"#utility.yul\":10919:11338   */\n    tag_87:\n        /* \"#utility.yul\":11085:11089   */\n      0x00\n        /* \"#utility.yul\":11123:11125   */\n      0x20\n        /* \"#utility.yul\":11112:11121   */\n      dup3\n        /* \"#utility.yul\":11108:11126   */\n      add\n        /* \"#utility.yul\":11100:11126   */\n      swap1\n      pop\n        /* \"#utility.yul\":11172:11181   */\n      dup2\n        /* \"#utility.yul\":11166:11170   */\n      dup2\n        /* \"#utility.yul\":11162:11182   */\n      sub\n        /* \"#utility.yul\":11158:11159   */\n      0x00\n        /* \"#utility.yul\":11147:11156   */\n      dup4\n        /* \"#utility.yul\":11143:11160   */\n      add\n        /* \"#utility.yul\":11136:11183   */\n      mstore\n        /* \"#utility.yul\":11200:11331   */\n      tag_263\n        /* \"#utility.yul\":11326:11330   */\n      dup2\n        /* \"#utility.yul\":11200:11331   */\n      tag_138\n      jump\t// in\n    tag_263:\n        /* \"#utility.yul\":11192:11331   */\n      swap1\n      pop\n        /* \"#utility.yul\":10919:11338   */\n      swap2\n      swap1\n      pop\n      jump\t// out\n        /* \"#utility.yul\":11344:11524   */\n    tag_139:\n        /* \"#utility.yul\":11392:11469   */\n      0x4e487b7100000000000000000000000000000000000000000000000000000000\n        /* \"#utility.yul\":11389:11390   */\n      0x00\n        /* \"#utility.yul\":11382:11470   */\n      mstore\n        /* \"#utility.yul\":11489:11493   */\n      0x41\n        /* \"#utility.yul\":11486:11487   */\n      0x04\n        /* \"#utility.yul\":11479:11494   */\n      mstore\n        /* \"#utility.yul\":11513:11517   */\n      0x24\n        /* \"#utility.yul\":11510:11511   */\n      0x00\n        /* \"#utility.yul\":11503:11518   */\n      revert\n        /* \"#utility.yul\":11530:11671   */\n    tag_140:\n        /* \"#utility.yul\":11579:11583   */\n      0x00\n        /* \"#utility.yul\":11602:11605   */\n      dup2\n        /* \"#utility.yul\":11594:11605   */\n      swap1\n      pop\n        /* \"#utility.yul\":11625:11628   */\n      dup2\n        /* \"#utility.yul\":11622:11623   */\n      0x00\n        /* \"#utility.yul\":11615:11629   */\n      mstore\n        /* \"#utility.yul\":11659:11663   */\n      0x20\n        /* \"#utility.yul\":11656:11657   */\n      0x00\n        /* \"#utility.yul\":11646:11664   */\n      keccak256\n        /* \"#utility.yul\":11638:11664   */\n      swap1\n      pop\n        /* \"#utility.yul\":11530:11671   */\n      swap2\n      swap1\n      pop\n      jump\t// out\n        /* \"#utility.yul\":11677:11770   */\n    tag_141:\n        /* \"#utility.yul\":11714:11720   */\n      0x00\n        /* \"#utility.yul\":11761:11763   */\n      0x20\n        /* \"#utility.yul\":11756:11758   */\n      0x1f\n        /* \"#utility.yul\":11749:11754   */\n      dup4\n        /* \"#utility.yul\":11745:11759   */\n      add\n        /* \"#utility.yul\":11741:11764   */\n      div\n        /* \"#utility.yul\":11731:11764   */\n      swap1\n      pop\n        /* \"#utility.yul\":11677:11770   */\n      swap2\n      swap1\n      pop\n      jump\t// out\n        /* \"#utility.yul\":11776:11883   */\n    tag_142:\n        /* \"#utility.yul\":11820:11828   */\n      0x00\n        /* \"#utility.yul\":11870:11875   */\n      dup3\n        /* \"#utility.yul\":11864:11868   */\n      dup3\n        /* \"#utility.yul\":11860:11876   */\n      shl\n        /* \"#utility.yul\":11839:11876   */\n      swap1\n      pop\n        /* \"#utility.yul\":11776:11883   */\n      swap3\n      swap2\n      pop\n      pop\n      jump\t// out\n        /* \"#utility.yul\":11889:12282   */\n    tag_143:\n        /* \"#utility.yul\":11958:11964   */\n      0x00\n        /* \"#utility.yul\":12008:12009   */\n      0x08\n        /* \"#utility.yul\":11996:12006   */\n      dup4\n        /* \"#utility.yul\":11992:12010   */\n      mul\n        /* \"#utility.yul\":12031:12128   */\n      tag_269\n        /* \"#utility.yul\":12061:12127   */\n      0xffffffffffffffffffffffffffffffffffffffffffffffffffffffffffffffff\n        /* \"#utility.yul\":12050:12059   */\n      dup3\n        /* \"#utility.yul\":12031:12128   */\n      tag_142\n      jump\t// in\n    tag_269:\n        /* \"#utility.yul\":12149:12188   */\n      tag_270\n        /* \"#utility.yul\":12179:12187   */\n      dup7\n        /* \"#utility.yul\":12168:12177   */\n      dup4\n        /* \"#utility.yul\":12149:12188   */\n      tag_142\n      jump\t// in\n    tag_270:\n        /* \"#utility.yul\":12137:12188   */\n      swap6\n      pop\n        /* \"#utility.yul\":12221:12225   */\n      dup1\n        /* \"#utility.yul\":12217:12226   */\n      not\n        /* \"#utility.yul\":12210:12215   */\n      dup5\n        /* \"#utility.yul\":12206:12227   */\n      and\n        /* \"#utility.yul\":12197:12227   */\n      swap4\n      pop\n        /* \"#utility.yul\":12270:12274   */\n      dup1\n        /* \"#utility.yul\":12260:12268   */\n      dup7\n        /* \"#utility.yul\":12256:12275   */\n      and\n        /* \"#utility.yul\":12249:12254   */\n      dup5\n        /* \"#utility.yul\":12246:12276   */\n      or\n        /* \"#utility.yul\":12236:12276   */\n      swap3\n      pop\n        /* \"#utility.yul\":11965:12282   */\n      pop\n      pop\n        /* \"#utility.yul\":11889:12282   */\n      swap4\n      swap3\n      pop\n      pop\n      pop\n      jump\t// out\n        /* \"#utility.yul\":12288:12348   */\n    tag_144:\n        /* \"#utility.yul\":12316:12319   */\n      0x00\n        /* \"#utility.yul\":12337:12342   */\n      dup2\n        /* \"#utility.yul\":12330:12342   */\n      swap1\n      pop\n        /* \"#utility.yul\":12288:12348   */\n      swap2\n      swap1\n      pop\n      jump\t// out\n        /* \"#utility.yul\":12354:12496   */\n    tag_145:\n        /* \"#utility.yul\":12404:12413   */\n      0x00\n        /* \"#utility.yul\":12437:12490   */\n      tag_273\n        /* \"#utility.yul\":12455:12489   */\n      tag_274\n        /* \"#utility.yul\":12464:12488   */\n      tag_275\n        /* \"#utility.yul\":12482:12487   */\n      dup5\n        /* \"#utility.yul\":12464:12488   */\n      tag_109\n      jump\t// in\n    tag_275:\n        /* \"#utility.yul\":12455:12489   */\n      tag_144\n      jump\t// in\n    tag_274:\n        /* \"#utility.yul\":12437:12490   */\n      tag_109\n      jump\t// in\n    tag_273:\n        /* \"#utility.yul\":12424:12490   */\n      swap1\n      pop\n        /* \"#utility.yul\":12354:12496   */\n      swap2\n      swap1\n      pop\n      jump\t// out\n        /* \"#utility.yul\":12502:12577   */\n    tag_146:\n        /* \"#utility.yul\":12545:12548   */\n      0x00\n        /* \"#utility.yul\":12566:12571   */\n      dup2\n        /* \"#utility.yul\":12559:12571   */\n      swap1\n      pop\n        /* \"#utility.yul\":12502:12577   */\n      swap2\n      swap1\n      pop\n      jump\t// out\n        /* \"#utility.yul\":12583:12852   */\n    tag_147:\n        /* \"#utility.yul\":12693:12732   */\n      tag_278\n        /* \"#utility.yul\":12724:12731   */\n      dup4\n        /* \"#utility.yul\":12693:12732   */\n      tag_145\n      jump\t// in\n    tag_278:\n        /* \"#utility.yul\":12754:12845   */\n      tag_279\n        /* \"#utility.yul\":12803:12844   */\n      tag_280\n        /* \"#utility.yul\":12827:12843   */\n      dup3\n        /* \"#utility.yul\":12803:12844   */\n      tag_146\n      jump\t// in\n    tag_280:\n        /* \"#utility.yul\":12795:12801   */\n      dup5\n        /* \"#utility.yul\":12788:12792   */\n      dup5\n        /* \"#utility.yul\":12782:12793   */\n      sload\n        /* \"#utility.yul\":12754:12845   */\n      tag_143\n      jump\t// in\n    tag_279:\n        /* \"#utility.yul\":12748:12752   */\n      dup3\n        /* \"#utility.yul\":12741:12846   */\n      sstore\n        /* \"#utility.yul\":12659:12852   */\n      pop\n        /* \"#utility.yul\":12583:12852   */\n      pop\n      pop\n      pop\n      jump\t// out\n        /* \"#utility.yul\":12858:12931   */\n    tag_148:\n        /* \"#utility.yul\":12903:12906   */\n      0x00\n        /* \"#utility.yul\":12858:12931   */\n      swap1\n      jump\t// out\n        /* \"#utility.yul\":12937:13126   */\n    tag_149:\n        /* \"#utility.yul\":13014:13046   */\n      tag_283\n      tag_148\n      jump\t// in\n    tag_283:\n        /* \"#utility.yul\":13055:13120   */\n      tag_284\n        /* \"#utility.yul\":13113:13119   */\n      dup2\n        /* \"#utility.yul\":13105:13111   */\n      dup5\n        /* \"#utility.yul\":13099:13103   */\n      dup5\n        /* \"#utility.yul\":13055:13120   */\n      tag_147\n      jump\t// in\n    tag_284:\n        /* \"#utility.yul\":12990:13126   */\n      pop\n        /* \"#utility.yul\":12937:13126   */\n      pop\n      pop\n      jump\t// out\n        /* \"#utility.yul\":13132:13318   */\n    tag_150:\n        /* \"#utility.yul\":13192:13312   */\n    tag_286:\n        /* \"#utility.yul\":13209:13212   */\n      dup2\n        /* \"#utility.yul\":13202:13207   */\n      dup2\n        /* \"#utility.yul\":13199:13213   */\n      lt\n        /* \"#utility.yul\":13192:13312   */\n      iszero\n      tag_288\n      jumpi\n        /* \"#utility.yul\":13263:13302   */\n      tag_289\n        /* \"#utility.yul\":13300:13301   */\n      0x00\n        /* \"#utility.yul\":13293:13298   */\n      dup3\n        /* \"#utility.yul\":13263:13302   */\n      tag_149\n      jump\t// in\n    tag_289:\n        /* \"#utility.yul\":13236:13237   */\n      0x01\n        /* \"#utility.yul\":13229:13234   */\n      dup2\n        /* \"#utility.yul\":13225:13238   */\n      add\n        /* \"#utility.yul\":13216:13238   */\n      swap1\n      pop\n        /* \"#utility.yul\":13192:13312   */\n      jump(tag_286)\n    tag_288:\n        /* \"#utility.yul\":13132:13318   */\n      pop\n      pop\n      jump\t// out\n        /* \"#utility.yul\":13324:13867   */\n    tag_151:\n        /* \"#utility.yul\":13425:13427   */\n      0x1f\n        /* \"#utility.yul\":13420:13423   */\n      dup3\n        /* \"#utility.yul\":13417:13428   */\n      gt\n        /* \"#utility.yul\":13414:13860   */\n      iszero\n      tag_291\n      jumpi\n        /* \"#utility.yul\":13459:13497   */\n      tag_292\n        /* \"#utility.yul\":13491:13496   */\n      dup2\n        /* \"#utility.yul\":13459:13497   */\n      tag_140\n      jump\t// in\n    tag_292:\n        /* \"#utility.yul\":13543:13572   */\n      tag_293\n        /* \"#utility.yul\":13561:13571   */\n      dup5\n        /* \"#utility.yul\":13543:13572   */\n      tag_141\n      jump\t// in\n    tag_293:\n        /* \"#utility.yul\":13533:13541   */\n      dup2\n        /* \"#utility.yul\":13529:13573   */\n      add\n        /* \"#utility.yul\":13726:13728   */\n      0x20\n        /* \"#utility.yul\":13714:13724   */\n      dup6\n        /* \"#utility.yul\":13711:13729   */\n      lt\n        /* \"#utility.yul\":13708:13757   */\n      iszero\n      tag_294\n      jumpi\n        /* \"#utility.yul\":13747:13755   */\n      dup2\n        /* \"#utility.yul\":13732:13755   */\n      swap1\n      pop\n        /* \"#utility.yul\":13708:13757   */\n    tag_294:\n        /* \"#utility.yul\":13770:13850   */\n      tag_295\n        /* \"#utility.yul\":13826:13848   */\n      tag_296\n        /* \"#utility.yul\":13844:13847   */\n      dup6\n        /* \"#utility.yul\":13826:13848   */\n      tag_141\n      jump\t// in\n    tag_296:\n        /* \"#utility.yul\":13816:13824   */\n      dup4\n        /* \"#utility.yul\":13812:13849   */\n      add\n        /* \"#utility.yul\":13799:13810   */\n      dup3\n        /* \"#utility.yul\":13770:13850   */\n      tag_150\n      jump\t// in\n    tag_295:\n        /* \"#utility.yul\":13429:13860   */\n      pop\n      pop\n        /* \"#utility.yul\":13414:13860   */\n    tag_291:\n        /* \"#utility.yul\":13324:13867   */\n      pop\n      pop\n      pop\n      jump\t// out\n        /* \"#utility.yul\":13873:13990   */\n    tag_152:\n        /* \"#utility.yul\":13927:13935   */\n      0x00\n        /* \"#utility.yul\":13977:13982   */\n      dup3\n        /* \"#utility.yul\":13971:13975   */\n      dup3\n        /* \"#utility.yul\":13967:13983   */\n      shr\n        /* \"#utility.yul\":13946:13983   */\n      swap1\n      pop\n        /* \"#utility.yul\":13873:13990   */\n      swap3\n      swap2\n      pop\n      pop\n      jump\t// out\n        /* \"#utility.yul\":13996:14165   */\n    tag_153:\n        /* \"#utility.yul\":14040:14046   */\n      0x00\n        /* \"#utility.yul\":14073:14124   */\n      tag_299\n        /* \"#utility.yul\":14121:14122   */\n      0x00\n        /* \"#utility.yul\":14117:14123   */\n      not\n        /* \"#utility.yul\":14109:14114   */\n      dup5\n        /* \"#utility.yul\":14106:14107   */\n      0x08\n        /* \"#utility.yul\":14102:14115   */\n      mul\n        /* \"#utility.yul\":14073:14124   */\n      tag_152\n      jump\t// in\n    tag_299:\n        /* \"#utility.yul\":14069:14125   */\n      not\n        /* \"#utility.yul\":14154:14158   */\n      dup1\n        /* \"#utility.yul\":14148:14152   */\n      dup4\n        /* \"#utility.yul\":14144:14159   */\n      and\n        /* \"#utility.yul\":14134:14159   */\n      swap2\n      pop\n        /* \"#utility.yul\":14047:14165   */\n      pop\n        /* \"#utility.yul\":13996:14165   */\n      swap3\n      swap2\n      pop\n      pop\n      jump\t// out\n        /* \"#utility.yul\":14170:14465   */\n    tag_154:\n        /* \"#utility.yul\":14246:14250   */\n      0x00\n        /* \"#utility.yul\":14392:14421   */\n      tag_301\n        /* \"#utility.yul\":14417:14420   */\n      dup4\n        /* \"#utility.yul\":14411:14415   */\n      dup4\n        /* \"#utility.yul\":14392:14421   */\n      tag_153\n      jump\t// in\n    tag_301:\n        /* \"#utility.yul\":14384:14421   */\n      swap2\n      pop\n        /* \"#utility.yul\":14454:14457   */\n      dup3\n        /* \"#utility.yul\":14451:14452   */\n      0x02\n        /* \"#utility.yul\":14447:14458   */\n      mul\n        /* \"#utility.yul\":14441:14445   */\n      dup3\n        /* \"#utility.yul\":14438:14459   */\n      or\n        /* \"#utility.yul\":14430:14459   */\n      swap1\n      pop\n        /* \"#utility.yul\":14170:14465   */\n      swap3\n      swap2\n      pop\n      pop\n      jump\t// out\n        /* \"#utility.yul\":14470:15865   */\n    tag_90:\n        /* \"#utility.yul\":14587:14624   */\n      tag_303\n        /* \"#utility.yul\":14620:14623   */\n      dup3\n        /* \"#utility.yul\":14587:14624   */\n      tag_112\n      jump\t// in\n    tag_303:\n        /* \"#utility.yul\":14689:14707   */\n      0xffffffffffffffff\n        /* \"#utility.yul\":14681:14687   */\n      dup2\n        /* \"#utility.yul\":14678:14708   */\n      gt\n        /* \"#utility.yul\":14675:14731   */\n      iszero\n      tag_304\n      jumpi\n        /* \"#utility.yul\":14711:14729   */\n      tag_305\n      tag_139\n      jump\t// in\n    tag_305:\n        /* \"#utility.yul\":14675:14731   */\n    tag_304:\n        /* \"#utility.yul\":14755:14793   */\n      tag_306\n        /* \"#utility.yul\":14787:14791   */\n      dup3\n        /* \"#utility.yul\":14781:14792   */\n      sload\n        /* \"#utility.yul\":14755:14793   */\n      tag_64\n      jump\t// in\n    tag_306:\n        /* \"#utility.yul\":14840:14907   */\n      tag_307\n        /* \"#utility.yul\":14900:14906   */\n      dup3\n        /* \"#utility.yul\":14892:14898   */\n      dup3\n        /* \"#utility.yul\":14886:14890   */\n      dup6\n        /* \"#utility.yul\":14840:14907   */\n      tag_151\n      jump\t// in\n    tag_307:\n        /* \"#utility.yul\":14934:14935   */\n      0x00\n        /* \"#utility.yul\":14958:14962   */\n      0x20\n        /* \"#utility.yul\":14945:14962   */\n      swap1\n      pop\n        /* \"#utility.yul\":14990:14992   */\n      0x1f\n        /* \"#utility.yul\":14982:14988   */\n      dup4\n        /* \"#utility.yul\":14979:14993   */\n      gt\n        /* \"#utility.yul\":15007:15008   */\n      0x01\n        /* \"#utility.yul\":15002:15620   */\n      dup2\n      eq\n      tag_309\n      jumpi\n        /* \"#utility.yul\":15664:15665   */\n      0x00\n        /* \"#utility.yul\":15681:15687   */\n      dup5\n        /* \"#utility.yul\":15678:15755   */\n      iszero\n      tag_310\n      jumpi\n        /* \"#utility.yul\":15730:15739   */\n      dup3\n        /* \"#utility.yul\":15725:15728   */\n      dup8\n        /* \"#utility.yul\":15721:15740   */\n      add\n        /* \"#utility.yul\":15715:15741   */\n      mload\n        /* \"#utility.yul\":15706:15741   */\n      swap1\n      pop\n        /* \"#utility.yul\":15678:15755   */\n    tag_310:\n        /* \"#utility.yul\":15781:15848   */\n      tag_311\n        /* \"#utility.yul\":15841:15847   */\n      dup6\n        /* \"#utility.yul\":15834:15839   */\n      dup3\n        /* \"#utility.yul\":15781:15848   */\n      tag_154\n      jump\t// in\n    tag_311:\n        /* \"#utility.yul\":15775:15779   */\n      dup7\n        /* \"#utility.yul\":15768:15849   */\n      sstore\n        /* \"#utility.yul\":15637:15859   */\n      pop\n        /* \"#utility.yul\":14972:15859   */\n      jump(tag_308)\n        /* \"#utility.yul\":15002:15620   */\n    tag_309:\n        /* \"#utility.yul\":15054:15058   */\n      0x1f\n        /* \"#utility.yul\":15050:15059   */\n      not\n        /* \"#utility.yul\":15042:15048   */\n      dup5\n        /* \"#utility.yul\":15038:15060   */\n      and\n        /* \"#utility.yul\":15088:15125   */\n      tag_312\n        /* \"#utility.yul\":15120:15124   */\n      dup7\n        /* \"#utility.yul\":15088:15125   */\n      tag_140\n      jump\t// in\n    tag_312:\n        /* \"#utility.yul\":15147:15148   */\n      0x00\n        /* \"#utility.yul\":15161:15369   */\n    tag_313:\n        /* \"#utility.yul\":15175:15182   */\n      dup3\n        /* \"#utility.yul\":15172:15173   */\n      dup2\n        /* \"#utility.yul\":15169:15183   */\n      lt\n        /* \"#utility.yul\":15161:15369   */\n      iszero\n      tag_315\n      jumpi\n        /* \"#utility.yul\":15254:15263   */\n      dup5\n        /* \"#utility.yul\":15249:15252   */\n      dup10\n        /* \"#utility.yul\":15245:15264   */\n      add\n        /* \"#utility.yul\":15239:15265   */\n      mload\n        /* \"#utility.yul\":15231:15237   */\n      dup3\n        /* \"#utility.yul\":15224:15266   */\n      sstore\n        /* \"#utility.yul\":15305:15306   */\n      0x01\n        /* \"#utility.yul\":15297:15303   */\n      dup3\n        /* \"#utility.yul\":15293:15307   */\n      add\n        /* \"#utility.yul\":15283:15307   */\n      swap2\n      pop\n        /* \"#utility.yul\":15352:15354   */\n      0x20\n        /* \"#utility.yul\":15341:15350   */\n      dup6\n        /* \"#utility.yul\":15337:15355   */\n      add\n        /* \"#utility.yul\":15324:15355   */\n      swap5\n      pop\n        /* \"#utility.yul\":15198:15202   */\n      0x20\n        /* \"#utility.yul\":15195:15196   */\n      dup2\n        /* \"#utility.yul\":15191:15203   */\n      add\n        /* \"#utility.yul\":15186:15203   */\n      swap1\n      pop\n        /* \"#utility.yul\":15161:15369   */\n      jump(tag_313)\n    tag_315:\n        /* \"#utility.yul\":15397:15403   */\n      dup7\n        /* \"#utility.yul\":15388:15395   */\n      dup4\n        /* \"#utility.yul\":15385:15404   */\n      lt\n        /* \"#utility.yul\":15382:15561   */\n      iszero\n      tag_316\n      jumpi\n        /* \"#utility.yul\":15455:15464   */\n      dup5\n        /* \"#utility.yul\":15450:15453   */\n      dup10\n        /* \"#utility.yul\":15446:15465   */\n      add\n        /* \"#utility.yul\":15440:15466   */\n      mload\n        /* \"#utility.yul\":15498:15546   */\n      tag_317\n        /* \"#utility.yul\":15540:15544   */\n      0x1f\n        /* \"#utility.yul\":15532:15538   */\n      dup10\n        /* \"#utility.yul\":15528:15545   */\n      and\n        /* \"#utility.yul\":15517:15526   */\n      dup3\n        /* \"#utility.yul\":15498:15546   */\n      tag_153\n      jump\t// in\n    tag_317:\n        /* \"#utility.yul\":15490:15496   */\n      dup4\n        /* \"#utility.yul\":15483:15547   */\n      sstore\n        /* \"#utility.yul\":15405:15561   */\n      pop\n        /* \"#utility.yul\":15382:15561   */\n    tag_316:\n        /* \"#utility.yul\":15607:15608   */\n      0x01\n        /* \"#utility.yul\":15603:15604   */\n      0x02\n        /* \"#utility.yul\":15595:15601   */\n      dup9\n        /* \"#utility.yul\":15591:15605   */\n      mul\n        /* \"#utility.yul\":15587:15609   */\n      add\n        /* \"#utility.yul\":15581:15585   */\n      dup9\n        /* \"#utility.yul\":15574:15610   */\n      sstore\n        /* \"#utility.yul\":15009:15620   */\n      pop\n      pop\n      pop\n        /* \"#utility.yul\":14972:15859   */\n    tag_308:\n      pop\n        /* \"#utility.yul\":14562:15865   */\n      pop\n      pop\n      pop\n        /* \"#utility.yul\":14470:15865   */\n      pop\n      pop\n      jump\t// out\n        /* \"#utility.yul\":15871:16065   */\n    tag_92:\n        /* \"#utility.yul\":15911:15915   */\n      0x00\n        /* \"#utility.yul\":15931:15951   */\n      tag_319\n        /* \"#utility.yul\":15949:15950   */\n      dup3\n        /* \"#utility.yul\":15931:15951   */\n      tag_109\n      jump\t// in\n    tag_319:\n        /* \"#utility.yul\":15926:15951   */\n      swap2\n      pop\n        /* \"#utility.yul\":15965:15985   */\n      tag_320\n        /* \"#utility.yul\":15983:15984   */\n      dup4\n        /* \"#utility.yul\":15965:15985   */\n      tag_109\n      jump\t// in\n    tag_320:\n        /* \"#utility.yul\":15960:15985   */\n      swap3\n      pop\n        /* \"#utility.yul\":16009:16010   */\n      dup3\n        /* \"#utility.yul\":16006:16007   */\n      dup3\n        /* \"#utility.yul\":16002:16011   */\n      sub\n        /* \"#utility.yul\":15994:16011   */\n      swap1\n      pop\n        /* \"#utility.yul\":16033:16034   */\n      dup2\n        /* \"#utility.yul\":16027:16031   */\n      dup2\n        /* \"#utility.yul\":16024:16035   */\n      gt\n        /* \"#utility.yul\":16021:16058   */\n      iszero\n      tag_321\n      jumpi\n        /* \"#utility.yul\":16038:16056   */\n      tag_322\n      tag_133\n      jump\t// in\n    tag_322:\n        /* \"#utility.yul\":16021:16058   */\n    tag_321:\n        /* \"#utility.yul\":15871:16065   */\n      swap3\n      swap2\n      pop\n      pop\n      jump\t// out\n        /* \"#utility.yul\":16071:16219   */\n    tag_155:\n        /* \"#utility.yul\":16169:16175   */\n      dup3\n        /* \"#utility.yul\":16164:16167   */\n      dup2\n        /* \"#utility.yul\":16159:16162   */\n      dup4\n        /* \"#utility.yul\":16146:16176   */\n      calldatacopy\n        /* \"#utility.yul\":16210:16211   */\n      0x00\n        /* \"#utility.yul\":16201:16207   */\n      dup4\n        /* \"#utility.yul\":16196:16199   */\n      dup4\n        /* \"#utility.yul\":16192:16208   */\n      add\n        /* \"#utility.yul\":16185:16212   */\n      mstore\n        /* \"#utility.yul\":16071:16219   */\n      pop\n      pop\n      pop\n      jump\t// out\n        /* \"#utility.yul\":16249:16566   */\n    tag_156:\n        /* \"#utility.yul\":16347:16350   */\n      0x00\n        /* \"#utility.yul\":16368:16439   */\n      tag_325\n        /* \"#utility.yul\":16432:16438   */\n      dup4\n        /* \"#utility.yul\":16427:16430   */\n      dup6\n        /* \"#utility.yul\":16368:16439   */\n      tag_113\n      jump\t// in\n    tag_325:\n        /* \"#utility.yul\":16361:16439   */\n      swap4\n      pop\n        /* \"#utility.yul\":16449:16505   */\n      tag_326\n        /* \"#utility.yul\":16498:16504   */\n      dup4\n        /* \"#utility.yul\":16493:16496   */\n      dup6\n        /* \"#utility.yul\":16486:16491   */\n      dup5\n        /* \"#utility.yul\":16449:16505   */\n      tag_155\n      jump\t// in\n    tag_326:\n        /* \"#utility.yul\":16530:16559   */\n      tag_327\n        /* \"#utility.yul\":16552:16558   */\n      dup4\n        /* \"#utility.yul\":16530:16559   */\n      tag_115\n      jump\t// in\n    tag_327:\n        /* \"#utility.yul\":16525:16528   */\n      dup5\n        /* \"#utility.yul\":16521:16560   */\n      add\n        /* \"#utility.yul\":16514:16560   */\n      swap1\n      pop\n        /* \"#utility.yul\":16249:16566   */\n      swap4\n      swap3\n      pop\n      pop\n      pop\n      jump\t// out\n        /* \"#utility.yul\":16572:17015   */\n    tag_94:\n        /* \"#utility.yul\":16723:16727   */\n      0x00\n        /* \"#utility.yul\":16761:16763   */\n      0x40\n        /* \"#utility.yul\":16750:16759   */\n      dup3\n        /* \"#utility.yul\":16746:16764   */\n      add\n        /* \"#utility.yul\":16738:16764   */\n      swap1\n      pop\n        /* \"#utility.yul\":16774:16845   */\n      tag_329\n        /* \"#utility.yul\":16842:16843   */\n      0x00\n        /* \"#utility.yul\":16831:16840   */\n      dup4\n        /* \"#utility.yul\":16827:16844   */\n      add\n        /* \"#utility.yul\":16818:16824   */\n      dup7\n        /* \"#utility.yul\":16774:16845   */\n      tag_117\n      jump\t// in\n    tag_329:\n        /* \"#utility.yul\":16892:16901   */\n      dup2\n        /* \"#utility.yul\":16886:16890   */\n      dup2\n        /* \"#utility.yul\":16882:16902   */\n      sub\n        /* \"#utility.yul\":16877:16879   */\n      0x20\n        /* \"#utility.yul\":16866:16875   */\n      dup4\n        /* \"#utility.yul\":16862:16880   */\n      add\n        /* \"#utility.yul\":16855:16903   */\n      mstore\n        /* \"#utility.yul\":16920:17008   */\n      tag_330\n        /* \"#utility.yul\":17003:17007   */\n      dup2\n        /* \"#utility.yul\":16994:17000   */\n      dup5\n        /* \"#utility.yul\":16986:16992   */\n      dup7\n        /* \"#utility.yul\":16920:17008   */\n      tag_156\n      jump\t// in\n    tag_330:\n        /* \"#utility.yul\":16912:17008   */\n      swap1\n      pop\n        /* \"#utility.yul\":16572:17015   */\n      swap5\n      swap4\n      pop\n      pop\n      pop\n      pop\n      jump\t// out\n\n    auxdata: 0xa264697066735822122073731952cb5afa9fd8cc29e34e42a9af91565456276cce3fdf3eb3c3f4fcaa5b64736f6c634300081a0033\n}\n",
				"bytecode": {
					"linkReferences": {},
					"object": "6080604052348015600e575f80fd5b50335f806101000a81548173ffffffffffffffffffffffffffffffffffffffff021916908373ffffffffffffffffffffffffffffffffffffffff1602179055506110828061005b5f395ff3fe608060405234801561000f575f80fd5b5060043610610086575f3560e01c806398e527d31161005957806398e527d314610125578063a513462014610143578063aa98df3914610161578063c7f758a81461017d57610086565b80630121b93f1461008a578063013cf08b146100a657806343859632146100d75780638da5cb5b14610107575b5f80fd5b6100a4600480360381019061009f91906107af565b6101ae565b005b6100c060048036038101906100bb91906107af565b610367565b6040516100ce929190610859565b60405180910390f35b6100f160048036038101906100ec91906108e1565b61041c565b6040516100fe9190610939565b60405180910390f35b61010f610446565b60405161011c9190610961565b60405180910390f35b61012d610469565b60405161013a919061097a565b60405180910390f35b61014b610475565b604051610158919061097a565b60405180910390f35b61017b600480360381019061017691906109f4565b610537565b005b610197600480360381019061019291906107af565b61066b565b6040516101a5929190610859565b60405180910390f35b60018054905081106101f5576040517f08c379a00000000000000000000000000000000000000000000000000000000081526004016101ec90610a89565b60405180910390fd5b60025f8281526020019081526020015f205f3373ffffffffffffffffffffffffffffffffffffffff1673ffffffffffffffffffffffffffffffffffffffff1681526020019081526020015f205f9054906101000a900460ff161561028e576040517f08c379a000000000000000000000000000000000000000000000000000000000815260040161028590610b17565b60405180910390fd5b600160025f8381526020019081526020015f205f3373ffffffffffffffffffffffffffffffffffffffff1673ffffffffffffffffffffffffffffffffffffffff1681526020019081526020015f205f6101000a81548160ff021916908315150217905550600180828154811061030757610306610b35565b5b905f5260205f2090600202016001015f8282546103249190610b8f565b925050819055507f030b0f8dcd86a031eddb071f91882edeac8173663ba775713b677b42b51be44b813360405161035c929190610bc2565b60405180910390a150565b60018181548110610376575f80fd5b905f5260205f2090600202015f91509050805f01805461039590610c16565b80601f01602080910402602001604051908101604052809291908181526020018280546103c190610c16565b801561040c5780601f106103e35761010080835404028352916020019161040c565b820191905f5260205f20905b8154815290600101906020018083116103ef57829003601f168201915b5050505050908060010154905082565b6002602052815f5260405f20602052805f5260405f205f915091509054906101000a900460ff1681565b5f8054906101000a900473ffffffffffffffffffffffffffffffffffffffff1681565b5f600180549050905090565b5f80600180549050116104bd576040517f08c379a00000000000000000000000000000000000000000000000000000000081526004016104b490610c90565b60405180910390fd5b5f8091505f5b6001805490508110156105325781600182815481106104e5576104e4610b35565b5b905f5260205f209060020201600101541115610525576001818154811061050f5761050e610b35565b5b905f5260205f2090600202016001015491508092505b80806001019150506104c3565b505090565b5f828290501161057c576040517f08c379a000000000000000000000000000000000000000000000000000000000815260040161057390610cf8565b60405180910390fd5b6001604051806040016040528084848080601f0160208091040260200160405190810160405280939291908181526020018383808284375f81840152601f19601f8201169050808301925050505050505081526020015f815250908060018154018082558091505060019003905f5260205f2090600202015f909190919091505f820151815f01908161060f9190610ee0565b506020820151816001015550507f9c770c289ab5bf7e57cb1d23c8ceae993aea46eb64847072fd3d78ca60d3e4326001808054905061064e9190610faf565b838360405161065f9392919061101c565b60405180910390a15050565b60605f60018054905083106106b5576040517f08c379a00000000000000000000000000000000000000000000000000000000081526004016106ac90610a89565b60405180910390fd5b5f600184815481106106ca576106c9610b35565b5b905f5260205f2090600202019050805f0181600101548180546106ec90610c16565b80601f016020809104026020016040519081016040528092919081815260200182805461071890610c16565b80156107635780601f1061073a57610100808354040283529160200191610763565b820191905f5260205f20905b81548152906001019060200180831161074657829003601f168201915b505050505091509250925050915091565b5f80fd5b5f80fd5b5f819050919050565b61078e8161077c565b8114610798575f80fd5b50565b5f813590506107a981610785565b92915050565b5f602082840312156107c4576107c3610774565b5b5f6107d18482850161079b565b91505092915050565b5f81519050919050565b5f82825260208201905092915050565b8281835e5f83830152505050565b5f601f19601f8301169050919050565b5f61081c826107da565b61082681856107e4565b93506108368185602086016107f4565b61083f81610802565b840191505092915050565b6108538161077c565b82525050565b5f6040820190508181035f8301526108718185610812565b9050610880602083018461084a565b9392505050565b5f73ffffffffffffffffffffffffffffffffffffffff82169050919050565b5f6108b082610887565b9050919050565b6108c0816108a6565b81146108ca575f80fd5b50565b5f813590506108db816108b7565b92915050565b5f80604083850312156108f7576108f6610774565b5b5f6109048582860161079b565b9250506020610915858286016108cd565b9150509250929050565b5f8115159050919050565b6109338161091f565b82525050565b5f60208201905061094c5f83018461092a565b92915050565b61095b816108a6565b82525050565b5f6020820190506109745f830184610952565b92915050565b5f60208201905061098d5f83018461084a565b92915050565b5f80fd5b5f80fd5b5f80fd5b5f8083601f8401126109b4576109b3610993565b5b8235905067ffffffffffffffff8111156109d1576109d0610997565b5b6020830191508360018202830111156109ed576109ec61099b565b5b9250929050565b5f8060208385031215610a0a57610a09610774565b5b5f83013567ffffffffffffffff811115610a2757610a26610778565b5b610a338582860161099f565b92509250509250929050565b7f496e76616c69642070726f706f73616c204944000000000000000000000000005f82015250565b5f610a736013836107e4565b9150610a7e82610a3f565b602082019050919050565b5f6020820190508181035f830152610aa081610a67565b9050919050565b7f416464726573732068617320616c726561647920766f74656420666f722074685f8201527f69732070726f706f73616c000000000000000000000000000000000000000000602082015250565b5f610b01602b836107e4565b9150610b0c82610aa7565b604082019050919050565b5f6020820190508181035f830152610b2e81610af5565b9050919050565b7f4e487b71000000000000000000000000000000000000000000000000000000005f52603260045260245ffd5b7f4e487b71000000000000000000000000000000000000000000000000000000005f52601160045260245ffd5b5f610b998261077c565b9150610ba48361077c565b9250828201905080821115610bbc57610bbb610b62565b5b92915050565b5f604082019050610bd55f83018561084a565b610be26020830184610952565b9392505050565b7f4e487b71000000000000000000000000000000000000000000000000000000005f52602260045260245ffd5b5f6002820490506001821680610c2d57607f821691505b602082108103610c4057610c3f610be9565b5b50919050565b7f4e6f2070726f706f73616c7320617661696c61626c65000000000000000000005f82015250565b5f610c7a6016836107e4565b9150610c8582610c46565b602082019050919050565b5f6020820190508181035f830152610ca781610c6e565b9050919050565b7f4465736372697074696f6e2063616e6e6f7420626520656d70747900000000005f82015250565b5f610ce2601b836107e4565b9150610ced82610cae565b602082019050919050565b5f6020820190508181035f830152610d0f81610cd6565b9050919050565b7f4e487b71000000000000000000000000000000000000000000000000000000005f52604160045260245ffd5b5f819050815f5260205f209050919050565b5f6020601f8301049050919050565b5f82821b905092915050565b5f60088302610d9f7fffffffffffffffffffffffffffffffffffffffffffffffffffffffffffffffff82610d64565b610da98683610d64565b95508019841693508086168417925050509392505050565b5f819050919050565b5f610de4610ddf610dda8461077c565b610dc1565b61077c565b9050919050565b5f819050919050565b610dfd83610dca565b610e11610e0982610deb565b848454610d70565b825550505050565b5f90565b610e25610e19565b610e30818484610df4565b505050565b5b81811015610e5357610e485f82610e1d565b600181019050610e36565b5050565b601f821115610e9857610e6981610d43565b610e7284610d55565b81016020851015610e81578190505b610e95610e8d85610d55565b830182610e35565b50505b505050565b5f82821c905092915050565b5f610eb85f1984600802610e9d565b1980831691505092915050565b5f610ed08383610ea9565b9150826002028217905092915050565b610ee9826107da565b67ffffffffffffffff811115610f0257610f01610d16565b5b610f0c8254610c16565b610f17828285610e57565b5f60209050601f831160018114610f48575f8415610f36578287015190505b610f408582610ec5565b865550610fa7565b601f198416610f5686610d43565b5f5b82811015610f7d57848901518255600182019150602085019450602081019050610f58565b86831015610f9a5784890151610f96601f891682610ea9565b8355505b6001600288020188555050505b505050505050565b5f610fb98261077c565b9150610fc48361077c565b9250828203905081811115610fdc57610fdb610b62565b5b92915050565b828183375f83830152505050565b5f610ffb83856107e4565b9350611008838584610fe2565b61101183610802565b840190509392505050565b5f60408201905061102f5f83018661084a565b8181036020830152611042818486610ff0565b905094935050505056fea264697066735822122073731952cb5afa9fd8cc29e34e42a9af91565456276cce3fdf3eb3c3f4fcaa5b64736f6c634300081a0033",
					"opcodes": "PUSH1 0x80 PUSH1 0x40 MSTORE CALLVALUE DUP1 ISZERO PUSH1 0xE JUMPI PUSH0 DUP1 REVERT JUMPDEST POP CALLER PUSH0 DUP1 PUSH2 0x100 EXP DUP2 SLOAD DUP2 PUSH20 0xFFFFFFFFFFFFFFFFFFFFFFFFFFFFFFFFFFFFFFFF MUL NOT AND SWAP1 DUP4 PUSH20 0xFFFFFFFFFFFFFFFFFFFFFFFFFFFFFFFFFFFFFFFF AND MUL OR SWAP1 SSTORE POP PUSH2 0x1082 DUP1 PUSH2 0x5B PUSH0 CODECOPY PUSH0 RETURN INVALID PUSH1 0x80 PUSH1 0x40 MSTORE CALLVALUE DUP1 ISZERO PUSH2 0xF JUMPI PUSH0 DUP1 REVERT JUMPDEST POP PUSH1 0x4 CALLDATASIZE LT PUSH2 0x86 JUMPI PUSH0 CALLDATALOAD PUSH1 0xE0 SHR DUP1 PUSH4 0x98E527D3 GT PUSH2 0x59 JUMPI DUP1 PUSH4 0x98E527D3 EQ PUSH2 0x125 JUMPI DUP1 PUSH4 0xA5134620 EQ PUSH2 0x143 JUMPI DUP1 PUSH4 0xAA98DF39 EQ PUSH2 0x161 JUMPI DUP1 PUSH4 0xC7F758A8 EQ PUSH2 0x17D JUMPI PUSH2 0x86 JUMP JUMPDEST DUP1 PUSH4 0x121B93F EQ PUSH2 0x8A JUMPI DUP1 PUSH4 0x13CF08B EQ PUSH2 0xA6 JUMPI DUP1 PUSH4 0x43859632 EQ PUSH2 0xD7 JUMPI DUP1 PUSH4 0x8DA5CB5B EQ PUSH2 0x107 JUMPI JUMPDEST PUSH0 DUP1 REVERT JUMPDEST PUSH2 0xA4 PUSH1 0x4 DUP1 CALLDATASIZE SUB DUP2 ADD SWAP1 PUSH2 0x9F SWAP2 SWAP1 PUSH2 0x7AF JUMP JUMPDEST PUSH2 0x1AE JUMP JUMPDEST STOP JUMPDEST PUSH2 0xC0 PUSH1 0x4 DUP1 CALLDATASIZE SUB DUP2 ADD SWAP1 PUSH2 0xBB SWAP2 SWAP1 PUSH2 0x7AF JUMP JUMPDEST PUSH2 0x367 JUMP JUMPDEST PUSH1 0x40 MLOAD PUSH2 0xCE SWAP3 SWAP2 SWAP1 PUSH2 0x859 JUMP JUMPDEST PUSH1 0x40 MLOAD DUP1 SWAP2 SUB SWAP1 RETURN JUMPDEST PUSH2 0xF1 PUSH1 0x4 DUP1 CALLDATASIZE SUB DUP2 ADD SWAP1 PUSH2 0xEC SWAP2 SWAP1 PUSH2 0x8E1 JUMP JUMPDEST PUSH2 0x41C JUMP JUMPDEST PUSH1 0x40 MLOAD PUSH2 0xFE SWAP2 SWAP1 PUSH2 0x939 JUMP JUMPDEST PUSH1 0x40 MLOAD DUP1 SWAP2 SUB SWAP1 RETURN JUMPDEST PUSH2 0x10F PUSH2 0x446 JUMP JUMPDEST PUSH1 0x40 MLOAD PUSH2 0x11C SWAP2 SWAP1 PUSH2 0x961 JUMP JUMPDEST PUSH1 0x40 MLOAD DUP1 SWAP2 SUB SWAP1 RETURN JUMPDEST PUSH2 0x12D PUSH2 0x469 JUMP JUMPDEST PUSH1 0x40 MLOAD PUSH2 0x13A SWAP2 SWAP1 PUSH2 0x97A JUMP JUMPDEST PUSH1 0x40 MLOAD DUP1 SWAP2 SUB SWAP1 RETURN JUMPDEST PUSH2 0x14B PUSH2 0x475 JUMP JUMPDEST PUSH1 0x40 MLOAD PUSH2 0x158 SWAP2 SWAP1 PUSH2 0x97A JUMP JUMPDEST PUSH1 0x40 MLOAD DUP1 SWAP2 SUB SWAP1 RETURN JUMPDEST PUSH2 0x17B PUSH1 0x4 DUP1 CALLDATASIZE SUB DUP2 ADD SWAP1 PUSH2 0x176 SWAP2 SWAP1 PUSH2 0x9F4 JUMP JUMPDEST PUSH2 0x537 JUMP JUMPDEST STOP JUMPDEST PUSH2 0x197 PUSH1 0x4 DUP1 CALLDATASIZE SUB DUP2 ADD SWAP1 PUSH2 0x192 SWAP2 SWAP1 PUSH2 0x7AF JUMP JUMPDEST PUSH2 0x66B JUMP JUMPDEST PUSH1 0x40 MLOAD PUSH2 0x1A5 SWAP3 SWAP2 SWAP1 PUSH2 0x859 JUMP JUMPDEST PUSH1 0x40 MLOAD DUP1 SWAP2 SUB SWAP1 RETURN JUMPDEST PUSH1 0x1 DUP1 SLOAD SWAP1 POP DUP2 LT PUSH2 0x1F5 JUMPI PUSH1 0x40 MLOAD PUSH32 0x8C379A000000000000000000000000000000000000000000000000000000000 DUP2 MSTORE PUSH1 0x4 ADD PUSH2 0x1EC SWAP1 PUSH2 0xA89 JUMP JUMPDEST PUSH1 0x40 MLOAD DUP1 SWAP2 SUB SWAP1 REVERT JUMPDEST PUSH1 0x2 PUSH0 DUP3 DUP2 MSTORE PUSH1 0x20 ADD SWAP1 DUP2 MSTORE PUSH1 0x20 ADD PUSH0 KECCAK256 PUSH0 CALLER PUSH20 0xFFFFFFFFFFFFFFFFFFFFFFFFFFFFFFFFFFFFFFFF AND PUSH20 0xFFFFFFFFFFFFFFFFFFFFFFFFFFFFFFFFFFFFFFFF AND DUP2 MSTORE PUSH1 0x20 ADD SWAP1 DUP2 MSTORE PUSH1 0x20 ADD PUSH0 KECCAK256 PUSH0 SWAP1 SLOAD SWAP1 PUSH2 0x100 EXP SWAP1 DIV PUSH1 0xFF AND ISZERO PUSH2 0x28E JUMPI PUSH1 0x40 MLOAD PUSH32 0x8C379A000000000000000000000000000000000000000000000000000000000 DUP2 MSTORE PUSH1 0x4 ADD PUSH2 0x285 SWAP1 PUSH2 0xB17 JUMP JUMPDEST PUSH1 0x40 MLOAD DUP1 SWAP2 SUB SWAP1 REVERT JUMPDEST PUSH1 0x1 PUSH1 0x2 PUSH0 DUP4 DUP2 MSTORE PUSH1 0x20 ADD SWAP1 DUP2 MSTORE PUSH1 0x20 ADD PUSH0 KECCAK256 PUSH0 CALLER PUSH20 0xFFFFFFFFFFFFFFFFFFFFFFFFFFFFFFFFFFFFFFFF AND PUSH20 0xFFFFFFFFFFFFFFFFFFFFFFFFFFFFFFFFFFFFFFFF AND DUP2 MSTORE PUSH1 0x20 ADD SWAP1 DUP2 MSTORE PUSH1 0x20 ADD PUSH0 KECCAK256 PUSH0 PUSH2 0x100 EXP DUP2 SLOAD DUP2 PUSH1 0xFF MUL NOT AND SWAP1 DUP4 ISZERO ISZERO MUL OR SWAP1 SSTORE POP PUSH1 0x1 DUP1 DUP3 DUP2 SLOAD DUP2 LT PUSH2 0x307 JUMPI PUSH2 0x306 PUSH2 0xB35 JUMP JUMPDEST JUMPDEST SWAP1 PUSH0 MSTORE PUSH1 0x20 PUSH0 KECCAK256 SWAP1 PUSH1 0x2 MUL ADD PUSH1 0x1 ADD PUSH0 DUP3 DUP3 SLOAD PUSH2 0x324 SWAP2 SWAP1 PUSH2 0xB8F JUMP JUMPDEST SWAP3 POP POP DUP2 SWAP1 SSTORE POP PUSH32 0x30B0F8DCD86A031EDDB071F91882EDEAC8173663BA775713B677B42B51BE44B DUP2 CALLER PUSH1 0x40 MLOAD PUSH2 0x35C SWAP3 SWAP2 SWAP1 PUSH2 0xBC2 JUMP JUMPDEST PUSH1 0x40 MLOAD DUP1 SWAP2 SUB SWAP1 LOG1 POP JUMP JUMPDEST PUSH1 0x1 DUP2 DUP2 SLOAD DUP2 LT PUSH2 0x376 JUMPI PUSH0 DUP1 REVERT JUMPDEST SWAP1 PUSH0 MSTORE PUSH1 0x20 PUSH0 KECCAK256 SWAP1 PUSH1 0x2 MUL ADD PUSH0 SWAP2 POP SWAP1 POP DUP1 PUSH0 ADD DUP1 SLOAD PUSH2 0x395 SWAP1 PUSH2 0xC16 JUMP JUMPDEST DUP1 PUSH1 0x1F ADD PUSH1 0x20 DUP1 SWAP2 DIV MUL PUSH1 0x20 ADD PUSH1 0x40 MLOAD SWAP1 DUP2 ADD PUSH1 0x40 MSTORE DUP1 SWAP3 SWAP2 SWAP1 DUP2 DUP2 MSTORE PUSH1 0x20 ADD DUP3 DUP1 SLOAD PUSH2 0x3C1 SWAP1 PUSH2 0xC16 JUMP JUMPDEST DUP1 ISZERO PUSH2 0x40C JUMPI DUP1 PUSH1 0x1F LT PUSH2 0x3E3 JUMPI PUSH2 0x100 DUP1 DUP4 SLOAD DIV MUL DUP4 MSTORE SWAP2 PUSH1 0x20 ADD SWAP2 PUSH2 0x40C JUMP JUMPDEST DUP3 ADD SWAP2 SWAP1 PUSH0 MSTORE PUSH1 0x20 PUSH0 KECCAK256 SWAP1 JUMPDEST DUP2 SLOAD DUP2 MSTORE SWAP1 PUSH1 0x1 ADD SWAP1 PUSH1 0x20 ADD DUP1 DUP4 GT PUSH2 0x3EF JUMPI DUP3 SWAP1 SUB PUSH1 0x1F AND DUP3 ADD SWAP2 JUMPDEST POP POP POP POP POP SWAP1 DUP1 PUSH1 0x1 ADD SLOAD SWAP1 POP DUP3 JUMP JUMPDEST PUSH1 0x2 PUSH1 0x20 MSTORE DUP2 PUSH0 MSTORE PUSH1 0x40 PUSH0 KECCAK256 PUSH1 0x20 MSTORE DUP1 PUSH0 MSTORE PUSH1 0x40 PUSH0 KECCAK256 PUSH0 SWAP2 POP SWAP2 POP SWAP1 SLOAD SWAP1 PUSH2 0x100 EXP SWAP1 DIV PUSH1 0xFF AND DUP2 JUMP JUMPDEST PUSH0 DUP1 SLOAD SWAP1 PUSH2 0x100 EXP SWAP1 DIV PUSH20 0xFFFFFFFFFFFFFFFFFFFFFFFFFFFFFFFFFFFFFFFF AND DUP2 JUMP JUMPDEST PUSH0 PUSH1 0x1 DUP1 SLOAD SWAP1 POP SWAP1 POP SWAP1 JUMP JUMPDEST PUSH0 DUP1 PUSH1 0x1 DUP1 SLOAD SWAP1 POP GT PUSH2 0x4BD JUMPI PUSH1 0x40 MLOAD PUSH32 0x8C379A000000000000000000000000000000000000000000000000000000000 DUP2 MSTORE PUSH1 0x4 ADD PUSH2 0x4B4 SWAP1 PUSH2 0xC90 JUMP JUMPDEST PUSH1 0x40 MLOAD DUP1 SWAP2 SUB SWAP1 REVERT JUMPDEST PUSH0 DUP1 SWAP2 POP PUSH0 JUMPDEST PUSH1 0x1 DUP1 SLOAD SWAP1 POP DUP2 LT ISZERO PUSH2 0x532 JUMPI DUP2 PUSH1 0x1 DUP3 DUP2 SLOAD DUP2 LT PUSH2 0x4E5 JUMPI PUSH2 0x4E4 PUSH2 0xB35 JUMP JUMPDEST JUMPDEST SWAP1 PUSH0 MSTORE PUSH1 0x20 PUSH0 KECCAK256 SWAP1 PUSH1 0x2 MUL ADD PUSH1 0x1 ADD SLOAD GT ISZERO PUSH2 0x525 JUMPI PUSH1 0x1 DUP2 DUP2 SLOAD DUP2 LT PUSH2 0x50F JUMPI PUSH2 0x50E PUSH2 0xB35 JUMP JUMPDEST JUMPDEST SWAP1 PUSH0 MSTORE PUSH1 0x20 PUSH0 KECCAK256 SWAP1 PUSH1 0x2 MUL ADD PUSH1 0x1 ADD SLOAD SWAP2 POP DUP1 SWAP3 POP JUMPDEST DUP1 DUP1 PUSH1 0x1 ADD SWAP2 POP POP PUSH2 0x4C3 JUMP JUMPDEST POP POP SWAP1 JUMP JUMPDEST PUSH0 DUP3 DUP3 SWAP1 POP GT PUSH2 0x57C JUMPI PUSH1 0x40 MLOAD PUSH32 0x8C379A000000000000000000000000000000000000000000000000000000000 DUP2 MSTORE PUSH1 0x4 ADD PUSH2 0x573 SWAP1 PUSH2 0xCF8 JUMP JUMPDEST PUSH1 0x40 MLOAD DUP1 SWAP2 SUB SWAP1 REVERT JUMPDEST PUSH1 0x1 PUSH1 0x40 MLOAD DUP1 PUSH1 0x40 ADD PUSH1 0x40 MSTORE DUP1 DUP5 DUP5 DUP1 DUP1 PUSH1 0x1F ADD PUSH1 0x20 DUP1 SWAP2 DIV MUL PUSH1 0x20 ADD PUSH1 0x40 MLOAD SWAP1 DUP2 ADD PUSH1 0x40 MSTORE DUP1 SWAP4 SWAP3 SWAP2 SWAP1 DUP2 DUP2 MSTORE PUSH1 0x20 ADD DUP4 DUP4 DUP1 DUP3 DUP5 CALLDATACOPY PUSH0 DUP2 DUP5 ADD MSTORE PUSH1 0x1F NOT PUSH1 0x1F DUP3 ADD AND SWAP1 POP DUP1 DUP4 ADD SWAP3 POP POP POP POP POP POP POP DUP2 MSTORE PUSH1 0x20 ADD PUSH0 DUP2 MSTORE POP SWAP1 DUP1 PUSH1 0x1 DUP2 SLOAD ADD DUP1 DUP3 SSTORE DUP1 SWAP2 POP POP PUSH1 0x1 SWAP1 SUB SWAP1 PUSH0 MSTORE PUSH1 0x20 PUSH0 KECCAK256 SWAP1 PUSH1 0x2 MUL ADD PUSH0 SWAP1 SWAP2 SWAP1 SWAP2 SWAP1 SWAP2 POP PUSH0 DUP3 ADD MLOAD DUP2 PUSH0 ADD SWAP1 DUP2 PUSH2 0x60F SWAP2 SWAP1 PUSH2 0xEE0 JUMP JUMPDEST POP PUSH1 0x20 DUP3 ADD MLOAD DUP2 PUSH1 0x1 ADD SSTORE POP POP PUSH32 0x9C770C289AB5BF7E57CB1D23C8CEAE993AEA46EB64847072FD3D78CA60D3E432 PUSH1 0x1 DUP1 DUP1 SLOAD SWAP1 POP PUSH2 0x64E SWAP2 SWAP1 PUSH2 0xFAF JUMP JUMPDEST DUP4 DUP4 PUSH1 0x40 MLOAD PUSH2 0x65F SWAP4 SWAP3 SWAP2 SWAP1 PUSH2 0x101C JUMP JUMPDEST PUSH1 0x40 MLOAD DUP1 SWAP2 SUB SWAP1 LOG1 POP POP JUMP JUMPDEST PUSH1 0x60 PUSH0 PUSH1 0x1 DUP1 SLOAD SWAP1 POP DUP4 LT PUSH2 0x6B5 JUMPI PUSH1 0x40 MLOAD PUSH32 0x8C379A000000000000000000000000000000000000000000000000000000000 DUP2 MSTORE PUSH1 0x4 ADD PUSH2 0x6AC SWAP1 PUSH2 0xA89 JUMP JUMPDEST PUSH1 0x40 MLOAD DUP1 SWAP2 SUB SWAP1 REVERT JUMPDEST PUSH0 PUSH1 0x1 DUP5 DUP2 SLOAD DUP2 LT PUSH2 0x6CA JUMPI PUSH2 0x6C9 PUSH2 0xB35 JUMP JUMPDEST JUMPDEST SWAP1 PUSH0 MSTORE PUSH1 0x20 PUSH0 KECCAK256 SWAP1 PUSH1 0x2 MUL ADD SWAP1 POP DUP1 PUSH0 ADD DUP2 PUSH1 0x1 ADD SLOAD DUP2 DUP1 SLOAD PUSH2 0x6EC SWAP1 PUSH2 0xC16 JUMP JUMPDEST DUP1 PUSH1 0x1F ADD PUSH1 0x20 DUP1 SWAP2 DIV MUL PUSH1 0x20 ADD PUSH1 0x40 MLOAD SWAP1 DUP2 ADD PUSH1 0x40 MSTORE DUP1 SWAP3 SWAP2 SWAP1 DUP2 DUP2 MSTORE PUSH1 0x20 ADD DUP3 DUP1 SLOAD PUSH2 0x718 SWAP1 PUSH2 0xC16 JUMP JUMPDEST DUP1 ISZERO PUSH2 0x763 JUMPI DUP1 PUSH1 0x1F LT PUSH2 0x73A JUMPI PUSH2 0x100 DUP1 DUP4 SLOAD DIV MUL DUP4 MSTORE SWAP2 PUSH1 0x20 ADD SWAP2 PUSH2 0x763 JUMP JUMPDEST DUP3 ADD SWAP2 SWAP1 PUSH0 MSTORE PUSH1 0x20 PUSH0 KECCAK256 SWAP1 JUMPDEST DUP2 SLOAD DUP2 MSTORE SWAP1 PUSH1 0x1 ADD SWAP1 PUSH1 0x20 ADD DUP1 DUP4 GT PUSH2 0x746 JUMPI DUP3 SWAP1 SUB PUSH1 0x1F AND DUP3 ADD SWAP2 JUMPDEST POP POP POP POP POP SWAP2 POP SWAP3 POP SWAP3 POP POP SWAP2 POP SWAP2 JUMP JUMPDEST PUSH0 DUP1 REVERT JUMPDEST PUSH0 DUP1 REVERT JUMPDEST PUSH0 DUP2 SWAP1 POP SWAP2 SWAP1 POP JUMP JUMPDEST PUSH2 0x78E DUP2 PUSH2 0x77C JUMP JUMPDEST DUP2 EQ PUSH2 0x798 JUMPI PUSH0 DUP1 REVERT JUMPDEST POP JUMP JUMPDEST PUSH0 DUP2 CALLDATALOAD SWAP1 POP PUSH2 0x7A9 DUP2 PUSH2 0x785 JUMP JUMPDEST SWAP3 SWAP2 POP POP JUMP JUMPDEST PUSH0 PUSH1 0x20 DUP3 DUP5 SUB SLT ISZERO PUSH2 0x7C4 JUMPI PUSH2 0x7C3 PUSH2 0x774 JUMP JUMPDEST JUMPDEST PUSH0 PUSH2 0x7D1 DUP5 DUP3 DUP6 ADD PUSH2 0x79B JUMP JUMPDEST SWAP2 POP POP SWAP3 SWAP2 POP POP JUMP JUMPDEST PUSH0 DUP2 MLOAD SWAP1 POP SWAP2 SWAP1 POP JUMP JUMPDEST PUSH0 DUP3 DUP3 MSTORE PUSH1 0x20 DUP3 ADD SWAP1 POP SWAP3 SWAP2 POP POP JUMP JUMPDEST DUP3 DUP2 DUP4 MCOPY PUSH0 DUP4 DUP4 ADD MSTORE POP POP POP JUMP JUMPDEST PUSH0 PUSH1 0x1F NOT PUSH1 0x1F DUP4 ADD AND SWAP1 POP SWAP2 SWAP1 POP JUMP JUMPDEST PUSH0 PUSH2 0x81C DUP3 PUSH2 0x7DA JUMP JUMPDEST PUSH2 0x826 DUP2 DUP6 PUSH2 0x7E4 JUMP JUMPDEST SWAP4 POP PUSH2 0x836 DUP2 DUP6 PUSH1 0x20 DUP7 ADD PUSH2 0x7F4 JUMP JUMPDEST PUSH2 0x83F DUP2 PUSH2 0x802 JUMP JUMPDEST DUP5 ADD SWAP2 POP POP SWAP3 SWAP2 POP POP JUMP JUMPDEST PUSH2 0x853 DUP2 PUSH2 0x77C JUMP JUMPDEST DUP3 MSTORE POP POP JUMP JUMPDEST PUSH0 PUSH1 0x40 DUP3 ADD SWAP1 POP DUP2 DUP2 SUB PUSH0 DUP4 ADD MSTORE PUSH2 0x871 DUP2 DUP6 PUSH2 0x812 JUMP JUMPDEST SWAP1 POP PUSH2 0x880 PUSH1 0x20 DUP4 ADD DUP5 PUSH2 0x84A JUMP JUMPDEST SWAP4 SWAP3 POP POP POP JUMP JUMPDEST PUSH0 PUSH20 0xFFFFFFFFFFFFFFFFFFFFFFFFFFFFFFFFFFFFFFFF DUP3 AND SWAP1 POP SWAP2 SWAP1 POP JUMP JUMPDEST PUSH0 PUSH2 0x8B0 DUP3 PUSH2 0x887 JUMP JUMPDEST SWAP1 POP SWAP2 SWAP1 POP JUMP JUMPDEST PUSH2 0x8C0 DUP2 PUSH2 0x8A6 JUMP JUMPDEST DUP2 EQ PUSH2 0x8CA JUMPI PUSH0 DUP1 REVERT JUMPDEST POP JUMP JUMPDEST PUSH0 DUP2 CALLDATALOAD SWAP1 POP PUSH2 0x8DB DUP2 PUSH2 0x8B7 JUMP JUMPDEST SWAP3 SWAP2 POP POP JUMP JUMPDEST PUSH0 DUP1 PUSH1 0x40 DUP4 DUP6 SUB SLT ISZERO PUSH2 0x8F7 JUMPI PUSH2 0x8F6 PUSH2 0x774 JUMP JUMPDEST JUMPDEST PUSH0 PUSH2 0x904 DUP6 DUP3 DUP7 ADD PUSH2 0x79B JUMP JUMPDEST SWAP3 POP POP PUSH1 0x20 PUSH2 0x915 DUP6 DUP3 DUP7 ADD PUSH2 0x8CD JUMP JUMPDEST SWAP2 POP POP SWAP3 POP SWAP3 SWAP1 POP JUMP JUMPDEST PUSH0 DUP2 ISZERO ISZERO SWAP1 POP SWAP2 SWAP1 POP JUMP JUMPDEST PUSH2 0x933 DUP2 PUSH2 0x91F JUMP JUMPDEST DUP3 MSTORE POP POP JUMP JUMPDEST PUSH0 PUSH1 0x20 DUP3 ADD SWAP1 POP PUSH2 0x94C PUSH0 DUP4 ADD DUP5 PUSH2 0x92A JUMP JUMPDEST SWAP3 SWAP2 POP POP JUMP JUMPDEST PUSH2 0x95B DUP2 PUSH2 0x8A6 JUMP JUMPDEST DUP3 MSTORE POP POP JUMP JUMPDEST PUSH0 PUSH1 0x20 DUP3 ADD SWAP1 POP PUSH2 0x974 PUSH0 DUP4 ADD DUP5 PUSH2 0x952 JUMP JUMPDEST SWAP3 SWAP2 POP POP JUMP JUMPDEST PUSH0 PUSH1 0x20 DUP3 ADD SWAP1 POP PUSH2 0x98D PUSH0 DUP4 ADD DUP5 PUSH2 0x84A JUMP JUMPDEST SWAP3 SWAP2 POP POP JUMP JUMPDEST PUSH0 DUP1 REVERT JUMPDEST PUSH0 DUP1 REVERT JUMPDEST PUSH0 DUP1 REVERT JUMPDEST PUSH0 DUP1 DUP4 PUSH1 0x1F DUP5 ADD SLT PUSH2 0x9B4 JUMPI PUSH2 0x9B3 PUSH2 0x993 JUMP JUMPDEST JUMPDEST DUP3 CALLDATALOAD SWAP1 POP PUSH8 0xFFFFFFFFFFFFFFFF DUP2 GT ISZERO PUSH2 0x9D1 JUMPI PUSH2 0x9D0 PUSH2 0x997 JUMP JUMPDEST JUMPDEST PUSH1 0x20 DUP4 ADD SWAP2 POP DUP4 PUSH1 0x1 DUP3 MUL DUP4 ADD GT ISZERO PUSH2 0x9ED JUMPI PUSH2 0x9EC PUSH2 0x99B JUMP JUMPDEST JUMPDEST SWAP3 POP SWAP3 SWAP1 POP JUMP JUMPDEST PUSH0 DUP1 PUSH1 0x20 DUP4 DUP6 SUB SLT ISZERO PUSH2 0xA0A JUMPI PUSH2 0xA09 PUSH2 0x774 JUMP JUMPDEST JUMPDEST PUSH0 DUP4 ADD CALLDATALOAD PUSH8 0xFFFFFFFFFFFFFFFF DUP2 GT ISZERO PUSH2 0xA27 JUMPI PUSH2 0xA26 PUSH2 0x778 JUMP JUMPDEST JUMPDEST PUSH2 0xA33 DUP6 DUP3 DUP7 ADD PUSH2 0x99F JUMP JUMPDEST SWAP3 POP SWAP3 POP POP SWAP3 POP SWAP3 SWAP1 POP JUMP JUMPDEST PUSH32 0x496E76616C69642070726F706F73616C20494400000000000000000000000000 PUSH0 DUP3 ADD MSTORE POP JUMP JUMPDEST PUSH0 PUSH2 0xA73 PUSH1 0x13 DUP4 PUSH2 0x7E4 JUMP JUMPDEST SWAP2 POP PUSH2 0xA7E DUP3 PUSH2 0xA3F JUMP JUMPDEST PUSH1 0x20 DUP3 ADD SWAP1 POP SWAP2 SWAP1 POP JUMP JUMPDEST PUSH0 PUSH1 0x20 DUP3 ADD SWAP1 POP DUP2 DUP2 SUB PUSH0 DUP4 ADD MSTORE PUSH2 0xAA0 DUP2 PUSH2 0xA67 JUMP JUMPDEST SWAP1 POP SWAP2 SWAP1 POP JUMP JUMPDEST PUSH32 0x416464726573732068617320616C726561647920766F74656420666F72207468 PUSH0 DUP3 ADD MSTORE PUSH32 0x69732070726F706F73616C000000000000000000000000000000000000000000 PUSH1 0x20 DUP3 ADD MSTORE POP JUMP JUMPDEST PUSH0 PUSH2 0xB01 PUSH1 0x2B DUP4 PUSH2 0x7E4 JUMP JUMPDEST SWAP2 POP PUSH2 0xB0C DUP3 PUSH2 0xAA7 JUMP JUMPDEST PUSH1 0x40 DUP3 ADD SWAP1 POP SWAP2 SWAP1 POP JUMP JUMPDEST PUSH0 PUSH1 0x20 DUP3 ADD SWAP1 POP DUP2 DUP2 SUB PUSH0 DUP4 ADD MSTORE PUSH2 0xB2E DUP2 PUSH2 0xAF5 JUMP JUMPDEST SWAP1 POP SWAP2 SWAP1 POP JUMP JUMPDEST PUSH32 0x4E487B7100000000000000000000000000000000000000000000000000000000 PUSH0 MSTORE PUSH1 0x32 PUSH1 0x4 MSTORE PUSH1 0x24 PUSH0 REVERT JUMPDEST PUSH32 0x4E487B7100000000000000000000000000000000000000000000000000000000 PUSH0 MSTORE PUSH1 0x11 PUSH1 0x4 MSTORE PUSH1 0x24 PUSH0 REVERT JUMPDEST PUSH0 PUSH2 0xB99 DUP3 PUSH2 0x77C JUMP JUMPDEST SWAP2 POP PUSH2 0xBA4 DUP4 PUSH2 0x77C JUMP JUMPDEST SWAP3 POP DUP3 DUP3 ADD SWAP1 POP DUP1 DUP3 GT ISZERO PUSH2 0xBBC JUMPI PUSH2 0xBBB PUSH2 0xB62 JUMP JUMPDEST JUMPDEST SWAP3 SWAP2 POP POP JUMP JUMPDEST PUSH0 PUSH1 0x40 DUP3 ADD SWAP1 POP PUSH2 0xBD5 PUSH0 DUP4 ADD DUP6 PUSH2 0x84A JUMP JUMPDEST PUSH2 0xBE2 PUSH1 0x20 DUP4 ADD DUP5 PUSH2 0x952 JUMP JUMPDEST SWAP4 SWAP3 POP POP POP JUMP JUMPDEST PUSH32 0x4E487B7100000000000000000000000000000000000000000000000000000000 PUSH0 MSTORE PUSH1 0x22 PUSH1 0x4 MSTORE PUSH1 0x24 PUSH0 REVERT JUMPDEST PUSH0 PUSH1 0x2 DUP3 DIV SWAP1 POP PUSH1 0x1 DUP3 AND DUP1 PUSH2 0xC2D JUMPI PUSH1 0x7F DUP3 AND SWAP2 POP JUMPDEST PUSH1 0x20 DUP3 LT DUP2 SUB PUSH2 0xC40 JUMPI PUSH2 0xC3F PUSH2 0xBE9 JUMP JUMPDEST JUMPDEST POP SWAP2 SWAP1 POP JUMP JUMPDEST PUSH32 0x4E6F2070726F706F73616C7320617661696C61626C6500000000000000000000 PUSH0 DUP3 ADD MSTORE POP JUMP JUMPDEST PUSH0 PUSH2 0xC7A PUSH1 0x16 DUP4 PUSH2 0x7E4 JUMP JUMPDEST SWAP2 POP PUSH2 0xC85 DUP3 PUSH2 0xC46 JUMP JUMPDEST PUSH1 0x20 DUP3 ADD SWAP1 POP SWAP2 SWAP1 POP JUMP JUMPDEST PUSH0 PUSH1 0x20 DUP3 ADD SWAP1 POP DUP2 DUP2 SUB PUSH0 DUP4 ADD MSTORE PUSH2 0xCA7 DUP2 PUSH2 0xC6E JUMP JUMPDEST SWAP1 POP SWAP2 SWAP1 POP JUMP JUMPDEST PUSH32 0x4465736372697074696F6E2063616E6E6F7420626520656D7074790000000000 PUSH0 DUP3 ADD MSTORE POP JUMP JUMPDEST PUSH0 PUSH2 0xCE2 PUSH1 0x1B DUP4 PUSH2 0x7E4 JUMP JUMPDEST SWAP2 POP PUSH2 0xCED DUP3 PUSH2 0xCAE JUMP JUMPDEST PUSH1 0x20 DUP3 ADD SWAP1 POP SWAP2 SWAP1 POP JUMP JUMPDEST PUSH0 PUSH1 0x20 DUP3 ADD SWAP1 POP DUP2 DUP2 SUB PUSH0 DUP4 ADD MSTORE PUSH2 0xD0F DUP2 PUSH2 0xCD6 JUMP JUMPDEST SWAP1 POP SWAP2 SWAP1 POP JUMP JUMPDEST PUSH32 0x4E487B7100000000000000000000000000000000000000000000000000000000 PUSH0 MSTORE PUSH1 0x41 PUSH1 0x4 MSTORE PUSH1 0x24 PUSH0 REVERT JUMPDEST PUSH0 DUP2 SWAP1 POP DUP2 PUSH0 MSTORE PUSH1 0x20 PUSH0 KECCAK256 SWAP1 POP SWAP2 SWAP1 POP JUMP JUMPDEST PUSH0 PUSH1 0x20 PUSH1 0x1F DUP4 ADD DIV SWAP1 POP SWAP2 SWAP1 POP JUMP JUMPDEST PUSH0 DUP3 DUP3 SHL SWAP1 POP SWAP3 SWAP2 POP POP JUMP JUMPDEST PUSH0 PUSH1 0x8 DUP4 MUL PUSH2 0xD9F PUSH32 0xFFFFFFFFFFFFFFFFFFFFFFFFFFFFFFFFFFFFFFFFFFFFFFFFFFFFFFFFFFFFFFFF DUP3 PUSH2 0xD64 JUMP JUMPDEST PUSH2 0xDA9 DUP7 DUP4 PUSH2 0xD64 JUMP JUMPDEST SWAP6 POP DUP1 NOT DUP5 AND SWAP4 POP DUP1 DUP7 AND DUP5 OR SWAP3 POP POP POP SWAP4 SWAP3 POP POP POP JUMP JUMPDEST PUSH0 DUP2 SWAP1 POP SWAP2 SWAP1 POP JUMP JUMPDEST PUSH0 PUSH2 0xDE4 PUSH2 0xDDF PUSH2 0xDDA DUP5 PUSH2 0x77C JUMP JUMPDEST PUSH2 0xDC1 JUMP JUMPDEST PUSH2 0x77C JUMP JUMPDEST SWAP1 POP SWAP2 SWAP1 POP JUMP JUMPDEST PUSH0 DUP2 SWAP1 POP SWAP2 SWAP1 POP JUMP JUMPDEST PUSH2 0xDFD DUP4 PUSH2 0xDCA JUMP JUMPDEST PUSH2 0xE11 PUSH2 0xE09 DUP3 PUSH2 0xDEB JUMP JUMPDEST DUP5 DUP5 SLOAD PUSH2 0xD70 JUMP JUMPDEST DUP3 SSTORE POP POP POP POP JUMP JUMPDEST PUSH0 SWAP1 JUMP JUMPDEST PUSH2 0xE25 PUSH2 0xE19 JUMP JUMPDEST PUSH2 0xE30 DUP2 DUP5 DUP5 PUSH2 0xDF4 JUMP JUMPDEST POP POP POP JUMP JUMPDEST JUMPDEST DUP2 DUP2 LT ISZERO PUSH2 0xE53 JUMPI PUSH2 0xE48 PUSH0 DUP3 PUSH2 0xE1D JUMP JUMPDEST PUSH1 0x1 DUP2 ADD SWAP1 POP PUSH2 0xE36 JUMP JUMPDEST POP POP JUMP JUMPDEST PUSH1 0x1F DUP3 GT ISZERO PUSH2 0xE98 JUMPI PUSH2 0xE69 DUP2 PUSH2 0xD43 JUMP JUMPDEST PUSH2 0xE72 DUP5 PUSH2 0xD55 JUMP JUMPDEST DUP2 ADD PUSH1 0x20 DUP6 LT ISZERO PUSH2 0xE81 JUMPI DUP2 SWAP1 POP JUMPDEST PUSH2 0xE95 PUSH2 0xE8D DUP6 PUSH2 0xD55 JUMP JUMPDEST DUP4 ADD DUP3 PUSH2 0xE35 JUMP JUMPDEST POP POP JUMPDEST POP POP POP JUMP JUMPDEST PUSH0 DUP3 DUP3 SHR SWAP1 POP SWAP3 SWAP2 POP POP JUMP JUMPDEST PUSH0 PUSH2 0xEB8 PUSH0 NOT DUP5 PUSH1 0x8 MUL PUSH2 0xE9D JUMP JUMPDEST NOT DUP1 DUP4 AND SWAP2 POP POP SWAP3 SWAP2 POP POP JUMP JUMPDEST PUSH0 PUSH2 0xED0 DUP4 DUP4 PUSH2 0xEA9 JUMP JUMPDEST SWAP2 POP DUP3 PUSH1 0x2 MUL DUP3 OR SWAP1 POP SWAP3 SWAP2 POP POP JUMP JUMPDEST PUSH2 0xEE9 DUP3 PUSH2 0x7DA JUMP JUMPDEST PUSH8 0xFFFFFFFFFFFFFFFF DUP2 GT ISZERO PUSH2 0xF02 JUMPI PUSH2 0xF01 PUSH2 0xD16 JUMP JUMPDEST JUMPDEST PUSH2 0xF0C DUP3 SLOAD PUSH2 0xC16 JUMP JUMPDEST PUSH2 0xF17 DUP3 DUP3 DUP6 PUSH2 0xE57 JUMP JUMPDEST PUSH0 PUSH1 0x20 SWAP1 POP PUSH1 0x1F DUP4 GT PUSH1 0x1 DUP2 EQ PUSH2 0xF48 JUMPI PUSH0 DUP5 ISZERO PUSH2 0xF36 JUMPI DUP3 DUP8 ADD MLOAD SWAP1 POP JUMPDEST PUSH2 0xF40 DUP6 DUP3 PUSH2 0xEC5 JUMP JUMPDEST DUP7 SSTORE POP PUSH2 0xFA7 JUMP JUMPDEST PUSH1 0x1F NOT DUP5 AND PUSH2 0xF56 DUP7 PUSH2 0xD43 JUMP JUMPDEST PUSH0 JUMPDEST DUP3 DUP2 LT ISZERO PUSH2 0xF7D JUMPI DUP5 DUP10 ADD MLOAD DUP3 SSTORE PUSH1 0x1 DUP3 ADD SWAP2 POP PUSH1 0x20 DUP6 ADD SWAP5 POP PUSH1 0x20 DUP2 ADD SWAP1 POP PUSH2 0xF58 JUMP JUMPDEST DUP7 DUP4 LT ISZERO PUSH2 0xF9A JUMPI DUP5 DUP10 ADD MLOAD PUSH2 0xF96 PUSH1 0x1F DUP10 AND DUP3 PUSH2 0xEA9 JUMP JUMPDEST DUP4 SSTORE POP JUMPDEST PUSH1 0x1 PUSH1 0x2 DUP9 MUL ADD DUP9 SSTORE POP POP POP JUMPDEST POP POP POP POP POP POP JUMP JUMPDEST PUSH0 PUSH2 0xFB9 DUP3 PUSH2 0x77C JUMP JUMPDEST SWAP2 POP PUSH2 0xFC4 DUP4 PUSH2 0x77C JUMP JUMPDEST SWAP3 POP DUP3 DUP3 SUB SWAP1 POP DUP2 DUP2 GT ISZERO PUSH2 0xFDC JUMPI PUSH2 0xFDB PUSH2 0xB62 JUMP JUMPDEST JUMPDEST SWAP3 SWAP2 POP POP JUMP JUMPDEST DUP3 DUP2 DUP4 CALLDATACOPY PUSH0 DUP4 DUP4 ADD MSTORE POP POP POP JUMP JUMPDEST PUSH0 PUSH2 0xFFB DUP4 DUP6 PUSH2 0x7E4 JUMP JUMPDEST SWAP4 POP PUSH2 0x1008 DUP4 DUP6 DUP5 PUSH2 0xFE2 JUMP JUMPDEST PUSH2 0x1011 DUP4 PUSH2 0x802 JUMP JUMPDEST DUP5 ADD SWAP1 POP SWAP4 SWAP3 POP POP POP JUMP JUMPDEST PUSH0 PUSH1 0x40 DUP3 ADD SWAP1 POP PUSH2 0x102F PUSH0 DUP4 ADD DUP7 PUSH2 0x84A JUMP JUMPDEST DUP2 DUP2 SUB PUSH1 0x20 DUP4 ADD MSTORE PUSH2 0x1042 DUP2 DUP5 DUP7 PUSH2 0xFF0 JUMP JUMPDEST SWAP1 POP SWAP5 SWAP4 POP POP POP POP JUMP INVALID LOG2 PUSH5 0x6970667358 0x22 SLT KECCAK256 PUSH20 0x731952CB5AFA9FD8CC29E34E42A9AF9156545627 PUSH13 0xCE3FDF3EB3C3F4FCAA5B64736F PUSH13 0x634300081A0033000000000000 "
				},
				"gasEstimates": {
					"creation": {
						"codeDepositCost": "845200",
						"executionCost": "25146",
						"totalCost": "870346"
					},
					"external": {
						"getProposal(uint256)": "infinite",
						"getProposalsCount()": "2440",
						"getWinningProposal()": "infinite",
						"hasVoted(uint256,address)": "3116",
						"owner()": "2572",
						"proposals(uint256)": "infinite",
						"propose(string)": "infinite",
						"vote(uint256)": "infinite"
					}
				},
				"methodIdentifiers": {
					"getProposal(uint256)": "c7f758a8",
					"getProposalsCount()": "98e527d3",
					"getWinningProposal()": "a5134620",
					"hasVoted(uint256,address)": "43859632",
					"owner()": "8da5cb5b",
					"proposals(uint256)": "013cf08b",
					"propose(string)": "aa98df39",
					"vote(uint256)": "0121b93f"
				}
			},
			"storageLayout": {
				"storage": [
					{
						"astId": 8,
						"contract": "Assignment5/q2.sol:VotingSystem",
						"label": "owner",
						"offset": 0,
						"slot": "0",
						"type": "t_address"
					},
					{
						"astId": 12,
						"contract": "Assignment5/q2.sol:VotingSystem",
						"label": "proposals",
						"offset": 0,
						"slot": "1",
						"type": "t_array(t_struct(Proposal)6_storage)dyn_storage"
					},
					{
						"astId": 18,
						"contract": "Assignment5/q2.sol:VotingSystem",
						"label": "hasVoted",
						"offset": 0,
						"slot": "2",
						"type": "t_mapping(t_uint256,t_mapping(t_address,t_bool))"
					}
				],
				"types": {
					"t_address": {
						"encoding": "inplace",
						"label": "address",
						"numberOfBytes": "20"
					},
					"t_array(t_struct(Proposal)6_storage)dyn_storage": {
						"base": "t_struct(Proposal)6_storage",
						"encoding": "dynamic_array",
						"label": "struct VotingSystem.Proposal[]",
						"numberOfBytes": "32"
					},
					"t_bool": {
						"encoding": "inplace",
						"label": "bool",
						"numberOfBytes": "1"
					},
					"t_mapping(t_address,t_bool)": {
						"encoding": "mapping",
						"key": "t_address",
						"label": "mapping(address => bool)",
						"numberOfBytes": "32",
						"value": "t_bool"
					},
					"t_mapping(t_uint256,t_mapping(t_address,t_bool))": {
						"encoding": "mapping",
						"key": "t_uint256",
						"label": "mapping(uint256 => mapping(address => bool))",
						"numberOfBytes": "32",
						"value": "t_mapping(t_address,t_bool)"
					},
					"t_string_storage": {
						"encoding": "bytes",
						"label": "string",
						"numberOfBytes": "32"
					},
					"t_struct(Proposal)6_storage": {
						"encoding": "inplace",
						"label": "struct VotingSystem.Proposal",
						"members": [
							{
								"astId": 3,
								"contract": "Assignment5/q2.sol:VotingSystem",
								"label": "description",
								"offset": 0,
								"slot": "0",
								"type": "t_string_storage"
							},
							{
								"astId": 5,
								"contract": "Assignment5/q2.sol:VotingSystem",
								"label": "voteCount",
								"offset": 0,
								"slot": "1",
								"type": "t_uint256"
							}
						],
						"numberOfBytes": "64"
					},
					"t_uint256": {
						"encoding": "inplace",
						"label": "uint256",
						"numberOfBytes": "32"
					}
				}
			},
			"userdoc": {
				"kind": "user",
				"methods": {},
				"version": 1
			}
		}
	}
}