{
	"Assigment2/q7.sol": {
		"OwnerAccess": {
			"abi": [
				{
					"inputs": [],
					"stateMutability": "nonpayable",
					"type": "constructor"
				},
				{
					"anonymous": false,
					"inputs": [
						{
							"indexed": false,
							"internalType": "string",
							"name": "message",
							"type": "string"
						}
					],
					"name": "RestrictedAction",
					"type": "event"
				},
				{
					"inputs": [],
					"name": "ownerOnlyFunction",
					"outputs": [],
					"stateMutability": "nonpayable",
					"type": "function"
				}
			],
			"devdoc": {
				"kind": "dev",
				"methods": {},
				"version": 1
			},
			"evm": {
				"assembly": "    /* \"Assigment2/q7.sol\":161:814  contract OwnerAccess {... */\n  mstore(0x40, 0x80)\n    /* \"Assigment2/q7.sol\":278:329  constructor() {... */\n  callvalue\n  dup1\n  iszero\n  tag_1\n  jumpi\n  0x00\n  dup1\n  revert\ntag_1:\n  pop\n    /* \"Assigment2/q7.sol\":311:321  msg.sender */\n  caller\n    /* \"Assigment2/q7.sol\":303:308  owner */\n  0x00\n  dup1\n    /* \"Assigment2/q7.sol\":303:321  owner = msg.sender */\n  0x0100\n  exp\n  dup2\n  sload\n  dup2\n  0xffffffffffffffffffffffffffffffffffffffff\n  mul\n  not\n  and\n  swap1\n  dup4\n  0xffffffffffffffffffffffffffffffffffffffff\n  and\n  mul\n  or\n  swap1\n  sstore\n  pop\n    /* \"Assigment2/q7.sol\":161:814  contract OwnerAccess {... */\n  dataSize(sub_0)\n  dup1\n  dataOffset(sub_0)\n  0x00\n  codecopy\n  0x00\n  return\nstop\n\nsub_0: assembly {\n        /* \"Assigment2/q7.sol\":161:814  contract OwnerAccess {... */\n      mstore(0x40, 0x80)\n      callvalue\n      dup1\n      iszero\n      tag_1\n      jumpi\n      0x00\n      dup1\n      revert\n    tag_1:\n      pop\n      jumpi(tag_2, lt(calldatasize, 0x04))\n      shr(0xe0, calldataload(0x00))\n      dup1\n      0xe021c206\n      eq\n      tag_3\n      jumpi\n    tag_2:\n      0x00\n      dup1\n      revert\n        /* \"Assigment2/q7.sol\":561:694  function ownerOnlyFunction() public onlyOwner {... */\n    tag_3:\n      tag_4\n      tag_5\n      jump\t// in\n    tag_4:\n      stop\n    tag_5:\n        /* \"Assigment2/q7.sol\":454:459  owner */\n      0x00\n      dup1\n      sload\n      swap1\n      0x0100\n      exp\n      swap1\n      div\n      0xffffffffffffffffffffffffffffffffffffffff\n      and\n        /* \"Assigment2/q7.sol\":440:459  msg.sender == owner */\n      0xffffffffffffffffffffffffffffffffffffffff\n      and\n        /* \"Assigment2/q7.sol\":440:450  msg.sender */\n      caller\n        /* \"Assigment2/q7.sol\":440:459  msg.sender == owner */\n      0xffffffffffffffffffffffffffffffffffffffff\n      and\n      eq\n        /* \"Assigment2/q7.sol\":432:487  require(msg.sender == owner, \"Not the contract owner.\") */\n      tag_7\n      jumpi\n      mload(0x40)\n      0x08c379a000000000000000000000000000000000000000000000000000000000\n      dup2\n      mstore\n      0x04\n      add\n      tag_8\n      swap1\n      tag_9\n      jump\t// in\n    tag_8:\n      mload(0x40)\n      dup1\n      swap2\n      sub\n      swap1\n      revert\n    tag_7:\n        /* \"Assigment2/q7.sol\":622:686  RestrictedAction(\"Restricted function was called by the owner.\") */\n      0x556a7a7eec265c74e700b17d5d8dab757d6d59d5f6905bbde482c4c8a19ce979\n      mload(0x40)\n      tag_11\n      swap1\n      tag_12\n      jump\t// in\n    tag_11:\n      mload(0x40)\n      dup1\n      swap2\n      sub\n      swap1\n      log1\n        /* \"Assigment2/q7.sol\":561:694  function ownerOnlyFunction() public onlyOwner {... */\n      jump\t// out\n        /* \"#utility.yul\":7:176   */\n    tag_13:\n        /* \"#utility.yul\":91:102   */\n      0x00\n        /* \"#utility.yul\":125:131   */\n      dup3\n        /* \"#utility.yul\":120:123   */\n      dup3\n        /* \"#utility.yul\":113:132   */\n      mstore\n        /* \"#utility.yul\":165:169   */\n      0x20\n        /* \"#utility.yul\":160:163   */\n      dup3\n        /* \"#utility.yul\":156:170   */\n      add\n        /* \"#utility.yul\":141:170   */\n      swap1\n      pop\n        /* \"#utility.yul\":7:176   */\n      swap3\n      swap2\n      pop\n      pop\n      jump\t// out\n        /* \"#utility.yul\":182:355   */\n    tag_14:\n        /* \"#utility.yul\":322:347   */\n      0x4e6f742074686520636f6e7472616374206f776e65722e000000000000000000\n        /* \"#utility.yul\":318:319   */\n      0x00\n        /* \"#utility.yul\":310:316   */\n      dup3\n        /* \"#utility.yul\":306:320   */\n      add\n        /* \"#utility.yul\":299:348   */\n      mstore\n        /* \"#utility.yul\":182:355   */\n      pop\n      jump\t// out\n        /* \"#utility.yul\":361:727   */\n    tag_15:\n        /* \"#utility.yul\":503:506   */\n      0x00\n        /* \"#utility.yul\":524:591   */\n      tag_22\n        /* \"#utility.yul\":588:590   */\n      0x17\n        /* \"#utility.yul\":583:586   */\n      dup4\n        /* \"#utility.yul\":524:591   */\n      tag_13\n      jump\t// in\n    tag_22:\n        /* \"#utility.yul\":517:591   */\n      swap2\n      pop\n        /* \"#utility.yul\":600:693   */\n      tag_23\n        /* \"#utility.yul\":689:692   */\n      dup3\n        /* \"#utility.yul\":600:693   */\n      tag_14\n      jump\t// in\n    tag_23:\n        /* \"#utility.yul\":718:720   */\n      0x20\n        /* \"#utility.yul\":713:716   */\n      dup3\n        /* \"#utility.yul\":709:721   */\n      add\n        /* \"#utility.yul\":702:721   */\n      swap1\n      pop\n        /* \"#utility.yul\":361:727   */\n      swap2\n      swap1\n      pop\n      jump\t// out\n        /* \"#utility.yul\":733:1152   */\n    tag_9:\n        /* \"#utility.yul\":899:903   */\n      0x00\n        /* \"#utility.yul\":937:939   */\n      0x20\n        /* \"#utility.yul\":926:935   */\n      dup3\n        /* \"#utility.yul\":922:940   */\n      add\n        /* \"#utility.yul\":914:940   */\n      swap1\n      pop\n        /* \"#utility.yul\":986:995   */\n      dup2\n        /* \"#utility.yul\":980:984   */\n      dup2\n        /* \"#utility.yul\":976:996   */\n      sub\n        /* \"#utility.yul\":972:973   */\n      0x00\n        /* \"#utility.yul\":961:970   */\n      dup4\n        /* \"#utility.yul\":957:974   */\n      add\n        /* \"#utility.yul\":950:997   */\n      mstore\n        /* \"#utility.yul\":1014:1145   */\n      tag_25\n        /* \"#utility.yul\":1140:1144   */\n      dup2\n        /* \"#utility.yul\":1014:1145   */\n      tag_15\n      jump\t// in\n    tag_25:\n        /* \"#utility.yul\":1006:1145   */\n      swap1\n      pop\n        /* \"#utility.yul\":733:1152   */\n      swap2\n      swap1\n      pop\n      jump\t// out\n        /* \"#utility.yul\":1158:1389   */\n    tag_16:\n        /* \"#utility.yul\":1298:1332   */\n      0x526573747269637465642066756e6374696f6e207761732063616c6c65642062\n        /* \"#utility.yul\":1294:1295   */\n      0x00\n        /* \"#utility.yul\":1286:1292   */\n      dup3\n        /* \"#utility.yul\":1282:1296   */\n      add\n        /* \"#utility.yul\":1275:1333   */\n      mstore\n        /* \"#utility.yul\":1367:1381   */\n      0x7920746865206f776e65722e0000000000000000000000000000000000000000\n        /* \"#utility.yul\":1362:1364   */\n      0x20\n        /* \"#utility.yul\":1354:1360   */\n      dup3\n        /* \"#utility.yul\":1350:1365   */\n      add\n        /* \"#utility.yul\":1343:1382   */\n      mstore\n        /* \"#utility.yul\":1158:1389   */\n      pop\n      jump\t// out\n        /* \"#utility.yul\":1395:1761   */\n    tag_17:\n        /* \"#utility.yul\":1537:1540   */\n      0x00\n        /* \"#utility.yul\":1558:1625   */\n      tag_28\n        /* \"#utility.yul\":1622:1624   */\n      0x2c\n        /* \"#utility.yul\":1617:1620   */\n      dup4\n        /* \"#utility.yul\":1558:1625   */\n      tag_13\n      jump\t// in\n    tag_28:\n        /* \"#utility.yul\":1551:1625   */\n      swap2\n      pop\n        /* \"#utility.yul\":1634:1727   */\n      tag_29\n        /* \"#utility.yul\":1723:1726   */\n      dup3\n        /* \"#utility.yul\":1634:1727   */\n      tag_16\n      jump\t// in\n    tag_29:\n        /* \"#utility.yul\":1752:1754   */\n      0x40\n        /* \"#utility.yul\":1747:1750   */\n      dup3\n        /* \"#utility.yul\":1743:1755   */\n      add\n        /* \"#utility.yul\":1736:1755   */\n      swap1\n      pop\n        /* \"#utility.yul\":1395:1761   */\n      swap2\n      swap1\n      pop\n      jump\t// out\n        /* \"#utility.yul\":1767:2186   */\n    tag_12:\n        /* \"#utility.yul\":1933:1937   */\n      0x00\n        /* \"#utility.yul\":1971:1973   */\n      0x20\n        /* \"#utility.yul\":1960:1969   */\n      dup3\n        /* \"#utility.yul\":1956:1974   */\n      add\n        /* \"#utility.yul\":1948:1974   */\n      swap1\n      pop\n        /* \"#utility.yul\":2020:2029   */\n      dup2\n        /* \"#utility.yul\":2014:2018   */\n      dup2\n        /* \"#utility.yul\":2010:2030   */\n      sub\n        /* \"#utility.yul\":2006:2007   */\n      0x00\n        /* \"#utility.yul\":1995:2004   */\n      dup4\n        /* \"#utility.yul\":1991:2008   */\n      add\n        /* \"#utility.yul\":1984:2031   */\n      mstore\n        /* \"#utility.yul\":2048:2179   */\n      tag_31\n        /* \"#utility.yul\":2174:2178   */\n      dup2\n        /* \"#utility.yul\":2048:2179   */\n      tag_17\n      jump\t// in\n    tag_31:\n        /* \"#utility.yul\":2040:2179   */\n      swap1\n      pop\n        /* \"#utility.yul\":1767:2186   */\n      swap2\n      swap1\n      pop\n      jump\t// out\n\n    auxdata: 0xa2646970667358221220078aebd9240a547034370289955a01b5d619646af48deb66c4c88f1affc44b3d64736f6c634300081a0033\n}\n",
				"bytecode": {
					"linkReferences": {},
					"object": "6080604052348015600e575f80fd5b50335f806101000a81548173ffffffffffffffffffffffffffffffffffffffff021916908373ffffffffffffffffffffffffffffffffffffffff1602179055506102378061005b5f395ff3fe608060405234801561000f575f80fd5b5060043610610029575f3560e01c8063e021c2061461002d575b5f80fd5b610035610037565b005b5f8054906101000a900473ffffffffffffffffffffffffffffffffffffffff1673ffffffffffffffffffffffffffffffffffffffff163373ffffffffffffffffffffffffffffffffffffffff16146100c4576040517f08c379a00000000000000000000000000000000000000000000000000000000081526004016100bb90610155565b60405180910390fd5b7f556a7a7eec265c74e700b17d5d8dab757d6d59d5f6905bbde482c4c8a19ce9796040516100f1906101e3565b60405180910390a1565b5f82825260208201905092915050565b7f4e6f742074686520636f6e7472616374206f776e65722e0000000000000000005f82015250565b5f61013f6017836100fb565b915061014a8261010b565b602082019050919050565b5f6020820190508181035f83015261016c81610133565b9050919050565b7f526573747269637465642066756e6374696f6e207761732063616c6c656420625f8201527f7920746865206f776e65722e0000000000000000000000000000000000000000602082015250565b5f6101cd602c836100fb565b91506101d882610173565b604082019050919050565b5f6020820190508181035f8301526101fa816101c1565b905091905056fea2646970667358221220078aebd9240a547034370289955a01b5d619646af48deb66c4c88f1affc44b3d64736f6c634300081a0033",
					"opcodes": "PUSH1 0x80 PUSH1 0x40 MSTORE CALLVALUE DUP1 ISZERO PUSH1 0xE JUMPI PUSH0 DUP1 REVERT JUMPDEST POP CALLER PUSH0 DUP1 PUSH2 0x100 EXP DUP2 SLOAD DUP2 PUSH20 0xFFFFFFFFFFFFFFFFFFFFFFFFFFFFFFFFFFFFFFFF MUL NOT AND SWAP1 DUP4 PUSH20 0xFFFFFFFFFFFFFFFFFFFFFFFFFFFFFFFFFFFFFFFF AND MUL OR SWAP1 SSTORE POP PUSH2 0x237 DUP1 PUSH2 0x5B PUSH0 CODECOPY PUSH0 RETURN INVALID PUSH1 0x80 PUSH1 0x40 MSTORE CALLVALUE DUP1 ISZERO PUSH2 0xF JUMPI PUSH0 DUP1 REVERT JUMPDEST POP PUSH1 0x4 CALLDATASIZE LT PUSH2 0x29 JUMPI PUSH0 CALLDATALOAD PUSH1 0xE0 SHR DUP1 PUSH4 0xE021C206 EQ PUSH2 0x2D JUMPI JUMPDEST PUSH0 DUP1 REVERT JUMPDEST PUSH2 0x35 PUSH2 0x37 JUMP JUMPDEST STOP JUMPDEST PUSH0 DUP1 SLOAD SWAP1 PUSH2 0x100 EXP SWAP1 DIV PUSH20 0xFFFFFFFFFFFFFFFFFFFFFFFFFFFFFFFFFFFFFFFF AND PUSH20 0xFFFFFFFFFFFFFFFFFFFFFFFFFFFFFFFFFFFFFFFF AND CALLER PUSH20 0xFFFFFFFFFFFFFFFFFFFFFFFFFFFFFFFFFFFFFFFF AND EQ PUSH2 0xC4 JUMPI PUSH1 0x40 MLOAD PUSH32 0x8C379A000000000000000000000000000000000000000000000000000000000 DUP2 MSTORE PUSH1 0x4 ADD PUSH2 0xBB SWAP1 PUSH2 0x155 JUMP JUMPDEST PUSH1 0x40 MLOAD DUP1 SWAP2 SUB SWAP1 REVERT JUMPDEST PUSH32 0x556A7A7EEC265C74E700B17D5D8DAB757D6D59D5F6905BBDE482C4C8A19CE979 PUSH1 0x40 MLOAD PUSH2 0xF1 SWAP1 PUSH2 0x1E3 JUMP JUMPDEST PUSH1 0x40 MLOAD DUP1 SWAP2 SUB SWAP1 LOG1 JUMP JUMPDEST PUSH0 DUP3 DUP3 MSTORE PUSH1 0x20 DUP3 ADD SWAP1 POP SWAP3 SWAP2 POP POP JUMP JUMPDEST PUSH32 0x4E6F742074686520636F6E7472616374206F776E65722E000000000000000000 PUSH0 DUP3 ADD MSTORE POP JUMP JUMPDEST PUSH0 PUSH2 0x13F PUSH1 0x17 DUP4 PUSH2 0xFB JUMP JUMPDEST SWAP2 POP PUSH2 0x14A DUP3 PUSH2 0x10B JUMP JUMPDEST PUSH1 0x20 DUP3 ADD SWAP1 POP SWAP2 SWAP1 POP JUMP JUMPDEST PUSH0 PUSH1 0x20 DUP3 ADD SWAP1 POP DUP2 DUP2 SUB PUSH0 DUP4 ADD MSTORE PUSH2 0x16C DUP2 PUSH2 0x133 JUMP JUMPDEST SWAP1 POP SWAP2 SWAP1 POP JUMP JUMPDEST PUSH32 0x526573747269637465642066756E6374696F6E207761732063616C6C65642062 PUSH0 DUP3 ADD MSTORE PUSH32 0x7920746865206F776E65722E0000000000000000000000000000000000000000 PUSH1 0x20 DUP3 ADD MSTORE POP JUMP JUMPDEST PUSH0 PUSH2 0x1CD PUSH1 0x2C DUP4 PUSH2 0xFB JUMP JUMPDEST SWAP2 POP PUSH2 0x1D8 DUP3 PUSH2 0x173 JUMP JUMPDEST PUSH1 0x40 DUP3 ADD SWAP1 POP SWAP2 SWAP1 POP JUMP JUMPDEST PUSH0 PUSH1 0x20 DUP3 ADD SWAP1 POP DUP2 DUP2 SUB PUSH0 DUP4 ADD MSTORE PUSH2 0x1FA DUP2 PUSH2 0x1C1 JUMP JUMPDEST SWAP1 POP SWAP2 SWAP1 POP JUMP INVALID LOG2 PUSH5 0x6970667358 0x22 SLT KECCAK256 SMOD DUP11 0xEB 0xD9 0x24 EXP SLOAD PUSH17 0x34370289955A01B5D619646AF48DEB66C4 0xC8 DUP16 BYTE SELFDESTRUCT 0xC4 0x4B RETURNDATASIZE PUSH5 0x736F6C6343 STOP ADDMOD BYTE STOP CALLER "
				},
				"gasEstimates": {
					"creation": {
						"codeDepositCost": "113400",
						"executionCost": "24422",
						"totalCost": "137822"
					},
					"external": {
						"ownerOnlyFunction()": "2571"
					}
				},
				"methodIdentifiers": {
					"ownerOnlyFunction()": "e021c206"
				}
			},
			"storageLayout": {
				"storage": [
					{
						"astId": 3,
						"contract": "Assigment2/q7.sol:OwnerAccess",
						"label": "owner",
						"offset": 0,
						"slot": "0",
						"type": "t_address"
					}
				],
				"types": {
					"t_address": {
						"encoding": "inplace",
						"label": "address",
						"numberOfBytes": "20"
					}
				}
			},
			"userdoc": {
				"kind": "user",
				"methods": {},
				"version": 1
			}
		}
	}
}